:100000000C9447050C946F050C946F050C946F05C8
:100010000C946F050C946F050C946F050C946F0590
:100020000C946F050C946F050C946F050C946F0580
:100030000C946F050C946F050C946F050C946F0570
:100040000C94DE0C0C946F050C94190C0C94F30BAF
:100050000C946F050C946F050C946F050C946F0550
:100060000C94280D0C946F0500000008000201009C
:10007000000304070000000000000000DB40A4A60D
:100080002EAFDA0281DA1281DA02818F2000A1C854
:10009000D300408DAED580A80000600000000000B5
:1000A000000000000000000000E000000000000070
:1000B0000000000000000001E0000000000000005F
:1000C00000000000000001F000000000000000003F
:1000D000000000000003F00000000000000000002D
:1000E0000000000007F00000000000000000000019
:1000F00000000007F8000000000000000000000001
:1001000000000FF800000003C0007E000001E000C6
:100110007F0FF800000003C000FE000001E000FFB8
:10012000EFF800000003C000FE000001E000FFFF48
:10013000F800000003C000F00000000F007FFE7F09
:10014000C0000003C000F00000000F003FFE7FF879
:100150003FF1FBCFFCFEF3BC3DEFE01FFE7FFF7FD6
:10016000FBFFDFFEFEFFBC3DEFE01FC6FFFF7FFB96
:10017000FFDFFEFEFFBC3DEFE00FE3C7FE787BC371
:10018000DE1EF0FFBC3DEF0007FF87FC787BC3DE7F
:100190001EF0F83C3DEF0001FFFFF0007BC3C01EE6
:1001A000F0F03C3DEF0001F37FE03FFBC3CFFEF0FA
:1001B000F03C3DEF0003E33F807FFBC3DFFEF0F048
:1001C0003C3DEF0007E73C00787BC3DE1EF0F03CCF
:1001D0003DEF0007FFBE00787BC3DE1EF0F03C3D24
:1001E000EF0007FFFE00787BC3DE1EF0F03C3DEF22
:1001F000000FFFFE007FFBFFDFFEF0F03FFDEFE0B2
:100200000FFFFF007FFBFFDFFEF0F03FFDEFE00F91
:10021000F9FF003E79F9CF9EF0F01F3DE7E01FF1B6
:10022000FF0000000000000000000000001F80FF31
:10023000007FFFFFFFFFFFFFFFFFFFE01C007F00CD
:100240007FFFFFFFFEB46D888D18E000001F007F68
:10025000FFFFFFFE95AD7DB577E000000F007FFF4B
:10026000FFFFFEA5AD9D8D19E0000006007FFFFF9A
:10027000FFFEB5ADEDB57EE000000000000180009E
:1002800000000000000000000380000000000000EB
:1002900000000007C000000000000000000007C0D0
:1002A0000000000000000000000FC000000000007F
:1002B000000000001FE00000000000000000001F20
:1002C000E00000000000000000003FE0000000002F
:1002D00000000000003FF0000000000000000000EF
:1002E0007FF0000000000000001FF87FF000000019
:1002F000000000003FFE7FF0000000000000003F13
:10030000FF7FF0000000000000001FFFFBE0000086
:1003100000000000000FFFF9FFC000000000000017
:100320000FFFF9FFF800000000000007FFF1FFFFDA
:1003300000000000000003FC73FFFF8000000000CD
:100340000001FE3FFFFF80000000000000FF1E0FC5
:10035000FF000000000000007FFE1FFC0000000006
:100360000000003FFFFFF8000000000000000FDF6A
:10037000FFE0000000000000001F19FFC0000000A7
:10038000000000003F3CFF00000000000000007E75
:100390007CF800000000000000007FFE7C000000F0
:1003A0000000000000FFFFFC000000000000000053
:1003B000FFFFFE0000000000000000FFFFFE000045
:1003C000000000000001FFEFFE0000000000000040
:1003D00001FFCFFE0000000000000003FF07FE0049
:1003E00000000000000003FC07FE00000000000009
:1003F0000003F003FE00000000000000018000FE8A
:10040000000000000000000000007E00000000006E
:1004100000000000003E000000000000000000009E
:100420000C000000000000078000FC000003C0007A
:100430000000078001FC000003C0000000078001ED
:10044000FC000003C0000000078001E00000001E67
:10045000000000078001E00000001E007FE3F79F1E
:10046000F9FDE7787BDFC0FFF7FFBFFDFDFF787B7D
:10047000DFC0FFF7FFBFFDFDFF787BDFC0F0F78730
:10048000BC3DE1FF787BDE00F0F787BC3DE1F07812
:100490007BDE0000F787803DE1E0787BDE007FF7C0
:1004A000879FFDE1E0787BDE00FFF787BFFDE1E09D
:1004B000787BDE00F0F787BC3DE1E0787BDE00F082
:1004C000F787BC3DE1E0787BDE00F0F787BC3DE1DB
:1004D000E0787BDE00FFF7FFBFFDE1E07FFBDFC0E0
:1004E000FFF7FFBFFDE1E07FFBDFC07CF3F39F3D43
:1004F000E1E03E7BCFC000000000000000000000F3
:1005000000FFFFFFFFFFFFFFFFFFFFC0FFFFFFFF39
:10051000FD68DB111A31C0FFFFFFFFFD2B5AFB6A9C
:10052000EFC0FFFFFFFFFD4B5B3B1A33C0FFFFFF38
:10053000FFFD6B5BDB6AFDC02200FF2100000000B5
:1005400000003E5B4F5B3E3E6B4F6B3E1C3E7C3E75
:100550001C183C7E3C181C577D571C1C5E7F5E1C83
:1005600000183C1800FFE7C3E7FF0018241800FF3D
:10057000E7DBE7FF30483A060E2629792926407F37
:10058000050507407F05253F5A3CE73C5A7F3E1C46
:100590001C08081C1C3E7F14227F22145F5F005F32
:1005A0005F06097F017F006689956A606060606010
:1005B00094A2FFA29408047E040810207E20100854
:1005C000082A1C08081C2A08081E101010100C1EEF
:1005D0000C1E0C30383E3830060E3E0E0600000071
:1005E000000000005F00000007000700147F147F78
:1005F00014242A7F2A122313086462364956205095
:100600000008070300001C2241000041221C002AB0
:100610001C7F1C2A08083E0808008070300008086B
:10062000080808000060600020100804023E5149DC
:10063000453E00427F400072494949462141494DAB
:10064000331814127F1027454545393C4A49493132
:1006500041211109073649494936464949291E00B1
:10066000001400000040340000000814224114145B
:10067000141414004122140802015909063E415D78
:10068000594E7C1211127C7F494949363E41414105
:10069000227F4141413E7F494949417F0909090182
:1006A0003E414151737F0808087F00417F4100208F
:1006B00040413F017F081422417F404040407F027B
:1006C0001C027F7F0408107F3E4141413E7F0909A3
:1006D00009063E4151215E7F0919294626494949AB
:1006E0003203017F01033F4040403F1F2040201F55
:1006F0003F4038403F6314081463030478040361E7
:1007000059494D43007F41414102040810200041F6
:1007100041417F0402010204404040404000030781
:10072000080020545478407F2844443838444444D6
:1007300028384444287F385454541800087E09024D
:1007400018A4A49C787F0804047800447D4000200D
:1007500040403D007F1028440000417F40007C0461
:100760007804787C080404783844444438FC18241D
:10077000241818242418FC7C0804040848545454F1
:100780002404043F44243C4040207C1C2040201C86
:100790003C4030403C44281028444C9090907C448D
:1007A00064544C44000836410000007700000041CA
:1007B00036080002010204023C2623263C1EA1A1A9
:1007C00061123A4040207A38545455592155557990
:1007D0004122545478422155547840205455794050
:1007E0000C1E5272123955555559395454545939B1
:1007F000555454580000457C410002457D4200019B
:10080000457C407D1211127DF0282528F07C54553E
:1008100045002054547C547C0A097F493249494997
:10082000323A4444443A324A4848303A4141217AC3
:100830003A42402078009DA0A07D3D4242423D3D8D
:100840004040403D3C24FF2424487E4943662B2FF2
:10085000FC2F2BFF0929F620C0887E090320545461
:1008600079410000447D413048484A3238404022B6
:100870007A007A0A0A727D0D19317D2629292F28DE
:10088000262929292630484D40203808080808081C
:10089000080808382F10C8ACBA2F102834FA000006
:1008A0007B000008142A142222142A14085500552B
:1008B0000055AA55AA55AAFF55FF55FF000000FF95
:1008C00000101010FF00141414FF001010FF00FFA0
:1008D0001010F010F0141414FC001414F700FF00B2
:1008E00000FF00FF1414F404FC141417101F101060
:1008F0001F101F1414141F00101010F0000000002F
:100900001F101010101F10101010F010000000FF2A
:10091000101010101010101010FF10000000FF1425
:100920000000FF00FF00001F10170000FC04F4147B
:10093000141710171414F404F40000FF00F7141433
:100940001414141414F700F7141414171410101FAF
:10095000101F141414F4141010F010F000001F10E5
:100960001F0000001F14000000FC140000F010F035
:100970001010FF10FF141414FF141010101F0000AB
:100980000000F010FFFFFFFFFFF0F0F0F0F0FFFFBE
:10099000FF0000000000FFFF0F0F0F0F0F3844444F
:1009A0003844FC4A4A4A347E02020606027E027E2F
:1009B0000263554941633844443C04407E201E2074
:1009C00006027E020299A5E7A5991C2A492A1C4C19
:1009D0007201724C304A4D4D303048784830BC621C
:1009E0005A463D3E494949007E0101017E2A2A2A94
:1009F0002A2A44445F444440514A444040444A51B6
:100A0000400000FF0103E080FF000008086B6B0856
:100A10003612362436060F090F060000181800009B
:100A2000001010003040FF0101001F01011E0019DD
:100A30001D1712003C3C3C3C00000000000001037C
:100A4000070F1F3F7F0080C0E0F0F8FCFE000000B1
:100A500000250028002B0000000000240027002AA9
:100A60000004040404040404040202020202020357
:100A70000303030303010204081020408001020461
:100A8000081020010204081020005F1AAF1411247E
:100A90001FBECFEFD8E0DEBFCDBF23E0AEE8B1E0B0
:100AA00001C01D92A338B207E1F711E0A0E0B1E068
:100AB000EAE8F8E302C005900D92AE38B107D9F725
:100AC00015E0C6E4D5E004C02197FE010E94051B95
:100AD000C534D107C9F70E94BE140C94381C0C947D
:100AE0000000FC01538D448D252F30E0842F90E0D1
:100AF000821B930B541710F0CF9608950197089519
:100B0000FC01918D828D981761F0828DDF01A80F15
:100B1000B11D5D968C91928D9F5F9F73928F90E037
:100B200008958FEF9FEF0895FC01918D828D9817A6
:100B300031F0828DE80FF11D858D90E008958FEFE3
:100B40009FEF0895FC01918D228D892F90E0805CAC
:100B50009F4F821B91098F739927089580E592E03A
:100B60000E94A20521E0892B09F420E0822F08953C
:100B7000FC01848DDF01A80FB11DA35ABF4F2C913A
:100B8000848D90E001968F739927848FA689B78909
:100B90002C93A089B1898C91837080648C93938D00
:100BA000848D981306C00288F389E02D80818F7DA3
:100BB00080830895EF92FF920F931F93CF93DF935B
:100BC000EC0181E0888F9B8D8C8D981305C0E8899E
:100BD000F989808185FD26C0F62E0B8D10E00F5F10
:100BE0001F4F0F731127E02E8C8DE8120CC00FB62B
:100BF00007FCFACFE889F989808185FFF5CFCE011E
:100C00000E94B805F1CF8B8DFE01E80FF11DE35A6C
:100C1000FF4FF0829FB7F8940B8FEA89FB898081A0
:100C200080620AC09FB7F894EE89FF896083E889E3
:100C3000F98980818370806480839FBF81E090E028
:100C4000DF91CF911F910F91FF90EF900895CF9377
:100C5000DF93EC01888D8823C9F0EA89FB898081C4
:100C600085FD05C0A889B9898C9186FD0FC00FB696
:100C700007FCF5CF808185FFF2CFA889B9898C91D7
:100C800085FFEDCFCE010E94B805E7CFDF91CF9170
:100C9000089580E090E0892B29F00E94AE05811133
:100CA0000C94000008953FB7F8948091F60190915C
:100CB000F701A091F801B091F90126B5A89B05C0F4
:100CC0002F3F19F00196A11DB11D3FBFBA2FA92FCB
:100CD000982F8827820F911DA11DB11DBC01CD0148
:100CE00042E0660F771F881F991F4A95D1F7089534
:100CF0000895FC016370658B84819581268137811D
:100D0000613039F0633029F09187808733872287FB
:100D10000895318720879387828708956F927F9205
:100D20008F929F92AF92BF92CF92DF92EF92FF92FB
:100D30000F931F93CF93DF93EC014B015A0169018D
:100D40003801E881F9810284F385E02D0995E88175
:100D5000F9810288F389E02D87019601A501B4018C
:100D6000CE010995A501460D571D41505109E88155
:100D7000F9810288F389E02D9601B401CE0109952D
:100D8000E881F9810088F189E02D9301A501B40182
:100D9000CE010995C80CD91CB60161507109E881D2
:100DA000F9810088F189E02D9301A501CE01099513
:100DB000E881F9810688F789E02DCE01DF91CF9196
:100DC0001F910F91FF90EF90DF90CF90BF90AF9069
:100DD0009F908F907F906F9009948F929F92AF9287
:100DE000BF92CF92DF92EF92FF920F931F93CF9318
:100DF000DF934C016B015A01E901DC01ED91FC919B
:100E00006217730781F40417150724F48B2D58011A
:100E1000042F182F0A191B0998012F5F3F4F048CCC
:100E2000F58DE02D12C04017510709F52617370739
:100E300024F48D2D6901C62FD82F9E012C193D0950
:100E40002F5F3F4F068CF78DE02D8701A501B6017E
:100E5000C4010995DF91CF911F910F91FF90EF9001
:100E6000DF90CF90BF90AF909F908F9008950284B5
:100E7000F385E02D0995D401ED91FC910488F58965
:100E8000E02D9E01A501B601C4010995D401ED91A3
:100E9000FC910688F789E02DC401DF91CF911F9165
:100EA0000F91FF90EF90DF90CF90BF90AF909F9009
:100EB0008F900994EF92FF920F931F93DC011A9683
:100EC0000D911C911B9718962D913C911997ED91BE
:100ED000FC9100A0F1A1E02D7B0140E050E060E03A
:100EE00070E009951F910F91FF90EF9008954F9238
:100EF0005F926F927F928F929F92AF92BF92CF92AA
:100F0000DF92EF92FF920F931F93CF93DF936C01C9
:100F10002B015A0139014801DC01ED91FC91028459
:100F2000F385E02D0995E201640C751CD601ED9165
:100F3000FC91C615D7055CF40088F189E02D870186
:100F40009401A501BE01C60109952196EFCF06883F
:100F5000F789E02DC601DF91CF911F910F91FF908E
:100F6000EF90DF90CF90BF90AF909F908F907F9049
:100F70006F905F904F9009948F929F92AF92BF9223
:100F8000CF92DF92EF92FF920F931F93CF93DF9355
:100F9000EC015B014A016901E881F9810284F38572
:100FA000E02D099595012C0D3D1D21503109E88159
:100FB000F9810488F589E02D78018401A401B50147
:100FC000CE010995E881F9810688F789E02DCE01E7
:100FD000DF91CF911F910F91FF90EF90DF90CF9015
:100FE000BF90AF909F908F9009948F929F92AF92F5
:100FF000BF92CF92DF92EF92FF920F931F93CF9306
:10100000DF93EC015B014A0169017801E881F98114
:101010000284F385E02D0995C80CD91C8601015086
:101020001109E881F9810488F589E02D9501A40171
:10103000B501CE010995E881F9810688F789E02D8F
:10104000CE01DF91CF911F910F91FF90EF90DF9034
:10105000CF90BF90AF909F908F9009940895EF929A
:10106000FF920F931F93DC01ED91FC9100A0F1A181
:10107000E02D09951F910F91FF90EF9008950F9328
:101080001F93DC01ED91FC91068CF78DE02D099505
:101090001F910F9108950F931F93DC01ED91FC9127
:1010A000048CF58DE02D09951F910F910895DC01B9
:1010B000ED91FC910084F185E02D09942F923F92EF
:1010C0004F925F926F927F928F929F92AF92BF9258
:1010D000CF92DF92EF92FF920F931F93CF93DF9304
:1010E00000D000D000D0CDB7DEB72C017E836D8359
:1010F0006A015901C801FC82EB824801841A950AF1
:1011000097FE03C091948194910835012D813E8111
:10111000621A730A77FE03C07194619471086814AF
:1011200079045CF43A2D2B2D5C01832F922F3D81A5
:101130002E81DE82CD82C32ED22EAD81BE81AA1633
:10114000BB065CF43C2D2D2D6C01832F922F3D812D
:101150002E81BE82AD82A32EB22E85012D813E81CD
:10116000021B130B1C012C183D0837FE03C03194E1
:1011700021943108780117FF03C03FEFE31AF30A07
:10118000F594E794C816D9062CF08FEF9FEF9A8359
:10119000898304C0A1E0B0E0BA83A9832D813E8198
:1011A000A216B30624F1D201ED91FC910484F585D9
:1011B000E02D2B813C816814790424F44D815E81FB
:1011C000B60103C0A6016D817E81C2010995E218B6
:1011D000F308F7FE06C029813A81C20ED31EE00E45
:1011E000F11E8D819E8101969E838D83D7CF269699
:1011F0000FB6F894DEBF0FBECDBFDF91CF911F9128
:101200000F91FF90EF90DF90CF90BF90AF909F90A5
:101210008F907F906F905F904F903F902F900895A8
:1012200085ED8093BC008091BC0084FDFCCF1092C2
:101230002B0208954091CE01262F30E0240F311D5E
:1012400021323105DCF420912B022430C9F4FC0159
:1012500080E090E0861758F43091CE012191DC01B6
:10126000A255BE4FA30FB11D2C930196F3CF8091D1
:10127000CE01680F6093CE0180E0089581E008956B
:1012800082E0089508950895E091FF018091FE01A4
:10129000E81730F4F0E0E257FE4F808190E00895C7
:1012A0008FEF9FEF08959091FF018091FE019817B5
:1012B00050F4E92FF0E0E257FE4F208130E09F5FCD
:1012C0009093FF0102C02FEF3FEFC9010895809175
:1012D000FE0190E02091FF01821B91090895CF92B9
:1012E000DF92EF92FF920F931F93CF93DF937C01D6
:1012F000CB018A0120912C02222389F0EB016B01A2
:10130000C40ED51ECC15DD0569F06991D701ED91AC
:10131000FC910190F081E02DC7010995F3CF642F76
:101320000E941A09C801DF91CF911F910F91FF9080
:10133000EF90DF90CF900895CF93DF931F92CDB7BA
:10134000DEB7698320912C022223D1F020914F0235
:10135000203240F021E030E0FC013383228380E042
:1013600090E015C080912D02E82FF0E0E25DFD4F86
:10137000998190838F5F80932D0280934F0205C0E7
:1013800061E0CE0101960E941A0981E090E00F9081
:10139000DF91CF910895FC0177FDB9C080859185DB
:1013A000681779070CF0B3C057FDB1C082859385EB
:1013B000481759070CF008958589823079F48481A3
:1013C0009581DC01A61BB70BBD01615071098681B7
:1013D0009781DC01A41BB50BAD010EC0833009F071
:1013E00084C064277527CA0186279727682779272D
:1013F00046815781481B590B415051092130310515
:1014000031F048F12230310509F44AC00895CA018B
:1014100057FD07969C01A3E035952795AA95E1F71E
:10142000A481B5812A9FC0012B9F900D3A9F900DFA
:101430001124680F791F068CF78DE02DE60FF71F3A
:101440004770552781E090E001C0880F4A95EAF780
:101450009081892B48C0CA0157FD07969C0193E0F3
:10146000359527959A95E1F7A481B5812A9FC0010A
:101470002B9F900D3A9F900D1124680F791F068CB9
:10148000F78DE02DE60FF71F4770552781E090E0BC
:1014900001C0880F4A95EAF780959081892323C07F
:1014A000CA0157FD07969C0183E0359527958A95DB
:1014B000E1F7A481B5812A9FC0012B9F900D3A9F2F
:1014C000900D1124680F791F068CF78DE02DE60F23
:1014D000F71F4770552781E090E001C0880F4A95BB
:1014E000EAF79081892780830895813009F086CFBB
:1014F0006427752746275727642775278481958198
:10150000DC01A61BB70BBD016150710977CF0895AF
:10151000089580E090E008950E942C1CAF92BF9245
:10152000CF92EF92FF920F931F93CF93DF93EC0133
:10153000262F888D998D009709F040C06A3059F4A4
:101540001D861C862C898E859F8538E0239F800D03
:10155000911D112441C06D3009F4AAC08E898823E1
:10156000C1F03C898C859D8546E0349F800D911D9E
:10157000112448855985481759075CF41D861C8637
:101580008E859F8548E0349F800D911D11249F8793
:101590008E87EA88FB88088919894E855F856C8566
:1015A0007D85CC88CE010E9437122C898C859D8543
:1015B00036E0239F800D911D112442C06A3079F4DA
:1015C0001D861C862C89FC013696E4918E859F85AC
:1015D0002E9F800D911D11249F878E8769C06D30CD
:1015E00009F466C0FC0134963491631708F460C0B6
:1015F0003196E491E61708F45BC0FC0132966591E0
:101600007491422F50E0431B510937E0349F500141
:10161000359FB00C1124A60EB71EF50132963491F9
:101620003196E491332311F0E1110DC0F5013496A8
:10163000E4912C898C859D85E29F800D911D11245C
:101640009D878C8735C0F501359644915E89552379
:1016500011F16C89E32FF0E0E40FF11D47FDFA95DD
:101660006E9FD0016F9FB00D11244C855D854A0F90
:101670005B1FE885F985E417F5076CF41D861C8669
:10168000FC013696E4918E859F856E9F800D911D9D
:1016900011249F878E87EA88FB88088919894E85DF
:1016A0005F856C857D85CC88CE010E943712BECFC8
:1016B00081E090E0DF91CF911F910F91FF90EF902B
:1016C000CF90BF90AF9008950F931F93CF93DF9368
:1016D000DC015596EC915597E23071F0E330E9F07A
:1016E000E13079F5FB0114960D90BC91A02DA41B5F
:1016F000B50BA21BB30B18C0EC01EC81FD81E61BFE
:10170000F70BBF0161507109EE81FF81DF01A41B5E
:10171000B50BAD01421B530B14C0DA01EC01EE8195
:10172000FF81E61BF70B3197F7FD0DC0EC014E81F1
:101730005F81E417F5073CF4AF01BD010E941B1166
:1017400002C00E948211DF91CF911F910F910895E5
:101750000F931F93DC015596EC915597E23061F0A1
:10176000E33009F1E13081F51496ED91FC91159784
:10177000E41BF50B319723C0DC011496ED91FC912D
:101780001597DF01A61BB70BBD01DC011696ED9185
:10179000FC911797DF01A41BB50BAD014150510916
:1017A000621B730B11C0FA01DC0116964D915C911E
:1017B0001797DA01A61BB70BBD01621B730BAB01B8
:1017C000BF010E9482110CC057FD0AC0DC011696B1
:1017D000ED91FC9117974E175F0714F40E941B11AF
:1017E0001F910F9108951F920F920FB60F9211241F
:1017F0002F933F934F935F936F937F938F939F9319
:10180000AF93BF93EF93FF9380E592E00E94B805FA
:10181000FF91EF91BF91AF919F918F917F916F91C8
:101820005F914F913F912F910F900FBE0F901F909E
:1018300018951F920F920FB60F9211242F938F932A
:101840009F93EF93FF93E0916002F091610280819A
:10185000E0916602F091670282FD12C09081809152
:1018600069028F5F8F7320916A02821751F0E091B5
:101870006902F0E0E05BFD4F958F8093690201C043
:101880008081FF91EF919F918F912F910F900FBECB
:101890000F901F90189590E0FC01E859FF4F24919C
:1018A000FC01EB58F54F3491FC01EF59F54FE491F1
:1018B000EE2309F43CC0222339F1233091F038F4AF
:1018C0002130A9F0223001F584B58F7D12C0273078
:1018D00091F02830A1F02430B9F4809180008F7D00
:1018E00003C0809180008F77809380000DC084B505
:1018F0008F7784BD09C08091B0008F7703C080913D
:10190000B0008F7D8093B000F0E0EE0FFF1FE35B2F
:10191000F54FA591B4919FB7F894611104C08C91D3
:101920003095382302C0EC913E2B3C939FBF089525
:101930008F929F92AF92BF92CF92DF92EF92FF92DF
:101940006B017C010E9453064B015C01C114D10460
:10195000E104F104F1F00E945306DC01CB01881987
:101960009909AA09BB09883E9340A105B10570F306
:1019700021E0C21AD108E108F10888EE880E83E060
:10198000981EA11CB11CC114D104E104F10419F783
:10199000DDCFFF90EF90DF90CF90BF90AF909F9002
:1019A0008F9008952FB7F8946091F2017091F30130
:1019B0008091F4019091F5012FBF08951F920F922D
:1019C0000FB60F9211242F933F938F939F93AF9352
:1019D000BF938091F2019091F301A091F401B09135
:1019E000F5013091F10123E0230F2D3720F401960A
:1019F000A11DB11D05C026E8230F0296A11DB11D32
:101A00002093F1018093F2019093F301A093F401EC
:101A1000B093F5018091F6019091F701A091F80142
:101A2000B091F9010196A11DB11D8093F60190932B
:101A3000F701A093F801B093F901BF91AF919F9185
:101A40008F913F912F910F900FBE0F901F9018957F
:101A50001F920F920FB60F9211242F933F934F9323
:101A60005F936F937F938F939F93AF93BF93EF9306
:101A7000FF938091B900887F803609F49CC068F597
:101A8000883209F45BC090F4803109F454C038F412
:101A9000882309F4F6C0883009F44DC0F6C08831B7
:101AA00009F44CC0803209F45DC0EFC0803409F401
:101AB00068C048F4803309F455C0883309F0E5C0A4
:101AC00080932902D8C0803509F44FC0883509F4C5
:101AD0005DC0883409F0D9C0D6C0883909F4C7C0C0
:101AE000A8F4883709F467C038F4883609F463C06D
:101AF000803709F460C0C9C0883809F4B8C080399B
:101B000009F45FC0803809F0C0C05BC0803B09F4B5
:101B100086C038F4803A09F466C0883A09F47FC078
:101B2000B4C0803C09F4A7C0883C09F4A4C0883B39
:101B300009F48AC0AAC08091060210C090912802C0
:101B400080912702981770F5E091280281E08E0FAE
:101B500080932802F0E0E95FFD4F80818093BB0015
:101B600085EC86C0809329028EC0E091280281E036
:101B70008E0F809328028091BB00F0E0E95FFD4F5B
:101B8000808390912802809127026EC0E091280204
:101B900081E08E0F809328028091BB00F0E0E95F26
:101BA000FD4F808380912A0281116DC081E0809376
:101BB000050284EA61C083E080932B021092F00159
:101BC000CFCF8091F001803208F051C0E091F00158
:101BD00081E08E0F8093F0018091BB00F0E0E05334
:101BE000FE4F8083BDCF85EC8093BC0010922B020A
:101BF0008091F001803230F4E091F001F0E0E053A8
:101C0000FE4F10826091F00170E0E091FA01F091D6
:101C1000FB0180ED91E009951092F00136C084E05F
:101C200080932B021092CF011092CE01E091FC0123
:101C3000F091FD0109958091CE01811105C081E0EF
:101C40008093CE011092AE01E091CF0181E08E0F22
:101C50008093CF01F0E0E255FE4F80818093BB007E
:101C60009091CF018091CE01981708F479CF85E843
:101C70008093BC000AC085EC8093BC0010922B02BC
:101C800004C0109229020E941009FF91EF91BF91A8
:101C9000AF919F918F917F916F915F914F913F9104
:101CA0002F910F900FBE0F901F90189508958EBD25
:101CB00000000DB407FEFDCF8EB508951F93CF939E
:101CC000DF93FC01848D958D009729F1162FEF018C
:101CD00020A131E030932C0220934E0210922D026D
:101CE00010924F02DC01ED91FC910190F081E02D0A
:101CF00060E009958C8D9D8DDC01ED91FC9101904A
:101D0000F081E02D612F09958C8D9D8DDF91CF9114
:101D10001F910C940A10A4A5B5A59C9182A9809549
:101D200089238C93828D938D892B31F0862FDF91BF
:101D3000CF911F910C94570E28E030E080E8A0A5C9
:101D4000B1A590A9462F482319F04C91942B03C0BC
:101D50004C91909594239C93A2A5B3A54C9191A9E5
:101D6000942B9C93A2A5B3A54C9191A990959423F3
:101D70009C9386952150310911F7DF91CF911F91E6
:101D800008958CBD9DBD08951F93CF93DF93EC0103
:101D9000162F8C8D9D8D892BB1F02EA93FA948ADB2
:101DA00059AD60E074E284EF90E00E94E31ADA013A
:101DB000C9014097A109B109B695A795979587954F
:101DC0008093B8000FC08A8D9B8D892B21F08CA940
:101DD0009DA90E94C10EEEA5FFA590818BA98095BB
:101DE00089238083111102C066EA01C067EACE012F
:101DF0000E945E0E8C8D9D8D892BB1F02AAD3BAD7E
:101E00004CAD5DAD60E074E284EF90E00E94E31AB7
:101E1000DA01C9014097A109B109B695A79597952F
:101E200087958093B80006C0EEA5FFA590818BA989
:101E3000892B8083DF91CF911F910895CF92DF92FC
:101E4000EF92FF920F931F93CF93DF936C017A0170
:101E50008B01C0E0D0E0CE15DF0581F0D8016D9197
:101E60008D01D601ED91FC910190F081E02DC6012C
:101E70000995892B11F02196EECF7E01C701DF91E4
:101E8000CF911F910F91FF90EF90DF90CF90089529
:101E900020913B0330913C03C901079697FD0796BB
:101EA00023E0959587952A95E1F7209139033091A4
:101EB0003A03829FA001839F500D929F500D1124E1
:101EC00060E070E080915303909154030C94311CB6
:101ED0003F924F925F926F927F928F929F92AF92BA
:101EE000BF92CF92DF92EF92FF920F931F93CF9307
:101EF000DF9300D000D000D0CDB7DEB72C013B017E
:101F00004A015901C901079697FD07969C0193E084
:101F1000359527959A95E1F73C832B83C12CD12CDD
:101F2000E12CF12C312CC3018E0D9F1D9A838983E6
:101F3000E016F106C4F51E821D822D813E812A1510
:101F40003B054CF5C90187709927892B11F0330C9B
:101F50000EC0ED81FE81F7FD379683E0F595E7959C
:101F60008A95E1F7EC0DFD1DE80DF91D349037FE63
:101F70000CC021E030E049815A816D817E81640D81
:101F8000751D85E393E00E9457088D819E8101961F
:101F90009E838D83D2CF9FEFE91AF90A2B813C8172
:101FA000C20ED31EC0CF26960FB6F894DEBF0FBE6A
:101FB000CDBFDF91CF911F910F91FF90EF90DF90F8
:101FC000CF90BF90AF909F908F907F906F905F90D9
:101FD0004F903F90089590E0FC01EB58F54F24910D
:101FE000FC01EF59F54F8491882399F090E0880F18
:101FF000991FFC01E95AF54FA591B491FC01E35BEF
:10200000F54F859194918FB7F894EC91E22BEC9376
:102010008FBF089530914F02313208F04BC080914C
:102020002B028111FCCF90914E0222E020932B02D3
:1020300021E020932A022FEF2093290210922802F8
:1020400030932702EEE2F2E0A7E0B2E020E03217A0
:1020500021F041914D932F5FFACF1092060220910B
:102060000602990F922B90930602909105029130EF
:1020700061F410920502909106029093BB0090913A
:10208000BC0093FDF8CF95EC01C095EE9093BC0099
:1020900090912B029230E1F3909129029F3F79F0C9
:1020A00080912902803241F080912902803331F001
:1020B00084E005C081E003C082E001C083E01092AB
:1020C0002D0210924F0210922C020895DF92EF928F
:1020D000FF920F931F93CF93DF93D82ED92FC62F44
:1020E0008091510390915203009709F454C02091BC
:1020F000550331E030932C0220934E0210922D02B2
:1021000010924F02DC01ED91FC910190F081E02DE5
:1021100060E00995ED2CFD2E11E0D1E08091510396
:1021200090915203CC2371F11032C8F00E940A1032
:1021300080915503D0932C0280934E0210922D0271
:1021400010924F028091510390915203DC01ED9166
:10215000FC910190F081E02D60E0099511E0809103
:10216000510390915203F7016491DC01ED91FC91D0
:102170000190F081E02D09951F5FC150BFEFEB1A70
:10218000FB0ACCCFDF91CF911F910F91FF90EF9081
:10219000DF900C940A10E0916103F091620390814A
:1021A000809167038095892380830D2D1D2FCC237B
:1021B00009F439C0F801849120914F033091500304
:1021C000232B31F00E94570EC1500F5F1F4FEFCFEE
:1021D00028E030E040E8E0915D03F0915E039091EB
:1021E0006503582F542319F05081952B03C050815B
:1021F000909595239083E0915F03F0916003508167
:1022000090916603952B9083E0915F03F0916003BA
:102210005081909166039095952390834695215027
:102220003109C9F6D1CFDF91CF911F910F91FF9066
:10223000EF90DF9008950F931F93CF93DF9377FF75
:1022400004C0260F371F60E070E0DC011496CD91CA
:10225000DC911597FB01E20FF31FCE17DF071CF48B
:102260009E01261B370B121613060CF046C0FA010E
:1022700057FD3796DF01E3E0B595A795EA95E1F7BD
:10228000AC9FF001AD9FF00DBC9FF00D11246E0FBF
:102290007F1FDC015E96ED91FC915F97E60FF71FC3
:1022A0004770552781E090E001C0880F4A95EAF712
:1022B000482F0130110539F078F002301105E9F4AA
:1022C0002E0F3F1F13C02E0F3F1FE217F307A9F079
:1022D0008081842B8193F9CF80952E0F3F1FE217C9
:1022E000F30759F0908198239193F9CFE217F30700
:1022F00021F0808184278193F9CFDF91CF911F91C5
:102300000F910895EF92FF920F931F93CF93DF9356
:10231000EC0177FDA5C0EC80FD806E157F050CF00B
:102320009FC057FF04C0240F351F40E050E08E814E
:102330009F81FA01E20FF31F8E179F071CF49C0187
:10234000241B350B121613060CF08AC0922F842F13
:102350008695869586958E9DD0018F9DB00D112412
:102360006A0F7B1FAE8DBF8DA60FB71F4770B1F1EF
:1023700088E0841B482F682F70E0FB01EB5BF54F72
:10238000E491281798F4621B71092FEF30E002C026
:10239000359527956A95E2F7E2230130110549F05A
:1023A00078F00230110509F05BC00EC00130110554
:1023B00019F48C91E82B0AC00130110508F049C0CE
:1023C000E0958C91E82302C08C91E827EC93941758
:1023D00008F446C02C813D81A20FB31FE92FE41BF6
:1023E000E830F8F00230110561F48E2F9C91909541
:1023F0009C932C813D81A20FB31F88508830B0F789
:102400000FC081E00115110509F480E081959E2F30
:102410008C932C813D81A20FB31F98509830C0F748
:10242000E770EE23E9F0F0E0E35CF54FE491013072
:10243000110539F048F00230110591F48C91E8272C
:1024400006C08C91E82B03C0E0958C91E823EC93B7
:1024500007C00230110509F4B7CFAE0DBF1DBECFC6
:10246000DF91CF911F910F91FF90EF9008952F92E0
:102470003F924F925F926F927F928F929F92AF9214
:10248000BF92CF92DF92EF92FF920F931F93CF9361
:10249000DF93CDB7DEB76B970FB6F894DEBF0FBEF4
:1024A000CDBF9B8F8A8F5B011A01D22E1F830E83B3
:1024B0003701C982DC0158962D913C91599721151D
:1024C000310509F0E6C018968D919C91199768170F
:1024D00079070CF0CDC11A968D919C911B974817E6
:1024E00059070CF0C5C18C2C912CFB0126E0C29E33
:1024F000E00DF11D1124FB87EA871E161F060CF064
:10250000B7C1A40183E0440F551F8A95E1F75D87A9
:102510004C87CA01820D931D181619060CF0A8C12C
:1025200057968C91811104C05FEA5D1508F4D3942D
:10253000AA8DBB8DED91FC9111970284F385E02D5E
:10254000CD010995B5E0DB9EC0011124F50135965A
:10255000FF87EE87BB82AA8225019C012A193B09CD
:10256000398B288BA101485F5F4F5B8B4A8BE889D1
:10257000F989E40DF51DE35CFA4F54915887610128
:102580003D822C82888580FF13C0AA8DBB8DED9182
:10259000FC91B981B13031F40484F585E02D2E81B0
:1025A0003F8116C00684F785E02DEE80FF801AC0BB
:1025B000EE81FF81E615F705F1F0AA8DBB8DED9157
:1025C000FC91B981B13051F40484F585E02D93017B
:1025D000A601B2018A8D9B8D09950DC00684F785F1
:1025E000E02D7301840194014C815D816A817B81BE
:1025F0008A8D9B8D0995E885E695E887FFEFCF1AD0
:10260000DF0A2C813D81280D391D3D832C834A89A9
:102610005B89C416D50609F0B5CF5FEF451A550A98
:102620008A819B81880D991D9B838A83AE85BF8596
:102630004A165B0609F09BCFEE81FF81E615F70590
:1026400009F4F4C0EA8DFB8DA081B181F981F130EC
:1026500079F4B5016B5F7F4F5096ED91FC915197E6
:10266000830128E030E0A1018A8D9B8D0995DEC0B1
:102670006A857B85681979091E96ED91FC911F97F3
:1026800073010C851D859401A1018A8D9B8D09958F
:10269000CDC0F9013496E491DE1AF90132968591A4
:1026A0009491B7E0DB9E800D911D1124F9012591D5
:1026B00034913B8B2A8BFC01259134912901FC013B
:1026C0003296C490319634913E8732961491319669
:1026D000D4904981423058F0612E012E000C7708C9
:1026E0008D2D0D2C000C990B9987888704C01986B5
:1026F0001886612C712CAA8DBB8DED91FC911197E0
:102700000284F385E02DCD010995B9818B2E912CA2
:10271000689CC001699C900D789C900D1124FC016F
:10272000EA0DFB1DFD87EC871A82712C612CE12FCD
:10273000110FFF0B95012E0F3F1F3B872A87AC0C13
:10274000B11CA5014E0F5F1F5F8B4E8BC1018D0D1C
:10275000911DD7FC9A95998F888F9E85691608F0F0
:1027600065C0862D90E048855985480F591F489DC2
:102770009001499D300D589D300D1124D101A20FBB
:10278000B31FB98BA88BEC85FD85FD83EC83AA84F0
:10279000BB84DA80FA85DF1A288D398D280F391F1E
:1027A0003D8B2C8B8D2D8A0D4E895F89A416B50625
:1027B000C1F1877041F4C2010196EA89FB89E40DF9
:1027C000F51D74902C0177FE21C0AA8DBB8DED9173
:1027D000FC91B981B13061F40484F585E02D2E813E
:1027E0003F814C895D89B5018A8D9B8D09950EC00D
:1027F0000684F785E02DEE80FF80840194014889EE
:1028000059896C817D818A8D9B8D0995770CEFEFBD
:10281000AE1ABE0A2C813D81280D391D3D832C83C3
:10282000C1CF3A813C0D3A83639497CFAA8DBB8D7B
:10283000ED91FC9111970688F789E02DCD016B96FB
:102840000FB6F894DEBF0FBECDBFDF91CF911F91C1
:102850000F91FF90EF90DF90CF90BF90AF909F903F
:102860008F907F906F905F904F903F902F90099442
:102870006B960FB6F894DEBF0FBECDBFDF91CF9140
:102880001F910F91FF90EF90DF90CF90BF90AF908E
:102890009F908F907F906F905F904F903F902F9080
:1028A00008956115710579F0FB0101900020E9F7A9
:1028B0003197AF01461B570BDC01ED91FC91028073
:1028C000F381E02D099480E090E008958F929F922B
:1028D000AF92BF92EF92FF920F931F93CF93DF932C
:1028E000CDB7DEB7A1970FB6F894DEBF0FBECDBF50
:1028F0007C01FA01CB0119A2223008F42AE08E01F2
:102900000F5D1F4F822E912CA12CB12CBF01A50170
:1029100094010E94E31AF901CA01015011096A30B9
:1029200014F4605D01C0695CD8016C93232B242BE7
:10293000252B61F7B801C7010E945114A1960FB66B
:10294000F894DEBF0FBECDBFDF91CF911F910F91E5
:10295000FF90EF90BF90AF909F908F9008958EE280
:1029600091E09093360380933503809153039091C7
:102970005403009711F00C94A31B0895789484B528
:10298000826084BD84B5816084BD85B5826085BD6B
:1029900085B5816085BD80916E00816080936E00F9
:1029A00010928100809181008260809381008091EB
:1029B000810081608093810080918000816080939C
:1029C00080008091B10084608093B1008091B0005C
:1029D00081608093B00080917A00846080937A0057
:1029E00080917A00826080937A0080917A00816081
:1029F00080937A0080917A00806880937A001092A8
:102A0000C1001092310310923203109233031092DE
:102A100034031092EF021092F0021092F102109221
:102A2000F2020E94D20C6B017C014B015C0128EB8D
:102A3000820E2BE0921EA11CB11C0E94D20C6C15C0
:102A40007D058E059F0528F086169706A806B9060F
:102A5000A0F780E592E09093300380932F03E091FC
:102A60006002F091610282E08083E0915C02F0916B
:102A70005D021082E0915E02F0915F0280E180834E
:102A800010926802E0916402F091650286E0808312
:102A9000E0916202F0916302808180618083E09125
:102AA0006202F0916302808188608083E09162021B
:102AB000F0916302808180688083E0916202F091EE
:102AC000630280818F7D80830E94D20C6093EF022D
:102AD0007093F0028093F1029093F20266E571E048
:102AE00080912F03909130030E9451140E94D20CC8
:102AF0006B017C014B015C013AE0830E911CA11C2F
:102B0000B11C0E94D20C6C157D058E059F0528F026
:102B100086169706A806B906A0F781E080930303FE
:102B20008091530390915403892B11F520913B031D
:102B300030913C03C901079697FD0796B3E0959540
:102B40008795BA95E1F72091390330913A03AC01AA
:102B5000429FC001439F900D529F900D11240E94EF
:102B60000B1B9093540380935303892B09F40FC1DB
:102B70000E94480F20913B0330913C038091390320
:102B800090913A03213231050CF46CC3B9016054C1
:102B9000710977FF02C06F5F7F4F7595679582550A
:102BA000910997FD019600E410E022E530E048E746
:102BB00052E0959587950E94680F82E080935603B6
:102BC0008091510390915203892B09F45FC38CE3E8
:102BD000809355031092FF011092FE0110922D0276
:102BE00010924F0210922B0281E080932A021092E1
:102BF000050261E082E10E944B0C61E083E10E94EA
:102C00004B0C8091B9008E7F8093B9008091B90000
:102C10008D7F8093B90088E48093B80085E4809329
:102C2000BC0082E499E09093FD018093FC0183E471
:102C300099E09093FB018093FA0180915C0387FDFA
:102C40001DC00E94EB0F61E080915C030E944B0C61
:102C500061E070E080E090E00E94980C60E080917C
:102C60005C030E944B0C6AE070E080E090E00E9400
:102C7000980C61E080915C030E944B0C80915103A1
:102C800090915203892B09F4B8C320916B033091C2
:102C90006C0340916D0350916E0360E074E284EF29
:102CA00090E00E94E31ADA01C9014097A109B10935
:102CB000B695A795979587958093B80064E084E9C9
:102CC00090E00E94661060913B03615085E393E0C1
:102CD0000E945E0E64E080E990E00E9466108091A0
:102CE0005603813009F4A0C364E185E393E00E94B8
:102CF0005E0E64E08CE890E00E94661080913903DB
:102D000090913A038038910509F0A1C380913B036B
:102D100090913C038032910509F088C364E088E813
:102D200090E00E94661069ED85E393E00E945E0EDC
:102D300080915603813009F4A6C361EF85E393E0E7
:102D40000E945E0E66E08CE790E00E946610809123
:102D5000510390915203892B09F497C320916F037B
:102D600030917003409171035091720360E074E2FE
:102D700084EF90E00E94E31ADA01C9014097A109AB
:102D8000B109B695A795979587958093B80001E00E
:102D900010E0C12C54E2D52E54EFE52EF12C332453
:102DA00033940E94D20C672B682B692B41F40E944C
:102DB000D20C623071058105910508F414C10E949E
:102DC000D20C8090010290900202A0900302B09079
:102DD0000402681579058A059B0540F46093010299
:102DE0007093020280930302909304028090010288
:102DF00090900202A0900302B09004029B01AC01EB
:102E0000281939094A095B0949015A013AEF831621
:102E10009104A104B10408F4E6C060930102709328
:102E20000202809303029093040284EF91E0A0E0F9
:102E3000B0E08093FB029093FC02A093FD02B0935C
:102E4000FE021092FF0210920003109201031092F2
:102E500002038091F3029091F402A091F502B091E7
:102E6000F6028093F7029093F802A093F902B093D0
:102E7000FA020E94D20C6093F3027093F4028093E2
:102E8000F5029093F6020E94D20C6093EF027093C9
:102E9000F0028093F1029093F2020E94D20C4B0157
:102EA0005C0168E671E080912F03909130030E94ED
:102EB00051142AE041E050E060E070E080912F037F
:102EC000909130030E9466146FE671E080912F03A9
:102ED000909130030E9451142AE0B501A401809121
:102EE0002F03909130030E94661461E771E0809196
:102EF0002F03909130030E9451148091F30290911E
:102F0000F402A091F502B091F602B501A401481BAC
:102F1000590B6A0B7B0B2AE080912F0390913003B1
:102F20000E94661461E771E080912F039091300355
:102F30000E9451144091F3025091F4026091F50205
:102F40007091F6028091F7029091F802A091F90237
:102F5000B091FA02481B590B6A0B7B0B2AE0809157
:102F60002F03909130030E94661463E771E0809113
:102F70002F03909130030E9451140E94D20CAB0198
:102F8000BC012AE080912F03909130030E946614C7
:102F9000C0912F03D091300365E771E0CE010E940C
:102FA000511465E671E0CE010E9451140E94D20CCA
:102FB0004B015C012B013C0195E0490E511C611C49
:102FC000711C0E94D20C681579058A059B0508F0D2
:102FD0006FC20E94D20C6093F3027093F40280934C
:102FE000F5029093F6020E94480F10934803009355
:102FF0004703109346030093450310924203109237
:10300000410310924403109243036CE771E085E39F
:1030100093E00E94511465E671E085E393E00E941D
:1030200051148091510390915203892BC1F020914A
:103030006B0330916C0340916D0350916E03C70197
:10304000B6010E94E31ADA01C9014097A109B1094A
:10305000B695A795979587958093B80016C08091EF
:103060004F0390915003892B31F080916903909127
:103070006A030E94C10EE0916303F09164039081A2
:103080008091680380958923808365E088E395E0DB
:103090000E94661060913903615085E393E00E94BD
:1030A0005E0E20913B0330913C03C901079697FDCA
:1030B000079633E0959587953A95E1F72091390386
:1030C00030913A03829F5001839FB00C929FB00CC5
:1030D0001124C0915303D0915403809151039091D6
:1030E0005203AC0EBD1E009709F449C02091550350
:1030F00030922C0220934E0210922D0210924F0219
:10310000DC01ED91FC910190F081E02D60E40995E6
:10311000992493948091510390915203AC16BD066B
:1031200059F1BFE1B915D0F40E940A1080915503FE
:1031300030922C0280934E0210922D0210924F0278
:103140008091510390915203DC01ED91FC9101902B
:10315000F081E02D60E409959924939480915103C6
:10316000909152036991DC01ED91FC910190F08105
:10317000E02D09959394CECF0E940A1041C0E091B2
:103180006103F0916203908180916703892B8083B2
:10319000AC16BD06A9F1899120914F0330915003DF
:1031A000232B19F00E94570EF3CF28E030E040E8BF
:1031B000E0915D03F0915E0390916503582F5423D5
:1031C00019F05081952B03C05081909595239083E1
:1031D000E0915F03F0916003508190916603952B1D
:1031E0009083E0915F03F0916003508190916603BA
:1031F000909595239083469521503109C9F6C8CF03
:103200008091510390915203892BC1F020916F035B
:10321000309170034091710350917203C701B60160
:103220000E94E31ADA01C9014097A109B109B695D4
:10323000A795979587958093B80011C0E091630397
:10324000F0916403908180916803892B8083809141
:103250004F0390915003892B11F00E94560E0E944B
:1032600049069FCDB9016052710977FF02C06F5FB7
:103270007F4F759567958357910997FD019600E2F9
:1032800010E023E730E048E950E093CC80915A0306
:103290000E94EB0F80915B030E94EB0F80915A0319
:1032A000082E000C990BFC01EF59F54FE491F0E06A
:1032B000EE0FFF1FE35BF54F2591349130936203CE
:1032C00020936103FC01EB58F54FE491E093670311
:1032D00080915B03082E000C990BFC01EF59F54F10
:1032E000E491F0E0EE0FFF1FE35BF54FA591B49181
:1032F000B0936403A0936303FC01EB58F54FE49192
:10330000E09368038C91E82BEC9380914F039091AC
:103310005003892B89F1CFB7F89480910002811175
:1033200024C0EBE6FAE08491EFE7FAE09491E82F0D
:10333000F0E0EE0FFF1FE95AF54FA591B491EC9123
:10334000E92321F461E08AE00E944B0C8AE00E94AC
:10335000EB0F8CB580618CBD8CB580648CBD8DE02D
:103360000E94EB0F8BE00E94EB0F809100028F5FB9
:1033700080930002CFBF61CC809158030E94EB0F75
:10338000809159030E94EB0F80915803082E000C86
:10339000990BFC01EF59F54FE491F0E0EE0FFF1FA0
:1033A000E35BF54F2591349130935E0320935D03E9
:1033B000FC01EB58F54FE491E093650380915903CC
:1033C000082E000C990BFC01EF59F54FE491F0E049
:1033D000EE0FFF1FE35BF54FA591B491B09360032F
:1033E000A0935F03FC01EB58F54FE491E093660373
:1033F0008C91E095E823EC9320CC80914F03909141
:103400005003892B31F08091690390916A030E94E7
:10341000C10EE0916303F091640390818091680391
:103420008095892380834ACC60E15FCC803491050C
:1034300009F079CC63E085E890E00E946610809105
:103440005603813011F06FEC19C06FE917C0803658
:10345000910509F068CC80913B0390913C03409723
:1034600009F061CC63E082E890E00E9466108091F0
:103470005603813011F06FEA01C060E185E393E00B
:103480000E945E0E50CC62E259CCE0916303F09151
:103490006403908180916803892B808380914F031E
:1034A00090915003892B09F472CC0E94560E6FCC78
:1034B000461657066806790608F083CD8ACDE0E502
:1034C000F2E01382128248EE53E060E070E0448341
:1034D0005583668377838AE091E09183808385ECCE
:1034E00090E09587848784EC90E09787868780ECCE
:1034F00090E0918B808B81EC90E0938B828B82ECBF
:1035000090E0958B848B86EC90E0978B868B118E68
:10351000128E138E148EEDEEF2E016821782108654
:103520001186128613861486158616861786108ACB
:10353000118A128A138A148A158AA3E7B3E01396B4
:103540001C921E92129714964D935D936D937C93EB
:1035500017978CE191E011969C938E93E5E3F3E04D
:103560001382128220E830E03583248380E290E0E9
:10357000978386833187208793878287158A15866C
:1035800014861786168691E0948B2FEF3FEF338BCE
:10359000228B318B208B968B178A118E108E2EE208
:1035A00031E031832083138E128EB58FA48F178E56
:1035B000168E8FEF83A384A385A386A397A380E5AC
:1035C00084AB15AA0895A1E21A2EAA1BBB1BFD010C
:1035D0000DC0AA1FBB1FEE1FFF1FA217B307E407F2
:1035E000F50720F0A21BB30BE40BF50B661F771F4A
:1035F000881F991F1A9469F760957095809590952A
:103600009B01AC01BD01CF010895EE0FFF1F059096
:10361000F491E02D09940F931F93CF93DF938230A1
:10362000910510F482E090E0E0918103F091820333
:1036300020E030E0A0E0B0E0309719F14081518106
:103640000281138148175907C8F08417950769F458
:10365000109731F012960C93129713961C9327C073
:10366000009381031093820322C02115310519F0C4
:103670004217530718F49A01BD01EF01DF01F80169
:10368000DBCF21153105F9F0281B390B243031052A
:1036900080F48A819B816115710521F0FB01938380
:1036A000828304C09093820380938103FE0132964B
:1036B00044C0FE01E20FF31F819391932250310920
:1036C000398328833AC020917F0330918003232BD4
:1036D00041F4209102013091030130938003209343
:1036E0007F0320910001309101012115310541F442
:1036F0002DB73EB74091040150910501241B350BB5
:10370000E0917F03F0918003E217F307A0F42E1BF2
:103710003F0B2817390778F0AC014E5F5F4F241735
:10372000350748F04E0F5F1F5093800340937F038F
:103730008193919302C0E0E0F0E0CF01DF91CF915F
:103740001F910F910895CF93DF93009709F481C0E3
:10375000FC01329713821282A0918103B0918203FF
:10376000109781F420813181820F931F20917F0374
:10377000309180032817390751F5F0938003E093C7
:103780007F0367C0ED0120E030E0CE17DF0740F493
:103790004A815B819E0141155105F1F0EA01F5CFA7
:1037A000D383C28340815181840F951FC817D907E5
:1037B00059F488819981840F951F029691838083A3
:1037C0008A819B81938382832115310529F4F093AB
:1037D0008203E09381033DC0E901FB83EA834991C1
:1037E0005991C40FD51FEC17FD0761F480819181B9
:1037F000840F951F0296E9019983888382819381C2
:103800009B838A83E0E0F0E012968D919C91139760
:10381000009719F0FD01DC01F7CF8D919C91119774
:103820009D012E5F3F4F820F931F20917F033091A8
:1038300080032817390769F4309729F4109282031E
:103840001092810302C013821282B0938003A0936E
:103850007F03DF91CF91089581E090E0F8940C947C
:10386000381CDC0101C06D9341505040E0F70895D1
:1038700015E0C6E4D5E004C0FE010E94051B2196B8
:0A388000C734D107C9F7F894FFCF51
:10388A0000008303800000000000DA051E0F7105A6
:10389A002706A20580059405000000009C096F090F
:1038AA00890A2E08670953094409000000008E0A94
:1038BA001E0F890A880ACB092E0857082F084B08B9
:1038CA003F085E082E087906C40E640BA80B77071A
:1038DA005A07ED068E06564D4450565F317C315FCD
:1038EA00564D4450560D0A00564D4450455F003A15
:1038FA00323A007C005F564D4450450048656C6C76
:0E390A006F205854726F6E6963616C2100006B
:00000001FF
