:100000000C9445000C946D000C946D000C946D00E4
:100010000C946D000C946D000C946D000C946D00AC
:100020000C946D000C946D000C946D000C946D009C
:100030000C946D000C946D000C946D000C946D008C
:100040000C9404020C946D000C94C6010C94A00155
:100050000C946D000C946D000C946D000C946D006C
:100060000C946D000C946D003708A70871085908AE
:10007000FC07FC073108FC073108FC073108310890
:100080003108FC0731083108C10911241FBECFEF28
:10009000D8E0DEBFCDBF22E0A6E4B1E001C01D92F2
:1000A000AF3EB207E1F711E0A0E0B1E0E4E2F5E134
:1000B00002C005900D92A634B107D9F710E0C5E44F
:1000C000D0E004C02197FE010E94850AC434D10704
:1000D000C9F70E9477030C94900A0C9400000895CD
:1000E00080E090E00895FC01538D448D252F30E091
:1000F000842F90E0821B930B541710F0CF96089535
:1001000001970895FC01918D828D981761F0828D81
:10011000DF01A80FB11D5D968C91928D9F5F9F733B
:10012000928F90E008958FEF9FEF0895FC01918DDD
:10013000828D981731F0828DE80FF11D858D90E04A
:1001400008958FEF9FEF0895FC01918D228D892FE7
:1001500090E0805C9F4F821B91098F7399270895CF
:1001600087E991E00E94A40021E0892B09F420E0B6
:10017000822F0895FC01848DDF01A80FB11DA35AC1
:10018000BF4F2C91848D90E001968F739927848FB7
:10019000A689B7892C93A089B1898C9183708064DA
:1001A0008C93938D848D981306C00288F389E02D7B
:1001B00080818F7D80830895EF92FF920F931F932C
:1001C000CF93DF93EC0181E0888F9B8D8C8D98130A
:1001D00005C0E889F989808185FD26C0F62E0B8D42
:1001E00010E00F5F1F4F0F731127E02E8C8DE81268
:1001F0000CC00FB607FCFACFE889F989808185FF2A
:10020000F5CFCE010E94BA00F1CF8B8DFE01E80F31
:10021000F11DE35AFF4FF0829FB7F8940B8FEA89E4
:10022000FB89808180620AC09FB7F894EE89FF89BC
:100230006083E889F98980818370806480839FBFAF
:1002400081E090E0DF91CF911F910F91FF90EF90AF
:100250000895CF93DF93EC01888D8823C9F0EA8954
:10026000FB89808185FD05C0A889B9898C9186FDAF
:100270000FC00FB607FCF5CF808185FFF2CFA889AC
:10028000B9898C9185FFEDCFCE010E94BA00E7CFEE
:10029000DF91CF91089580E090E0892B29F00E94B2
:1002A000B00081110C94000008953FB7F89480913C
:1002B0004B0190914C01A0914D01B0914E0126B59A
:1002C000A89B05C02F3F19F00196A11DB11D3FBF8E
:1002D000BA2FA92F982F8827820F911DA11DB11D1C
:1002E000BC01CD0142E0660F771F881F991F4A9518
:1002F000D1F7089587FF0DC09CE0980F923048F029
:10030000982F9B7F993F29F0803F08F4807F90E0F1
:10031000089580E090E008959C018F7C80389105DD
:1003200061F0203D310549F081E0203E310539F092
:10033000203C310521F080E0089581E00895089582
:100340001F920F920FB60F9211242F933F934F934A
:100350005F936F937F938F939F93AF93BF93EF932D
:10036000FF9387E991E00E94BA00FF91EF91BF915E
:10037000AF919F918F917F916F915F914F913F913D
:100380002F910F900FBE0F901F9018951F920F92F4
:100390000FB60F9211242F938F939F93EF93FF9398
:1003A000E091A701F091A8018081E091AD01F09169
:1003B000AE0182FD12C090818091B0018F5F8F737A
:1003C0002091B101821751F0E091B001F0E0E956BF
:1003D000FE4F958F8093B00101C08081FF91EF9116
:1003E0009F918F912F910F900FBE0F901F90189596
:1003F0002FB7F894609147017091480180914901AD
:1004000090914A012FBF08951F920F920FB60F923D
:1004100011242F933F938F939F93AF93BF9380911A
:10042000470190914801A0914901B0914A01309152
:10043000460123E0230F2D3720F40196A11DB11DA5
:1004400005C026E8230F0296A11DB11D2093460189
:100450008093470190934801A0934901B0934A01CA
:1004600080914B0190914C01A0914D01B0914E01B2
:100470000196A11DB11D80934B0190934C01A09357
:100480004D01B0934E01BF91AF919F918F913F91DC
:100490002F910F900FBE0F901F9018956D3F710513
:1004A00038F46A3F710550F4683F710589F406C05D
:1004B0009B012E5F31092230310550F4DC018D9112
:1004C0009C91DC01ED91FC910190F081E02D09946B
:1004D0000895CF92DF92EF92FF920F931F93CF93E5
:1004E000DF936C017A018B01C0E0D0E0CE15DF050F
:1004F00081F0D8016D918D01D601ED91FC910190B3
:10050000F081E02DC6010995892B11F02196EECFDF
:100510007E01C701DF91CF911F910F91FF90EF9066
:10052000DF90CF9008950E948B0ADC01ED91FC9141
:100530000190F081E02D09948F929F92AF92BF922B
:10054000CF92DF92EF92FF926B017C010E94F80143
:100550004B015C01C60ED71EE81EF91E0E94F80171
:10056000681579058A059B0528F0C616D706E806A2
:10057000F906A0F7FF90EF90DF90CF90BF90AF907B
:100580009F908F9008956115710579F0FB0101909E
:100590000020E9F73197AF01461B570BDC01ED91C5
:1005A000FC910280F381E02D099480E090E00895B1
:1005B0008F929F92AF92BF92EF92FF920F931F93F1
:1005C000CF93DF93CDB7DEB7A1970FB6F894DEBF18
:1005D0000FBECDBF7C01FA01CB0119A2223008F475
:1005E0002AE08E010F5D1F4F822E912CA12CB12C81
:1005F000BF01A50194010E94630AF901CA010150DB
:1006000011096A3014F4605D01C0695CD8016C9313
:10061000232B242B252B61F7B801C7010E94C302AD
:10062000A1960FB6F894DEBF0FBECDBFDF91CF917C
:100630001F910F91FF90EF90BF90AF909F908F9080
:1006400008950F931F93CF93DF932150203108F02B
:1006500049C0803891050CF445C0813E91059CF558
:10066000142F062FEC0180915802909159026C2FA3
:10067000622BDC01ED91FC910190F081E02D099558
:100680008091580290915902602F6F77DC01ED91B3
:10069000FC910190F081E02D0995CE018F7E803C88
:1006A000910501F18091580290915902612F6F7765
:1006B000DC01ED91FC910190F081E02DDF91CF9173
:1006C0001F910F9109949C01285F31092830310551
:1006D00048F4BC0188E592E0DF91CF911F910F9122
:1006E0000C944E02DF91CF911F910F910895789451
:1006F00084B5826084BD84B5816084BD85B5826027
:1007000085BD85B5816085BD80916E0081608093D7
:100710006E00109281008091810082608093810040
:100720008091810081608093810080918000816050
:10073000809380008091B10084608093B1008091AB
:10074000B00081608093B00080917A0084608093D3
:100750007A0080917A00826080937A0080917A009A
:10076000816080937A0080917A00806880937A001B
:100770001092C10010929301109294011092950171
:100780001092960110925101109252011092530151
:100790001092540168EB7BE080E090E00E949C02A4
:1007A00087E991E09093920180939101E091A701F4
:1007B000F091A801D2E0D083E091A301F091A401CF
:1007C0001082E091A501F091A60180E18083109252
:1007D000AF01E091AB01F091AC01C6E0C083E091C4
:1007E000A901F091AA01808180618083E091A90133
:1007F000F091AA01808188608083E091A901F09145
:10080000AA01808180688083E091A901F091AA010A
:1008100080818F7D80830E94F801609351017093E5
:100820005201809353019093540162E171E08091F1
:100830009101909192010E94C3026AE070E080E011
:1008400090E00E949C0281E080936501E091580253
:10085000F0915902A089B189DC93A485B5851C92D9
:10086000A685B7858FE38C93108EA489B589CC9328
:10087000A289B3898C9180618C93A289B3898C9170
:1008800088608C93A289B3898C9180688C9302884C
:10089000F389E02D80818F7D808310925A0210921F
:1008A0005C0210925B02109263021092620210923C
:1008B0006102109260028FEF9FEF90936502809328
:1008C000640290936702809366021092EE02109287
:1008D0006B0210926A021092690210926C021092DE
:1008E0006D028091680281708260816080936802ED
:1008F00044E6842E912CA12CB12C50E8252E312CCD
:1009000021E04FE76AE280E990E00E9421030E9423
:1009100055012B013C0138EEC32E33E0D32EE12CE0
:10092000F12C0E945501DC01CB0184199509A6091F
:10093000B709883E9340A105B10598F321E0C21A9A
:10094000D108E108F10838EE430E33E0531E611C74
:10095000711CC114D104E104F10419F784EF91E092
:10096000A0E0B0E080935D0190935E01A0935F01F1
:10097000B0936001109261011092620110926301C4
:10098000109264018091550190915601A0915701F8
:10099000B09158018093590190935A01A0935B0143
:1009A000B0935C010E94F801609355017093560169
:1009B000809357019093580165E070E080E090E0EB
:1009C0000E949C026AE070E080E090E00E949C023D
:1009D00095E69093660180916601833609F43EC1E5
:1009E000853609F0C9C08091610190916201A091A2
:1009F0006301B09164010196A11DB11D8093610155
:100A000090936201A0936301B093640140915D01F2
:100A100050915E0160915F0170916001452B462B02
:100A2000472B29F4892B8A2B8B2B09F0A5C00E9418
:100A3000F801009151011091520120915301309120
:100A40005401DC01CB01801B910BA20BB30B84364C
:100A50009105A105B10550F4A5019401281B390B9E
:100A60004A0B5B0BCA01B9010E949C020E94F8016B
:100A700060935101709352018093530190935401FC
:100A80000E94F8016B017C0164E271E080919101A8
:100A9000909192010E94C3022AE041E050E060E0A0
:100AA00070E080919101909192010E94D8026BE2D6
:100AB00071E080919101909192010E94C3022AE01D
:100AC000B701A60180919101909192010E94D802F4
:100AD0006DE271E080919101909192010E94C302B8
:100AE0008091550190915601A0915701B091580104
:100AF000B701A601481B590B6A0B7B0B2AE08091BA
:100B00009101909192010E94D8026DE271E0809172
:100B10009101909192010E94C30240915501509120
:100B2000560160915701709158018091590190913F
:100B30005A01A0915B01B0915C01481B590B6A0BF3
:100B40007B0B2AE080919101909192010E94D80242
:100B5000C0919101D09192016FE271E0CE010E94AB
:100B6000C30263E471E0CE010E94C30264EF71E04E
:100B700080E090E00E949C026AE070E080E090E0FB
:100B80000E949C0280916501882309F463C08091D2
:100B9000910190919201DC01ED91FC910084F1852D
:100BA000E02D0995811102C085E655C08091910123
:100BB00090919201DC01ED91FC910084F185E02D92
:100BC0000995882389F38091910190919201DC012C
:100BD000ED91FC910284F385E02D09958836D1F1E1
:100BE00080F58835A9F1833609F70E94F8016093F2
:100BF000510170935201809353019093540166E325
:100C000071E080919101909192010E94C3022AE0CB
:100C100041E050E060E070E080919101909192019C
:100C20000E94D8026DE371E0809191019091920150
:100C30000E94C30262E370E080E090E00E949C02A8
:100C400009C0813739F0863709F0B0CF86E703C095
:100C50001092650183E680936601BDCE0E94F80183
:100C600060935501709356018093570190935801FA
:100C7000F0905A02B0E1BF1508F4BEC1809158024D
:100C800090915902DC01ED91FC910084F185E02DF9
:100C90000995892B09F4B0C18091580290915902AD
:100CA000DC01ED91FC910284F385E02D0995EC01C6
:100CB0008B7F893F09F4A0C1809162029091630209
:100CC000009709F0B7C0C0935D0210915B02812FBD
:100CD0000E947A010E948C01882361F0C7FD0AC03E
:100CE00010935D02C0935E0241E050E050936302B6
:100CF00040936202C0915D028C2F0E947A01813F75
:100D0000910509F45FC070F5803B910509F461C05D
:100D100068F48039910509F45CC0803A910509F4C2
:100D200058C08038910509F0E6C053C0803D910558
:100D300009F448C028F4803C910509F443C0DBC0A5
:100D4000803E910509F445C0803F910509F0D3C06C
:100D5000309261022092600210925B0220EF209399
:100D60006E023DC0883F9105B9F040F4833F910584
:100D700049F178F1863F910579F0BDC08A3F910530
:100D800008F4B9C08D3F910538F09C012E5F310900
:100D90002230310508F0AFC090936B0280936A0255
:100DA0001092690210926C0210926D0281E08093A1
:100DB000EE0210926302109262021092610210928F
:100DC0006002F5C0A2E0B0E0B0936102A0936002BF
:100DD00006C023E030E0309361022093600220914E
:100DE0006202309163024091600250916102415071
:100DF000510924173507B8F090936B0280936A026B
:100E0000CF70CF5FC093690280915E0280936C02C5
:100E100010926D02109263021092620210926102AF
:100E20001092600228C02F5F3F4F309363022093DF
:100E30006202E2C0C7FF47C09E0133272D3F310544
:100E400054F42A3F31056CF4273F3105C1F0283FA7
:100E50003105C9F506C0A9014E5F5109423051055F
:100E600090F530936B0220936A0210926C021092FC
:100E70006D021092690281E08093EE0298C0209189
:100E80006E02203FC1F59C012F5F3F4FFC01EC5CDF
:100E9000FD4F47EF42AF80EF90E090936B0280935D
:100EA0006A0220936C0230936D021092690281E015
:100EB0008093EE021092630210926202109261021D
:100EC000109260026BC020915D02FC01EC5CFD4F52
:100ED000203FE1F4C2AF00916002109161029801DD
:100EE000215031098217930708F45BC0E0905D023E
:100EF00020EFE2120DC01092630210926202109273
:100F000061021092600210925B0276C0C1A7E3CF2B
:100F10008E2D0E947A01EC0190936B0280936A02FD
:100F20000E948C01882331F08E2D8F708F5F80930B
:100F3000690202C01092690280915E0280936C0285
:100F40000330110519F480915F0201C080E08093A5
:100F50006D0210926302109262021092610210926E
:100F6000600281E08093EE02C03BD105A1F050F415
:100F7000C039D10581F0C03AD10569F0C038D1053A
:100F800069F409C0C03DD10531F0C03ED10519F06A
:100F9000C03CD10519F4E0925B0209C010925B02DB
:100FA00006C00196909363028093620225C08091EF
:100FB0006A0290916B028039910529F480916D024B
:100FC000882309F4E8C080916A0290916B029C0129
:100FD000205831092136310508F0E2C0209169021C
:100FE000F21609F4DDC0FF2009F4DAC0409168026E
:100FF000542F517040FD03C00E944B0181CC842FBF
:101000008E7FD1F380916A0290916B029C012058EF
:10101000310921363105D8F420916902F21619F010
:1010200051E0F11050E04695423029F0433031F064
:10103000413011F705C05523F9F202C05111DCCF40
:1010400040916D0260916C020E942103D5CFFC019A
:10105000E05FF109E031F10578F6EC5CFF4F0C94AC
:10106000850ABC0188E592E00E944E02C5CF04E3E8
:1010700012E0C0916C02D0916D02C138D10510F020
:10108000C0E8D0E0CC5CDD4F0C171D0709F4B4CFED
:101090008091580290915902DC01ED91FC910190F0
:1010A000F081E02DD801DA966C9109950F5F1F4F02
:1010B000EBCFC0916C028091580290915902DC01F3
:1010C000ED91FC910190F081E02D63EF0995CF77D0
:1010D0006C2F70E080915802909159020E94950205
:1010E0008BCFC0916D02B0E8CB9FE00111248091BD
:1010F0006C02C82B8091580290915902DC01ED914D
:10110000FC910190F081E02D62EF099580915802E9
:1011100090915902BE016F777727DC01ED91FC9128
:101120000190F081E02D099580915802909159022B
:10113000BE01660F672F661F770B71956F77772754
:10114000DC01ED91FC910190F081E02D22C0C09175
:101150006C02C770B0E1CB9FC0011124C0916D0239
:10116000CF70C82B8091580290915902DC01ED910B
:10117000FC910190F081E02D61EF0995809158027A
:1011800090915902DC01ED91FC910190F081E02DEC
:101190006C2F099531CF30926B0220926A0213CFE7
:1011A000813F9105C1F4E0914402F09145020CC0E9
:1011B0008B3F910508F0C4C0833F910509F0A1C0A1
:1011C000E0914802F0914902309709F40FCF8091E5
:1011D0006C0209950BCF823F910508F07CC0803BE3
:1011E0009105C1F4E0913A02F0913B0208C08038C9
:1011F000910509F0FBCEE0913402F0913502309771
:1012000009F4F4CE40916D0260916C028091690204
:101210000995ECCE813B910580F48039910529F444
:10122000E0913602F0913702EACF803A9105F9F663
:10123000E0913802F0913902E2CF803D910529F426
:10124000E0913E02F0913F020BC0813D910588F490
:10125000803C910509F0CACEE0913C02F0913D023C
:10126000309709F4C3CE60916C02809169020995B0
:10127000BDCE803E9105B9F4E0914002F09141026B
:10128000309709F4B3CE60916D026F7730E8639FB9
:10129000B001112480916C028F77682B705280917D
:1012A00069020995A3CE803F910509F09FCEE09198
:1012B0004202F0914302309709F498CE60916C029B
:1012C00070916D026138710510F060E870E08EE693
:1012D00092E009958BCE8A3F910509F069CFE091A4
:1012E0004E02F0914F0208C0883F910509F07ECE72
:1012F000E0914C02F0914D02309709F477CE0995B8
:1013000075CE833F9105A0F4E0914602F09147022B
:10131000309709F46BCE80916D028F7740E8849FFF
:10132000C001112420916C022F77822B09955ECE8B
:10133000863F9105C9F6E0914A02F0914B02DCCF5D
:101340008C3F910529F4E0915202F0915302D4CFE1
:101350008C3F910528F4E0915002F0915102CCCFDE
:101360008E3F910529F4E0915402F0915502C4CFCB
:101370008F3F910509F03ACEE0915602F091570265
:10138000BBCFCF93DF93A7E9B1E013961C921E92D7
:10139000129748EE53E060E070E014964D935D9331
:1013A0006D937C93179784E091E011969C938E93B4
:1013B00085EC90E01D969C938E931C9784EC90E0B6
:1013C0001F969C938E931E9780EC90E051969C9371
:1013D0008E93509781EC90E053969C938E93529706
:1013E00082EC90E055969C938E93549786EC90E017
:1013F00057969C938E93569759961C9259975A9646
:101400001C925A975B961C925B975C961C925C9719
:10141000EFE4F1E016821782108611861286138699
:101420001486158616861786108A118A128A138AE0
:10143000148A158AE4E3F2E0B5A3A4A316A217A2C6
:1014400010A615A614A617A616A68FEF9FEF91ABB0
:1014500080AB93AB82AB83E08093680215AA17AA96
:1014600016AA10AE11AE1092EE0280E8AEE6B2E01F
:10147000ED0119928A95E9F7118210821382128286
:1014800015821482178216821186108613861286A0
:101490001586148617861686118A108A138A128A70
:1014A000158A148A178A168A118E108E138E128E40
:1014B000158E148E178E168E11A210A213A212A2D0
:1014C000DF91CF910895A1E21A2EAA1BBB1BFD014B
:1014D0000DC0AA1FBB1FEE1FFF1FA217B307E40713
:1014E000F50720F0A21BB30BE40BF50B661F771F6B
:1014F000881F991F1A9469F760957095809590954B
:101500009B01AC01BD01CF010895EE0FFF1F0590B7
:10151000F491E02D099481E090E0F8940C94900A05
:04152000F894FFCF6D
:1015240000000000DC00690273002901A4008200AD
:101534009600564D4450565F317C315F564D4450B1
:10154400560D0A00564D4450455F003A323A005F4A
:10155400564D44504500564D4450435F005F564D30
:061564004450430D0A0093
:00000001FF
