:100000000C944C050C9474050C9474050C947405B4
:100010000C9474050C9474050C9474050C9474057C
:100020000C9474050C9474050C9474050C9474056C
:100030000C9474050C9474050C9474050C9474055C
:100040000C944F0C0C9474050C945F0F0C94390FA6
:100050000C9474050C9474050C9474050C9474053C
:100060000C94990C0C9474050000000023002600E9
:10007000290000000008000201000003040700003E
:1000800000000000000000000000240027002A00FB
:10009000DB40A4A62EAFDA0281DA1281DA02818F68
:1000A0002000A1C8D300408DAED580A8010204086D
:1000B00010204080010204081020010204081020D2
:1000C00000000000250028002B00040404040404A0
:1000D00004040202020202020303030303030000FA
:1000E000600000000000000000000000000000E0D0
:1000F0000000000000000000000000000001E0001F
:1001000000000000000000000000000001F00000FE
:10011000000000000000000000000003F0000000EC
:100120000000000000000000000007F000000000D8
:1001300000000000000000000007F80000000000C0
:1001400000000000000000000FF800000003C000E5
:100150007E000001E0007F0FF800000003C000FEF9
:10016000000001E000FFEFF800000003C000FE0007
:100170000001E000FFFFF800000003C000F00000F5
:10018000000F007FFE7FC0000003C000F0000000F1
:100190000F003FFE7FF83FF1FBCFFCFEF3BC3DEFCD
:1001A000E01FFE7FFF7FFBFFDFFEFEFFBC3DEFE0B9
:1001B0001FC6FFFF7FFBFFDFFEFEFFBC3DEFE00F32
:1001C000E3C7FE787BC3DE1EF0FFBC3DEF0007FFF8
:1001D00087FC787BC3DE1EF0F83C3DEF0001FFFF9B
:1001E000F0007BC3C01EF0F03C3DEF0001F37FE068
:1001F0003FFBC3CFFEF0F03C3DEF0003E33F807FC9
:10020000FBC3DFFEF0F03C3DEF0007E73C00787BEE
:10021000C3DE1EF0F03C3DEF0007FFBE00787BC35D
:10022000DE1EF0F03C3DEF0007FFFE00787BC3DEF2
:100230001EF0F03C3DEF000FFFFE007FFBFFDFFEF6
:10024000F0F03FFDEFE00FFFFF007FFBFFDFFEF070
:10025000F03FFDEFE00FF9FF003E79F9CF9EF0F09F
:100260001F3DE7E01FF1FF0000000000000000005C
:100270000000001F80FF007FFFFFFFFFFFFFFFFF69
:10028000FFE01C007F007FFFFFFFFEB46D888D182C
:10029000E000001F007FFFFFFFFE95AD7DB577E01A
:1002A00000000F007FFFFFFFFEA5AD9D8D19E00050
:1002B0000006007FFFFFFFFEB5ADEDB57EE000005C
:1002C000000000018000000000000000000003802A
:1002D00000000000000000000007C0000000000057
:1002E0000000000007C00000000000000000000F38
:1002F000C00000000000000000001FE0000000003F
:1003000000000000001FE0000000000000000000EE
:100310003FE00000000000000000003FF00000008F
:100320000000000000007FF0000000000000001F3F
:10033000F87FF0000000000000003FFE7FF00000AA
:1003400000000000003FFF7FF00000000000000000
:100350001FFFFBE0000000000000000FFFF9FFC0DE
:100360000000000000000FFFF9FFF800000000008F
:100370000007FFF1FFFF00000000000003FC73FF17
:10038000FF80000000000001FE3FFFFF8000000032
:10039000000000FF1E0FFF000000000000007FFEB5
:1003A0001FFC000000000000003FFFFFF8000000FD
:1003B000000000000FDFFFE0000000000000001F51
:1003C00019FFC0000000000000003F3CFF000000DB
:1003D00000000000007E7CF800000000000000002B
:1003E0007FFE7C0000000000000000FFFFFC00001A
:1003F000000000000000FFFFFE0000000000000001
:1004000000FFFFFE0000000000000001FFEFFE0003
:1004100000000000000001FFCFFE0000000000000F
:100420000003FF07FE0000000000000003FC07FEC1
:100430000000000000000003F003FE0000000000C8
:100440000000018000FE000000000000000000002D
:100450007E000000000000000000003E00000000E0
:100460000000000000000C000000000000078000F9
:10047000FC000003C0000000078001FC000003C076
:10048000000000078001FC000003C000000007809E
:1004900001E00000001E000000078001E0000000F5
:1004A0001E007FE3F79FF9FDE7787BDFC0FFF7FFD2
:1004B000BFFDFDFF787BDFC0FFF7FFBFFDFDFF78CD
:1004C0007BDFC0F0F787BC3DE1FF787BDE00F0F713
:1004D00087BC3DE1F0787BDE0000F787803DE1E0FE
:1004E000787BDE007FF7879FFDE1E0787BDE00FF11
:1004F000F787BFFDE1E0787BDE00F0F787BC3DE1E8
:10050000E0787BDE00F0F787BC3DE1E0787BDE0041
:10051000F0F787BC3DE1E0787BDE00FFF7FFBFFD31
:10052000E1E07FFBDFC0FFF7FFBFFDE1E07FFBDF26
:10053000C07CF3F39F3DE1E03E7BCFC000000000B4
:1005400000000000000000FFFFFFFFFFFFFFFFFFB4
:10055000FFC0FFFFFFFFFD68DB111A31C0FFFFFF87
:10056000FFFD2B5AFB6AEFC0FFFFFFFFFD4B5B3B1C
:100570001A33C0FFFFFFFFFD6B5BDB6AFDC00000AD
:100580000000003E5B4F5B3E3E6B4F6B3E1C3E7C73
:100590003E1C183C7E3C181C577D571C1C5E7F5E21
:1005A0001C00183C1800FFE7C3E7FF0018241800E0
:1005B000FFE7DBE7FF30483A060E26297929264077
:1005C0007F050507407F05253F5A3CE73C5A7F3EA3
:1005D0001C1C08081C1C3E7F14227F22145F5F0035
:1005E0005F5F06097F017F006689956A60606060D1
:1005F0006094A2FFA29408047E040810207E2010BC
:1006000008082A1C08081C2A08081E101010100CC4
:100610001E0C1E0C30383E3830060E3E0E06000012
:1006200000000000005F00000007000700147F14B6
:100630007F14242A7F2A1223130864623649562025
:10064000500008070300001C2241000041221C004A
:100650002A1C7F1C2A08083E080800807030000809
:1006600008080808000060600020100804023E51DD
:1006700049453E00427F400072494949462141496F
:100680004D331814127F1027454545393C4A4949D6
:100690003141211109073649494936464949291E40
:1006A000000014000000403400000008142241142F
:1006B00014141414004122140802015909063E4181
:1006C0005D594E7C1211127C7F494949363E4141A9
:1006D00041227F4141413E7F494949417F09090902
:1006E000013E414151737F0808087F00417F41006E
:1006F0002040413F017F081422417F404040407F1D
:10070000021C027F7F0408107F3E4141413E7F0969
:100710000909063E4151215E7F09192946264949AA
:10072000493203017F01033F4040403F1F204020EA
:100730001F3F4038403F63140814630304780403E8
:100740006159494D43007F41414102040810200096
:100750004141417F04020102044040404040000307
:1007600007080020545478407F28444438384444D3
:100770004428384444287F385454541800087E09CB
:100780000218A4A49C787F0804047800447D4000EB
:100790002040403D007F1028440000417F40007C05
:1007A000047804787C080404783844444438FC18FD
:1007B00024241818242418FC7C08040408485454E1
:1007C000542404043F44243C4040207C1C2040200E
:1007D0001C3C4030403C44281028444C9090907C75
:1007E0004464544C44000836410000007700000087
:1007F0004136080002010204023C2623263C1EA1C9
:10080000A161123A4040207A385454555921555527
:1008100079412254547842215554784020545579D6
:10082000400C1E5272123955555559395454545969
:1008300039555454580000457C410002457D420022
:1008400001457C407D1211127DF0282528F07C5452
:100850005545002054547C547C0A097F493249494B
:1008600049323A4444443A324A4848303A414121B4
:100870007A3A42402078009DA0A07D3D4242423D10
:100880003D4040403D3C24FF2424487E4943662BA4
:100890002FFC2F2BFF0929F620C0887E0903205446
:1008A0005479410000447D413048484A3238404044
:1008B000227A007A0A0A727D0D19317D2629292FA4
:1008C00028262929292630484D40203808080808BC
:1008D00008080808382F10C8ACBA2F102834FA00BE
:1008E000007B000008142A142222142A1408550040
:1008F000550055AA55AA55AAFF55FF55FF000000FF
:10090000FF00101010FF00141414FF001010FF005F
:10091000FF1010F010F0141414FC001414F700FF72
:100920000000FF00FF1414F404FC141417101F102F
:10093000101F101F1414141F00101010F0000000DE
:10094000001F101010101F10101010F010000000E9
:10095000FF101010101010101010FF10000000FFFA
:10096000140000FF00FF00001F10170000FC04F43B
:1009700014141710171414F404F40000FF00F714F3
:10098000141414141414F700F7141414171410107A
:100990001F101F141414F4141010F010F000001F96
:1009A000101F0000001F14000000FC140000F010D5
:1009B000F01010FF10FF141414FF141010101F007B
:1009C000000000F010FFFFFFFFFFF0F0F0F0F0FF7D
:1009D000FFFF0000000000FFFF0F0F0F0F0F384454
:1009E000443844FC4A4A4A347E02020606027E0229
:1009F0007E0263554941633844443C04407E201ED6
:100A00002006027E020299A5E7A5991C2A492A1C04
:100A10004C7201724C304A4D4D303048784830BCF1
:100A2000625A463D3E494949007E0101017E2A2A1B
:100A30002A2A2A44445F444440514A444040444A9C
:100A400051400000FF0103E080FF000008086B6BCD
:100A5000083612362436060F090F06000018180053
:100A600000001010003040FF0101001F01011E00B6
:100A7000191D1712003C3C3C3C0000000000000126
:100A800003070F1F3F7F0080C0E0F0F8FCFE22004C
:100A9000FF210000081E2F1911241FBECFEFD8E040
:100AA000DEBFCDBF23E0A4E9B1E001C01D92AC3BA5
:100AB000B207E1F711E0A0E0B1E0E8E2F4E402C03F
:100AC00005900D92A439B107D9F715E0CBE4D5E034
:100AD00004C02197FE010E94F51FCA34D107C9F74F
:100AE0000E9445190C9407220C940000FC01918D82
:100AF000228D892F90E0805C9F4F821B91098F731C
:100B00009927089580E090E0892B29F00E94C00E7B
:100B100081110C9400000895833081F028F4813015
:100B200099F08230A1F008958730A9F08830B9F0AB
:100B30008430D1F4809180008F7D03C0809180004B
:100B40008F7780938000089584B58F7702C084B535
:100B50008F7D84BD08958091B0008F7703C0809110
:100B6000B0008F7D8093B00008953FB7F8948091D6
:100B7000F8019091F901A091FA01B091FB0126B51D
:100B8000A89B05C02F3F19F00196A11DB11D3FBFC5
:100B9000BA2FA92F982F8827820F911DA11DB11D53
:100BA000BC01CD0142E0660F771F881F991F4A954F
:100BB000D1F708950895FC016370658B8481958158
:100BC00026813781613039F0633029F09187808741
:100BD00033872287089531872087938782870895F6
:100BE0006F927F928F929F92AF92BF92CF92DF923D
:100BF000EF92FF920F931F93CF93DF93EC014B0182
:100C00005A0169013801E881F9810284F385E02DF8
:100C10000995E881F9810288F389E02D8701960121
:100C2000A501B401CE010995A501460D571D4150FE
:100C30005109E881F9810288F389E02D9601B40118
:100C4000CE010995E881F9810088F189E02D9301B1
:100C5000A501B401CE010995C80CD91CB60161509B
:100C60007109E881F9810088F189E02D9301A501DE
:100C7000CE010995E881F9810688F789E02DCE013A
:100C8000DF91CF911F910F91FF90EF90DF90CF9068
:100C9000BF90AF909F908F907F906F9009948F92AC
:100CA0009F92AF92BF92CF92DF92EF92FF920F93FB
:100CB0001F93CF93DF934C016B015A01E901DC01D3
:100CC000ED91FC916217730781F40417150724F462
:100CD0008B2D5801042F182F0A191B0998012F5F1B
:100CE0003F4F048CF58DE02D12C04017510709F5D8
:100CF0002617370724F48D2D6901C62FD82F9E01A2
:100D00002C193D092F5F3F4F068CF78DE02D870191
:100D1000A501B601C4010995DF91CF911F910F91F3
:100D2000FF90EF90DF90CF90BF90AF909F908F900B
:100D300008950284F385E02D0995D401ED91FC918D
:100D40000488F589E02D9E01A501B601C40109952D
:100D5000D401ED91FC910688F789E02DC401DF9163
:100D6000CF911F910F91FF90EF90DF90CF90BF90A8
:100D7000AF909F908F900994EF92FF920F931F93E3
:100D8000DC011A960D911C911B9718962D913C91A0
:100D90001997ED91FC9100A0F1A1E02D7B0140E0BD
:100DA00050E060E070E009951F910F91FF90EF9087
:100DB00008954F925F926F927F928F929F92AF921F
:100DC000BF92CF92DF92EF92FF920F931F93CF9338
:100DD000DF936C012B015A0139014801DC01ED91CF
:100DE000FC910284F385E02D0995E201640C751CE9
:100DF000D601ED91FC91C615D7055CF40088F18908
:100E0000E02D87019401A501BE01C6010995219637
:100E1000EFCF0688F789E02DC601DF91CF911F91B2
:100E20000F91FF90EF90DF90CF90BF90AF909F9089
:100E30008F907F906F905F904F9009948F929F92C8
:100E4000AF92BF92CF92DF92EF92FF920F931F93D8
:100E5000CF93DF93EC015B014A016901E881F981DD
:100E60000284F385E02D099595012C0D3D1D21503F
:100E70003109E881F9810488F589E02D7801840140
:100E8000A401B501CE010995E881F9810688F789A9
:100E9000E02DCE01DF91CF911F910F91FF90EF9048
:100EA000DF90CF90BF90AF909F908F9009948F92DA
:100EB0009F92AF92BF92CF92DF92EF92FF920F93E9
:100EC0001F93CF93DF93EC015B014A016901780125
:100ED000E881F9810284F385E02D0995C80CD91CBD
:100EE000860101501109E881F9810488F589E02D16
:100EF0009501A401B501CE010995E881F981068823
:100F0000F789E02DCE01DF91CF911F910F91FF90D6
:100F1000EF90DF90CF90BF90AF909F908F9009940B
:100F20000895EF92FF920F931F93DC01ED91FC91D6
:100F300000A0F1A1E02D09951F910F91FF90EF9076
:100F400008950F931F93DC01ED91FC91068CF78DB2
:100F5000E02D09951F910F9108950F931F93DC01C8
:100F6000ED91FC91048CF58DE02D09951F910F9169
:100F70000895DC01ED91FC910084F185E02D099448
:100F80002F923F924F925F926F927F928F929F9299
:100F9000AF92BF92CF92DF92EF92FF920F931F9387
:100FA000CF93DF9300D000D000D0CDB7DEB72C01B7
:100FB0007E836D836A015901C801FC82EB8248017E
:100FC000841A950A97FE03C0919481949108350183
:100FD0002D813E81621A730A77FE03C07194619479
:100FE0007108681479045CF43A2D2B2D5C01832F71
:100FF000922F3D812E81DE82CD82C32ED22EAD81F5
:10100000BE81AA16BB065CF43C2D2D2D6C01832FEE
:10101000922F3D812E81BE82AD82A32EB22E8501FC
:101020002D813E81021B130B1C012C183D0837FE3D
:1010300003C0319421943108780117FF03C03FEFBA
:10104000E31AF30AF594E794C816D9062CF08FEF4B
:101050009FEF9A83898304C0A1E0B0E0BA83A9839B
:101060002D813E81A216B30624F1D201ED91FC91AF
:101070000484F585E02D2B813C816814790424F4E7
:101080004D815E81B60103C0A6016D817E81C201E2
:101090000995E218F308F7FE06C029813A81C20ECD
:1010A000D31EE00EF11E8D819E8101969E838D835D
:1010B000D7CF26960FB6F894DEBF0FBECDBFDF9117
:1010C000CF911F910F91FF90EF90DF90CF90BF9045
:1010D000AF909F908F907F906F905F904F903F90D8
:1010E0002F90089585ED8093BC008091BC0084FD15
:1010F000FCCF1092310208954091D401262F30E0A8
:10110000240F311D21323105DCF4209131022430CD
:10111000C9F4FC0180E090E0861758F43091D401C6
:101120002191DC01AC54BE4FA30FB11D2C9301964D
:10113000F3CF8091D401680F6093D40180E00895CB
:1011400081E0089582E0089508950895E0910102F4
:1011500080910002E81730F4F0E0EC56FE4F8081F9
:1011600090E008958FEF9FEF089590910102809194
:101170000002981750F4E92FF0E0EC56FE4F208162
:1011800030E09F5F9093010202C02FEF3FEFC90153
:1011900008958091000290E020910102821B910944
:1011A0000895CF92DF92EF92FF920F931F93CF9308
:1011B000DF937C01CB018A0120913202222389F046
:1011C000EB016B01C40ED51ECC15DD0569F06991EC
:1011D000D701ED91FC910190F081E02DC7010995B7
:1011E000F3CF642F0E947C08C801DF91CF911F913B
:1011F0000F91FF90EF90DF90CF900895CF93DF9302
:101200001F92CDB7DEB76983209132022223D1F03D
:1012100020915502203240F021E030E0FC01338380
:10122000228380E090E015C080913302E82FF0E047
:10123000EC5CFD4F998190838F5F809333028093A4
:10124000550205C061E0CE0101960E947C0881E054
:1012500090E00F90DF91CF910895FC0177FDB9C028
:1012600080859185681779070CF0B3C057FDB1C030
:1012700082859385481759070CF008958589823037
:1012800079F484819581DC01A61BB70BBD01615007
:10129000710986819781DC01A41BB50BAD010EC0DD
:1012A000833009F084C064277527CA0186279727F1
:1012B0006827792746815781481B590B41505109AE
:1012C0002130310531F048F12230310509F44AC0AE
:1012D0000895CA0157FD07969C01A3E0359527950F
:1012E000AA95E1F7A481B5812A9FC0012B9F900D9B
:1012F0003A9F900D1124680F791F068CF78DE02D11
:10130000E60FF71F4770552781E090E001C0880F76
:101310004A95EAF79081892B48C0CA0157FD079684
:101320009C0193E0359527959A95E1F7A481B581C5
:101330002A9FC0012B9F900D3A9F900D1124680F9A
:10134000791F068CF78DE02DE60FF71F47705527A4
:1013500081E090E001C0880F4A95EAF7809590817E
:10136000892323C0CA0157FD07969C0183E0359568
:1013700027958A95E1F7A481B5812A9FC0012B9F0B
:10138000900D3A9F900D1124680F791F068CF78DF0
:10139000E02DE60FF71F4770552781E090E001C070
:1013A000880F4A95EAF790818927808308958130D4
:1013B00009F086CF642775274627572764277527A6
:1013C00084819581DC01A61BB70BBD0161507109B9
:1013D00077CF089580E090E008950E94E221AF92D7
:1013E000BF92CF92EF92FF920F931F93CF93DF9311
:1013F000EC01262F888D998D009709F040C06A3046
:1014000059F41D861C862C898E859F8538E0239F84
:10141000800D911D112441C06D3009F4AAC08E8940
:101420008823C1F03C898C859D8546E0349F800DE2
:10143000911D112448855985481759075CF41D866C
:101440001C868E859F8548E0349F800D911D112458
:101450009F878E87EA88FB88088919894E855F8572
:101460006C857D85CC88CE010E94FF122C898C85ED
:101470009D8536E0239F800D911D112442C06A3066
:1014800079F41D861C862C89FC013696E4918E85A4
:101490009F852E9F800D911D11249F878E8769C087
:1014A0006D3009F466C0FC0134963491631708F47A
:1014B00060C03196E491E61708F45BC0FC013296F7
:1014C00065917491422F50E0431B510937E0349FDE
:1014D0005001359FB00C1124A60EB71EF5013296AF
:1014E00034913196E491332311F0E1110DC0F501EF
:1014F0003496E4912C898C859D85E29F800D911D09
:1015000011249D878C8735C0F501359644915E89FD
:10151000552311F16C89E32FF0E0E40FF11D47FD35
:10152000FA956E9FD0016F9FB00D11244C855D859B
:101530004A0F5B1FE885F985E417F5076CF41D86F3
:101540001C86FC013696E4918E859F856E9F800DEA
:10155000911D11249F878E87EA88FB880889198945
:101560004E855F856C857D85CC88CE010E94FF12FB
:10157000BECF81E090E0DF91CF911F910F91FF905E
:10158000EF90CF90BF90AF9008950F931F93CF939C
:10159000DF93DC015596EC915597E23071F0E33022
:1015A000E9F0E13079F5FB0114960D90BC91A02D86
:1015B000A41BB50BA21BB30B18C0EC01EC81FD8181
:1015C000E61BF70BBF0161507109EE81FF81DF015E
:1015D000A41BB50BAD01421B530B14C0DA01EC0187
:1015E000EE81FF81E61BF70B3197F7FD0DC0EC0193
:1015F0004E815F81E417F5073CF4AF01BD010E9405
:10160000E31102C00E944A12DF91CF911F910F9106
:1016100008950F931F93DC015596EC915597E23096
:1016200061F0E33009F1E13081F51496ED91FC9120
:101630001597E41BF50B319723C0DC011496ED914F
:10164000FC911597DF01A61BB70BBD01DC011696B7
:10165000ED91FC911797DF01A41BB50BAD01415033
:101660005109621B730B11C0FA01DC0116964D91F2
:101670005C911797DA01A61BB70BBD01621B730BB8
:10168000AB01BF010E944A120CC057FD0AC0DC0129
:101690001696ED91FC9117974E175F0714F40E9470
:1016A000E3111F910F910895FC01848DDF01A80FB4
:1016B000B11DA35ABF4F2C91848D90E001968F737A
:1016C0009927848FA689B7892C93A089B1898C9199
:1016D000837080648C93938D848D981306C00288E8
:1016E000F389E02D80818F7D80830895CF93DF93F0
:1016F000282F30E0F901EE58FF4F8491F901E455AD
:10170000FF4FD491F901E653FF4FC491CC2391F0E0
:1017100081110E948C05EC2FF0E0EE0FFF1FE859BD
:10172000FF4FA591B491EC91ED2381E090E021F47D
:1017300080E002C080E090E0DF91CF910895862F95
:101740000C94760B1F93CF93DF93282F30E0F90191
:10175000EE58FF4F8491F901E455FF4FD491F90100
:10176000E653FF4FC491CC23C1F0162F81110E9484
:101770008C05EC2FF0E0EE0FFF1FE054FF4FA5911A
:10178000B4919FB7F894111104C08C91D095D823CF
:1017900002C0EC91DE2BDC939FBFDF91CF911F91B4
:1017A0000895862F642F0C94A20BCF93DF9390E0C3
:1017B000FC01E455FF4F2491FC01E653FF4F849157
:1017C000882361F190E0880F991FFC01EA57FF4FD1
:1017D000C591D491FC01E054FF4FA591B4916111E2
:1017E00009C09FB7F8948881209582238883EC9163
:1017F0002E230BC0623061F49FB7F8948881322F9A
:10180000309583238883EC912E2B2C939FBF06C0A9
:101810008FB7F894E8812E2B28838FBFDF91CF916B
:101820000895862F642F0C94D50B8F929F92AF92C0
:10183000BF92CF92DF92EF92FF926B017C010E94E8
:10184000B5054B015C01C114D104E104F104F1F0D0
:101850000E94B505DC01CB0188199909AA09BB09C9
:10186000883E9340A105B10570F321E0C21AD1086A
:10187000E108F10888EE880E83E0981EA11CB11CD7
:10188000C114D104E104F10419F7DDCFFF90EF900A
:10189000DF90CF90BF90AF909F908F9008951F9250
:1018A0000F920FB60F9211242F933F938F939F9314
:1018B000AF93BF938091070290910802A091090213
:1018C000B0910A023091F70123E0230F2D3720F465
:1018D0000196A11DB11D05C026E8230F0296A11D8A
:1018E000B11D2093F7018093070290930802A09303
:1018F0000902B0930A028091F8019091F901A09138
:10190000FA01B091FB010196A11DB11D8093F80170
:101910009093F901A093FA01B093FB01BF91AF91AD
:101920009F918F913F912F910F900FBE0F901F901D
:1019300018951F920F920FB60F9211242F933F9379
:101940004F935F936F937F938F939F93AF93BF93C7
:10195000EF93FF938091B900887F803609F49CC093
:1019600068F5883209F45BC090F4803109F454C002
:1019700038F4882309F4F6C0883009F44DC0F6C065
:10198000883109F44CC0803209F45DC0EFC0803466
:1019900009F468C048F4803309F455C0883309F06D
:1019A000E5C080932F02D8C0803509F44FC0883538
:1019B00009F45DC0883409F0D9C0D6C0883909F46B
:1019C000C7C0A8F4883709F467C038F4883609F42A
:1019D00063C0803709F460C0C9C0883809F4B8C052
:1019E000803909F45FC0803809F0C0C05BC0803B1B
:1019F00009F486C038F4803A09F466C0883A09F4DC
:101A00007FC0B4C0803C09F4A7C0883C09F4A4C0DE
:101A1000883B09F48AC0AAC080910C0210C0909142
:101A20002E0280912D02981770F5E0912E0281E030
:101A30008E0F80932E02F0E0E35FFD4F8081809354
:101A4000BB0085EC86C080932F028EC0E0912E02F1
:101A500081E08E0F80932E028091BB00F0E0E35F67
:101A6000FD4F808390912E0280912D026EC0E091F7
:101A70002E0281E08E0F80932E028091BB00F0E059
:101A8000E35FFD4F80838091300281116DC081E062
:101A900080930B0284EA61C083E08093310210924C
:101AA000F601CFCF8091F601803208F051C0E0916D
:101AB000F60181E08E0F8093F6018091BB00F0E08B
:101AC000EA52FE4F8083BDCF85EC8093BC0010921C
:101AD00031028091F601803230F4E091F601F0E0BD
:101AE000EA52FE4F10826091F60170E0E091FC0135
:101AF000F091FD0186ED91E009951092F60136C056
:101B000084E0809331021092D5011092D401E091CB
:101B1000FE01F091FF0109958091D401811105C06A
:101B200081E08093D4011092B401E091D50181E06D
:101B30008E0F8093D501F0E0EC54FE4F80818093AE
:101B4000BB009091D5018091D401981708F479CF0A
:101B500085E88093BC000AC085EC8093BC0010929D
:101B6000310204C010922F020E947208FF91EF917F
:101B7000BF91AF919F918F917F916F915F914F91A5
:101B80003F912F910F900FBE0F901F9018950895C1
:101B90008EBD00000DB407FEFDCF8EB508951F93D6
:101BA000CF93DF93FC01848D958D009729F1162F3B
:101BB000EF0120A131E030933202209354021092C1
:101BC000330210925502DC01ED91FC910190F081FD
:101BD000E02D60E009958C8D9D8DDC01ED91FC91EF
:101BE0000190F081E02D612F09958C8D9D8DDF9105
:101BF000CF911F910C945216A4A5B5A59C9182A9D2
:101C0000809589238C93828D938D892B31F0862F3B
:101C1000DF91CF911F910C94C80D28E030E080E84F
:101C2000A0A5B1A590A9462F482319F04C91942B5B
:101C300003C04C91909594239C93A2A5B3A54C917D
:101C400091A9942B9C93A2A5B3A54C9191A9909591
:101C500094239C9386952150310911F7DF91CF9100
:101C60001F9108958CBD9DBD08951F93CF93DF9361
:101C7000EC01162F8C8D9D8D892BB1F02EA93FA9DB
:101C800048AD59AD60E074E284EF90E00E94D31F4C
:101C9000DA01C9014097A109B109B695A7959795B1
:101CA00087958093B8000FC08A8D9B8D892B21F07A
:101CB0008CA99DA90E94320EEEA5FFA590818BA94B
:101CC000809589238083111102C066EA01C067EA0A
:101CD000CE010E94CF0D8C8D9D8D892BB1F02AAD48
:101CE0003BAD4CAD5DAD60E074E284EF90E00E94EE
:101CF000D31FDA01C9014097A109B109B695A7958B
:101D0000979587958093B80006C0EEA5FFA59081B2
:101D10008BA9892B8083DF91CF911F910895FC01BE
:101D2000538D448D252F30E0842F90E0821B930B40
:101D3000541710F0CF96089501970895FC01918DE6
:101D4000828D981761F0828DDF01A80FB11D5D961D
:101D50008C91928D9F5F9F73928F90E008958FEF8B
:101D60009FEF0895FC01918D828D981731F0828D3F
:101D7000E80FF11D858D90E008958FEF9FEF089596
:101D800086E592E00E94760521E0892B09F420E0A7
:101D9000822F0895EF92FF920F931F93CF93DF93BB
:101DA000EC0181E0888F9B8D8C8D981305C0E889AC
:101DB000F989808185FD26C0F62E0B8D10E00F5F1E
:101DC0001F4F0F731127E02E8C8DE8120CC00FB639
:101DD00007FCFACFE889F989808185FFF5CFCE012C
:101DE0000E94540BF1CF8B8DFE01E80FF11DE35AD9
:101DF000FF4FF0829FB7F8940B8FEA89FB898081AF
:101E000080620AC09FB7F894EE89FF896083E889F1
:101E1000F98980818370806480839FBF81E090E036
:101E2000DF91CF911F910F91FF90EF900895CF9385
:101E3000DF93EC01888D8823C9F0EA89FB898081D2
:101E400085FD05C0A889B9898C9186FD0FC00FB6A4
:101E500007FCF5CF808185FFF2CFA889B9898C91E5
:101E600085FFEDCFCE010E94540BE7CFDF91CF91DC
:101E700008951F920F920FB60F9211242F933F9344
:101E80004F935F936F937F938F939F93AF93BF9382
:101E9000EF93FF9386E592E00E94540BFF91EF9140
:101EA000BF91AF919F918F917F916F915F914F9172
:101EB0003F912F910F900FBE0F901F9018951F927A
:101EC0000F920FB60F9211242F938F939F93EF933E
:101ED000FF93E0916602F09167028081E0916C02CD
:101EE000F0916D0282FD12C0908180916F028F5F30
:101EF0008F7320917002821751F0E0916F02F0E031
:101F0000EA5AFD4F958F80936F0201C08081FF9147
:101F1000EF919F918F912F910F900FBE0F901F9077
:101F2000189596E0899FD0011124A35CBC4F909630
:101F30007C936E935F9791E091969C93919790918B
:101F4000A903E091AA03F091AB03992339F03097EC
:101F500051F0811108C08091590304C0309719F0E5
:101F60005C968C9109940895CF92DF92EF92FF9244
:101F70000F931F9396E0899FF0011124E35CFC4FBF
:101F800011A2278D30A12130310539F158F02230CE
:101F9000310509F447C02330310509F04FC060E036
:101FA00070E044C0662309F449C061E070E00E941B
:101FB000910F2FB7F8948091070290910802A09199
:101FC0000902B0910A022FBF809395039093960364
:101FD000A0939703B093980331C09FB7F894C09033
:101FE0000702D0900802E0900902F0900A029FBF19
:101FF00000919503109196032091970330919803D7
:10200000C01AD10AE20AF30A0091A7031091A803AB
:1020100020E030E00C151D052E053F0518F462E0A8
:1020200070E004C061110AC063E070E01F910F917D
:10203000FF90EF90DF90CF900C94910F1F910F9134
:10204000FF90EF90DF90CF9008950895CF92DF92A8
:10205000EF92FF920F931F93CF93DF936C017A015E
:102060008B01C0E0D0E0CE15DF0581F0D8016D9185
:102070008D01D601ED91FC910190F081E02DC6011A
:102080000995892B11F02196EECF7E01C701DF91D2
:10209000CF911F910F91FF90EF90DF90CF90089517
:1020A0000F931F93CF93DF93EC0188819981009761
:1020B00029F02A813B812617370788F48B016F5F4F
:1020C0007F4F0E941C21009761F0998388831B83B6
:1020D0000A832C813D81232B11F4FC01108281E0C5
:1020E00001C080E0DF91CF911F910F910895CF93B0
:1020F000DF93682F83EF92E00E94EF09EC010E94CA
:102100009B188C0F9D1FDF91CF9108956F927F9246
:102110008F929F92AF92BF92CF92DF92EF92FF92F7
:102120000F931F93CF93DF9381E08093A9038FB721
:10213000F894409107025091080260910902709151
:102140000A028FBF8091990390919A03A0919B03FB
:10215000B0919C03481B590B6A0B7B0B8091A50324
:102160009091A603A0E0B0E084179507A607B707F3
:1021700008F0F0C0C0E08091A303C81730F0712CC4
:10218000812C912C5401839440C0E0919F03F091E5
:10219000A003EC0FF11D62E080810E94D50BCF5FA0
:1021A000EACFC62DD0E0E0919F03F091A003EC0FA1
:1021B000FD1F80810E94760B2496CC0FDD1FC35C2F
:1021C000DC4F892B09F04BC0888199818C299D298E
:1021D0009983888363948091A303681610F3E09138
:1021E000A103F091A203E00FF11F61E080810E9442
:1021F000A20B8091A1039091A203FC01E00FF11FBB
:1022000060E080810E94D50B73948091A4037816BE
:1022100058F5072D10E0E091A103F091A203E00F23
:10222000F11F61E080810E94D50BE091A103F09144
:10223000A203E00FF11F60E080810E94A20BD50194
:10224000C401072C04C0880F991FAA1FBB1F0A9442
:10225000D2F76C017C01E094F094612CBCCF8881B2
:1022600099818E219F21B4CF2DE3E22E23E0F22E1F
:1022700089E793E0F7012FEF3FEF478D50A1452B02
:1022800021F4148E368F258F11A236968E179F0754
:10229000A1F7C0E096E0D92E8091A303C81758F5A6
:1022A000D0E00C2F10E0000F111F0B5B1C4F209192
:1022B000A403D217F0F4F801408151810D2E02C021
:1022C000569547950A94E2F7642F6170C29F90017A
:1022D00011242D0F311DEDE3F3E080E0A58DB68DC7
:1022E0002A173B0709F456C08F5F36968A30B1F73C
:1022F00035C0CF5FD1CF80E0F70191A1911181E08E
:10230000F6E0EF0EF11C99E7E91693E0F906A1F764
:102310009FB7F8944091070250910802609109021A
:1023200070910A029FBF4093990350939A03609360
:102330009B0370939C03882369F080915E0388233C
:1023400049F080915C0390915D03019719F48091AD
:1023500059032AC01092A90380E026C040FF1CC088
:10236000EDE3F3E080E090E0448D411117C0E0918F
:102370009D03F0919E03E20FF31F4081D89EF00170
:10238000D99EF00D1124E35CFC4F448F368F258FCE
:1023900010A2178E0E94B40FDF5F89CF0196369688
:1023A0008A30910509F7F8CFDF91CF911F910F91F6
:1023B000FF90EF90DF90CF90BF90AF909F908F9065
:1023C0007F906F9008950F931F93CF93DF9377FFC4
:1023D00004C0260F371F60E070E0DC011496CD9139
:1023E000DC911597FB01E20FF31FCE17DF071CF4FA
:1023F0009E01261B370B121613060CF046C0FA017D
:1024000057FD3796DF01E3E0B595A795EA95E1F72B
:10241000AC9FF001AD9FF00DBC9FF00D11246E0F2D
:102420007F1FDC015E96ED91FC915F97E60FF71F31
:102430004770552781E090E001C0880F4A95EAF780
:10244000482F0130110539F078F002301105E9F418
:102450002E0F3F1F13C02E0F3F1FE217F307A9F0E7
:102460008081842B8193F9CF80952E0F3F1FE21737
:10247000F30759F0908198239193F9CFE217F3076E
:1024800021F0808184278193F9CFDF91CF911F9133
:102490000F910895EF92FF920F931F93CF93DF93C5
:1024A000EC0177FDA5C0EC80FD806E157F050CF07A
:1024B0009FC057FF04C0240F351F40E050E08E81BD
:1024C0009F81FA01E20FF31F8E179F071CF49C01F6
:1024D000241B350B121613060CF08AC0922F842F82
:1024E0008695869586958E9DD0018F9DB00D112481
:1024F0006A0F7B1FAE8DBF8DA60FB71F4770B1F15E
:1025000088E0841B482F682F70E0FB01EA57F54FE5
:10251000E491281798F4621B71092FEF30E002C094
:10252000359527956A95E2F7E2230130110549F0C8
:1025300078F00230110509F05BC00EC001301105C2
:1025400019F48C91E82B0AC00130110508F049C03C
:10255000E0958C91E82302C08C91E827EC939417C6
:1025600008F446C02C813D81A20FB31FE92FE41B64
:10257000E830F8F00230110561F48E2F9C919095AF
:102580009C932C813D81A20FB31F88508830B0F7F7
:102590000FC081E00115110509F480E081959E2F9F
:1025A0008C932C813D81A20FB31F98509830C0F7B7
:1025B000E770EE23E9F0F0E0E258F54FE4910130E6
:1025C000110539F048F00230110591F48C91E8279B
:1025D00006C08C91E82B03C0E0958C91E823EC9326
:1025E00007C00230110509F4B7CFAE0DBF1DBECF35
:1025F000DF91CF911F910F91FF90EF9008952F924F
:102600003F924F925F926F927F928F929F92AF9282
:10261000BF92CF92DF92EF92FF920F931F93CF93CF
:10262000DF93CDB7DEB76B970FB6F894DEBF0FBE62
:10263000CDBF9B8F8A8F5B011A01D22E1F830E8321
:102640003701C982DC0158962D913C91599721158B
:10265000310509F0E6C018968D919C91199768177D
:1026600079070CF0CDC11A968D919C911B97481754
:1026700059070CF0C5C18C2C912CFB0126E0C29EA1
:10268000E00DF11D1124FB87EA871E161F060CF0D2
:10269000B7C1A40183E0440F551F8A95E1F75D8718
:1026A0004C87CA01820D931D181619060CF0A8C19B
:1026B00057968C91811104C05FEA5D1508F4D3949C
:1026C000AA8DBB8DED91FC9111970284F385E02DCD
:1026D000CD010995B5E0DB9EC0011124F5013596C9
:1026E000FF87EE87BB82AA8225019C012A193B093C
:1026F000398B288BA101485F5F4F5B8B4A8BE88940
:10270000F989E40DF51DE258FA4F5491588761019B
:102710003D822C82888580FF13C0AA8DBB8DED91F0
:10272000FC91B981B13031F40484F585E02D2E811E
:102730003F8116C00684F785E02DEE80FF801AC029
:10274000EE81FF81E615F705F1F0AA8DBB8DED91C5
:10275000FC91B981B13051F40484F585E02D9301E9
:10276000A601B2018A8D9B8D09950DC00684F7855F
:10277000E02D7301840194014C815D816A817B812C
:102780008A8D9B8D0995E885E695E887FFEFCF1A3E
:10279000DF0A2C813D81280D391D3D832C834A8918
:1027A0005B89C416D50609F0B5CF5FEF451A550A07
:1027B0008A819B81880D991D9B838A83AE85BF8505
:1027C0004A165B0609F09BCFEE81FF81E615F705FF
:1027D00009F4F4C0EA8DFB8DA081B181F981F1305B
:1027E00079F4B5016B5F7F4F5096ED91FC91519755
:1027F000830128E030E0A1018A8D9B8D0995DEC020
:102800006A857B85681979091E96ED91FC911F9761
:1028100073010C851D859401A1018A8D9B8D0995FD
:10282000CDC0F9013496E491DE1AF9013296859112
:102830009491B7E0DB9E800D911D1124F901259143
:1028400034913B8B2A8BFC01259134912901FC01A9
:102850003296C490319634913E87329614913196D7
:10286000D4904981423058F0612E012E000C770837
:102870008D2D0D2C000C990B9987888704C0198623
:102880001886612C712CAA8DBB8DED91FC9111974E
:102890000284F385E02DCD010995B9818B2E912C11
:1028A000689CC001699C900D789C900D1124FC01DE
:1028B000EA0DFB1DFD87EC871A82712C612CE12F3C
:1028C000110FFF0B95012E0F3F1F3B872A87AC0C82
:1028D000B11CA5014E0F5F1F5F8B4E8BC1018D0D8B
:1028E000911DD7FC9A95998F888F9E85691608F05F
:1028F00065C0862D90E048855985480F591F489D31
:102900009001499D300D589D300D1124D101A20F29
:10291000B31FB98BA88BEC85FD85FD83EC83AA845E
:10292000BB84DA80FA85DF1A288D398D280F391F8C
:102930003D8B2C8B8D2D8A0D4E895F89A416B50693
:10294000C1F1877041F4C2010196EA89FB89E40D67
:10295000F51D74902C0177FE21C0AA8DBB8DED91E1
:10296000FC91B981B13061F40484F585E02D2E81AC
:102970003F814C895D89B5018A8D9B8D09950EC07B
:102980000684F785E02DEE80FF808401940148895C
:1029900059896C817D818A8D9B8D0995770CEFEF2C
:1029A000AE1ABE0A2C813D81280D391D3D832C8332
:1029B000C1CF3A813C0D3A83639497CFAA8DBB8DEA
:1029C000ED91FC9111970688F789E02DCD016B966A
:1029D0000FB6F894DEBF0FBECDBFDF91CF911F9130
:1029E0000F91FF90EF90DF90CF90BF90AF909F90AE
:1029F0008F907F906F905F904F903F902F900994B1
:102A00006B960FB6F894DEBF0FBECDBFDF91CF91AE
:102A10001F910F91FF90EF90DF90CF90BF90AF90FC
:102A20009F908F907F906F905F904F903F902F90EE
:102A30000895EF92FF920F931F93CF93DF93611549
:102A4000710511F480E01CC041155105C1F07B01F6
:102A5000EC018C819D818A01080F191FB801CE01FC
:102A60000E945010882371F3288139818C819D81C7
:102A7000B701820F931F0E9400221D830C8381E007
:102A8000DF91CF911F910F91FF90EF900895CF9319
:102A9000DF93EC0188819981009711F00E949320C7
:102AA000198218821D821C821B821A82DF91CF91AB
:102AB0000895CF93DF93EC016115710561F0FB017F
:102AC00001900020E9F73197AF01461B570B0E9498
:102AD0001915811103C0CE010E944715CE01DF9167
:102AE000CF910895EF92FF920F931F93CF93DF93AF
:102AF000EC017B018A01BA010E945010811104C0CF
:102B0000CE010E94471507C01D830C83B701888141
:102B100099810E940022CE01DF91CF911F910F91E8
:102B2000FF90EF900895CF93DF93EC01611571054D
:102B300059F0FB0101900020E9F73197AF01461BE6
:102B4000570B0E94721502C00E944715CE01DF91FB
:102B5000CF910895FC01808191810C949320209164
:102B6000F9023091FA02C901079697FD079623E012
:102B7000959587952A95E1F72091F7023091F80213
:102B8000829FA001839F500D929F500D112460E001
:102B900070E080911103909112030C94F0213F9208
:102BA0004F925F926F927F928F929F92AF92BF925D
:102BB000CF92DF92EF92FF920F931F93CF93DF9309
:102BC00000D000D000D0CDB7DEB72C013B014A01C8
:102BD0005901C901079697FD07969C0193E0359529
:102BE00027959A95E1F73C832B83C12CD12CE12CBE
:102BF000F12C312CC3018E0D9F1D9A838983E01621
:102C0000F106C4F51E821D822D813E812A153B05E9
:102C10004CF5C90187709927892B11F0330C0EC030
:102C2000ED81FE81F7FD379683E0F595E7958A956E
:102C3000E1F7EC0DFD1DE80DF91D349037FE0CC0D9
:102C400021E030E049815A816D817E81640D751DDE
:102C500083EF92E00E94B9078D819E8101969E8349
:102C60008D83D2CF9FEFE91AF90A2B813C81C20EE6
:102C7000D31EC0CF26960FB6F894DEBF0FBECDBFD1
:102C8000DF91CF911F910F91FF90EF90DF90CF9048
:102C9000BF90AF909F908F907F906F905F904F907C
:102CA0003F90089530915502313208F04BC0809129
:102CB00031028111FCCF9091540222E02093310225
:102CC00021E0209330022FEF20932F0210922E024A
:102CD00030932D02E4E3F2E0ADE0B2E020E0321701
:102CE00021F041914D932F5FFACF10920C02209169
:102CF0000C02990F922B90930C0290910B02913041
:102D000061F410920B0290910C029093BB00909191
:102D1000BC0093FDF8CF95EC01C095EE9093BC00FC
:102D2000909131029230E1F390912F029F3F79F020
:102D300080912F02803241F080912F02803331F058
:102D400084E005C081E003C082E001C083E010920E
:102D5000330210925502109232020895DF92EF92E0
:102D6000FF920F931F93CF93DF93D82ED92FC62FA7
:102D700080910F0390911003009709F454C02091A3
:102D8000130331E030933202209354021092330245
:102D900010925502DC01ED91FC910190F081E02D43
:102DA00060E00995ED2CFD2E11E0D1E080910F033C
:102DB00090911003CC2371F11032C8F00E9452168A
:102DC00080911303D0933202809354021092330205
:102DD0001092550280910F0390911003DC01ED9148
:102DE000FC910190F081E02D60E0099511E0809167
:102DF0000F0390911003F7016491DC01ED91FC91B8
:102E00000190F081E02D09951F5FC150BFEFEB1AD3
:102E1000FB0ACCCFDF91CF911F910F91FF90EF90E4
:102E2000DF900C945216E0911F03F09120039081E3
:102E3000809125038095892380830D2D1D2FCC2320
:102E400009F439C0F801849120910D0330910E03EB
:102E5000232B31F00E94C80DC1500F5F1F4FEFCFE1
:102E600028E030E040E8E0911B03F0911C039091D2
:102E70002303582F542319F05081952B03C0508100
:102E8000909595239083E0911D03F0911E0350814E
:102E900090912403952B9083E0911D03F0911E03E4
:102EA00050819091240390959523908346952150CD
:102EB0003109C9F6D1CFDF91CF911F910F91FF90CA
:102EC000EF90DF900895EF92FF920F931F93CF93AF
:102ED000DF9380910F0390911003892BD1F0209103
:102EE000290330912A0340912B0350912C0360E079
:102EF00074E284EF90E00E94D31FDA01C901409789
:102F0000A109B109B695A795979587958093B800C3
:102F100016C080910D0390910E03892B31F08091A2
:102F20002703909128030E94320EE0912103F09133
:102F3000220390818091260380958923808365E018
:102F40008EE89AE00E94AE166091F702615083EF1E
:102F500092E00E94CF0D2091F9023091FA02C9014E
:102F6000079697FD079633E0959587953A95E1F793
:102F70002091F7023091F802829F8001839F100D0B
:102F8000929F100D1124C0911103D09112038091D2
:102F90000F03909110030C0F1D1F009709F44CC0F4
:102FA0002091130331E030933202209354021092A7
:102FB000330210925502DC01ED91FC910190F081F9
:102FC000E02D60E40995FF24F394EE24E3948091CE
:102FD0000F03909110030C171D0759F1BFE1BF15A6
:102FE000D0F40E94521680911303E0923202809333
:102FF0005402109233021092550280910F03909167
:103000001003DC01ED91FC910190F081E02D60E472
:103010000995FF24F39480910F0390911003699117
:10302000DC01ED91FC910190F081E02D0995F39484
:10303000CECF0E94521641C0E0911F03F0912003B1
:10304000908180912503892B80830C171D07A9F19E
:10305000899120910D0330910E03232B19F00E94CA
:10306000C80DF3CF28E030E040E8E0911B03F09179
:103070001C0390912303582F542319F05081952B52
:1030800003C05081909595239083E0911D03F091AA
:103090001E03508190912403952B9083E0911D0392
:1030A000F0911E0350819091240390959523908375
:1030B000469521503109C9F6C8CF80910F039091F0
:1030C0001003892BD1F020912D0330912E034091D4
:1030D0002F035091300360E074E284EF90E00E948F
:1030E000D31FDA01C9014097A109B109B695A79587
:1030F000979587958093B80017C0E0912103F091D0
:103100002203908180912603892B808380910D0377
:1031100090910E03892B41F0DF91CF911F910F9178
:10312000FF90EF900C94C70DDF91CF911F910F91FD
:10313000FF90EF90089542E050E061E971E083EF85
:1031400092E00C942610CF93DF93FC0144815581CB
:103150006081718183EF92E00E942610EC010E9451
:103160009B188C0F9D1FDF91CF910895CF93DF9314
:10317000EC01409135035091360360913103709119
:1031800032030E941915811103C0CE010E94471518
:10319000CE01DF91CF910895FC011182108213823C
:1031A000128215821482F3E087339F0769F06091E1
:1031B0003703709138036115710531F040913B037D
:1031C00050913C030C9472150895FC0124813581C3
:1031D000232B49F061E871E0808191810E94F72101
:1031E00021E0892B09F020E0822F08950F931F938F
:1031F000CF93DF938C01EB01FC01808191810097DB
:10320000B1F0688179816115710579F0428153814E
:103210002C813D814217530740F00E9400228C818F
:103220009D81F8019583848313C00E949320888137
:103230009981F801918380838A819B819383828322
:103240008C819D8195838483198218821B821A82C6
:103250001D821C82DF91CF911F910F91089586E40A
:1032600091E09093F4028093F30280911103909186
:103270001203009711F00E94932081E393E00E94D3
:10328000AA1587E393E00C94AA15CF93DF93CDB7EB
:10329000DEB72E970FB6F894DEBF0FBECDBF789481
:1032A00084B5826084BD84B5816084BD85B582604B
:1032B00085BD85B5816085BD80916E0081608093FC
:1032C0006E00109281008091810082608093810065
:1032D0008091810081608093810080918000816075
:1032E000809380008091B10084608093B1008091D0
:1032F000B00081608093B00080917A0084608093F8
:103300007A0080917A00826080937A0080917A00BE
:10331000816080937A0080917A00806880937A003F
:103320001092C100E0916602F091670282E0808312
:10333000E0916202F09163021082E0916402F091E8
:1033400065028FEC808310926E02E0916A02F09128
:103350006B0286E08083E0916802F09169028081CF
:1033600080618083E0916802F091690280818860C9
:103370008083E0916802F091690280818068808397
:10338000E0916802F091690280818F7D808361E025
:1033900082E00E94D50B61E083E00E94D50B61E0E2
:1033A00084E00E94D50B60E084E10E94D50B60E0D0
:1033B00085E10E94D50B8091110390911203892B16
:1033C00011F52091F9023091FA02C901079697FD93
:1033D0000796B3E095958795BA95E1F72091F702A6
:1033E0003091F802AC01429FC001439F900D529F63
:1033F000900D11240E94FB1F9093120380931103E0
:10340000892B09F410C10E94AF158091F9029091A7
:10341000FA02813291050CF4C9C2BC0160547109F1
:1034200077FF02C06F5F7F4F759567958091F702B8
:103430009091F8028255910997FD019600E410E001
:1034400022E530E04EEB52E0959587950E94CF152E
:1034500082E08093140380910F0390911003892BD5
:1034600009F4BCC28CE38093130310920102109202
:10347000000210923302109255021092310281E044
:103480008093300210920B0261E082E10E94A20B55
:1034900061E083E10E94A20B8091B9008E7F80934E
:1034A000B9008091B9008D7F8093B90088E4809342
:1034B000B80085E48093BC0084EA98E09093FF0113
:1034C0008093FE0185EA98E09093FD018093FC01D2
:1034D00080911A0387FD1EC061E00E94D50B61E058
:1034E00080911A030E94A20B61E070E080E090E0FE
:1034F0000E94150C60E080911A030E94A20B6AE002
:1035000070E080E090E00E94150C61E080911A0369
:103510000E94A20B80910F0390911003892B09F454
:103520001CC32091290330912A0340912B03509111
:103530002C0360E074E284EF90E00E94D31FDA0174
:10354000C9014097A109B109B695A79597958795A7
:103550008093B80064E088EA90E00E94AE16609123
:10356000F902615083EF92E00E94CF0D64E084EA9B
:1035700090E00E94AE1680911403813009F404C3D8
:1035800064E183EF92E00E94CF0D64E080EA90E076
:103590000E94AE168091F7029091F8028038910552
:1035A00009F005C38091F9029091FA0280329105E9
:1035B00009F0ECC264E08CE990E00E94AE1669ED7F
:1035C00083EF92E00E94CF0D80911403813009F4C3
:1035D0000AC361EF83EF92E00E94CF0D66E080E9BD
:1035E00090E00E94AE1680910F0390911003892BFA
:1035F00009F4FBC220912D0330912E0340912F033B
:103600005091300360E074E284EF90E00E94D31F99
:10361000DA01C9014097A109B109B695A795979517
:1036200087958093B800AA24A394B12C8E010F5FD4
:103630001F4F94E1E92EF12C412C512C320143947F
:103640000E94AF15B0920603A0920503B092040346
:10365000A0920303809105029091060281309105AA
:1036600009F479C01CF4892B49F09DC18230910581
:1036700009F4DCC0039709F440C195C1109200031E
:103680001092FF021092020310920103C8010E94DF
:10369000CC1868E771E0C8010E9459150E94B6185D
:1036A0000E94A318C8010E94AA151092000310924C
:1036B000FF02F0920203E09201030E948610D82ECE
:1036C0000E9477100E94631764E670E080E090E04B
:1036D0000E94150C1D140CF066C180ED8D0D8A3012
:1036E00000F587E393E00E94E518882391F01A82A1
:1036F00019821C821B821E821D82D9861A86BE01F7
:10370000675F7F4FC8010E949315B80187E393E07C
:103710006CC0D9821A8241E050E0B80187E393E09F
:1037200071C05BE2D5123FC1809105029091060203
:103730000196909306028093050287E393E00E942E
:10374000E518882309F42FC16CE771E087E393E063
:103750000E94931528C1109200031092FF0210924C
:10376000020310920103C8010E94CC1868E771E0BF
:10377000C8010E9459150E94B6180E94A318C801DA
:103780000E94AA15109200031092FF02F092020309
:10379000E09201030E948610D82E0E9477100E94AA
:1037A000631764E670E080E090E00E94150C1D1441
:1037B0000CF0F9C080ED8D0D8A3038F581E393E08F
:1037C0000E94E5188823B9F01A8219821C821B8294
:1037D0001E821D82D9861A86BE01675F7F4FC8018F
:1037E0000E949315B80181E393E00E94F618C80186
:1037F0000E94AA15D8C0D9821A8241E050E0B801CF
:1038000081E393E00E941915CEC08BE2D812CBC0A1
:1038100081E393E00E94E518882309F464C06CE713
:1038200071E081E393E00E9493155DC01092000364
:103830001092FF021092020310920103C8010E942D
:10384000CC1868E771E0C8010E9459150E94B618AB
:103850006EE771E00E9459150E94A318C8010E94EA
:10386000AA15109200031092FF02F0920203E09258
:10387000010349E050E063E871E083EF92E00E94C9
:1038800026100E949B180E94631780913703909125
:103890003803009719F00E942B1F03C060E070E00E
:1038A000CB01FB0120E030E080E090E0AF01082E8A
:1038B00002C0559547950A94E2F740FF0CC0B3014A
:1038C000A201082E04C0440F551F661F771F0A94DB
:1038D000D2F7242B352B01968032910539F730939E
:1038E0000402209303028091050290910602019642
:1038F000909306028093050256C010920003109226
:10390000FF02109202031092010380900302909034
:103910000402CE0109960E94CC1868E771E0CE013E
:1039200009960E9459150E94B6186DE871E00E9430
:1039300059156C014AE0B801C4010E94521FF801F8
:1039400001900020E9F73197AF01401B510BB801FE
:10395000C6010E941915811103C0C6010E944715B6
:10396000C6010E94A318CE0109960E94AA150E94C2
:10397000631760ED77E080E090E00E94150C1092F4
:1039800006021092050261E871E087E393E00E946D
:10399000931561E871E081E393E00E949315109222
:1039A0000402109203020E9482054ACEBC016052BA
:1039B000710977FF02C06F5F7F4F759567958091A2
:1039C000F7029091F8028357910997FD019600E262
:1039D00010E023E730E04EED50E036CD61E080911D
:1039E00018030E94D50B61E0809119030E94D50B4A
:1039F00080911803082E000C990BFC01E653FF4F31
:103A0000E491F0E0EE0FFF1FE054FF4F2591349159
:103A10003093200320931F03FC01E455FF4FE491F2
:103A2000E093250380911903082E000C990BFC01EB
:103A3000E653FF4FE491F0E0EE0FFF1FE054FF4F1D
:103A4000A591B491B0932203A0932103FC01E45506
:103A5000FF4FE491E09326038C91E82BEC93809147
:103A60000D0390910E03892B09F434C01FB7F8940D
:103A700080910202811127C0E4EDF0E08491E6EB31
:103A8000F0E09491E82FF0E0EE0FFF1FEA57FF4FB0
:103A9000A591B491EC91E92321F461E08AE00E94C0
:103AA000A20B61E08AE00E94D50B8CB580618CBDD1
:103AB0008CB580648CBD61E08DE00E94D50B61E027
:103AC0008BE00E94D50B809102028F5F80930202EF
:103AD0001FBFFECC61E0809116030E94D50B61E010
:103AE000809117030E94D50B80911603082E000CBD
:103AF000990BFC01E653FF4FE491F0E0EE0FFF1F3E
:103B0000E054FF4F2591349130931C0320931B0305
:103B1000FC01E455FF4FE491E093230380911703E8
:103B2000082E000C990BFC01E653FF4FE491F0E0E6
:103B3000EE0FFF1FE054FF4FA591B491B0931E0309
:103B4000A0931D03FC01E455FF4FE491E09324038F
:103B50008C91E095E823EC93BBCC80910D03909180
:103B60000E03892B31F080912703909128030E9446
:103B7000320EE0912103F09122039081809126037F
:103B8000809589238083E6CC60E1FBCC803491056D
:103B900009F015CD63E089E990E00E94AE168091AE
:103BA0001403813011F06FEC19C06FE917C0803633
:103BB000910509F004CD8091F9029091FA024097A5
:103BC00009F0FDCC63E086E990E00E94AE1680919A
:103BD0001403813011F06FEA01C060E183EF92E0DD
:103BE0000E94CF0DECCC62E2F5CCE0912103F09184
:103BF0002203908180912603892B808380910D037D
:103C000090910E03892B09F40ECD0E94C70D0BCDA8
:103C1000109259021092580288EE93E0A0E0B0E0B2
:103C200080935A0290935B02A0935C02B0935D0272
:103C300022E231E0309357022093560225EC30E027
:103C4000309363022093620224EC30E030936502EB
:103C50002093640220EC30E03093670220936602E8
:103C600021EC30E0309369022093680222EC30E0CE
:103C700030936B0220936A0226EC30E030936D02A1
:103C800020936C0210926F021092700210927102D7
:103C9000109272021092AF031092AE038093B003A1
:103CA0009093B103A093B203B093B30384E391E084
:103CB0009093AD038093AC0310923F0310924303A3
:103CC000109242031092440382E791E090933E03E6
:103CD00080933D03EDE3F3E089E793E0148E10A2B7
:103CE000178E11A236968E179F07C1F784E091E0D8
:103CF0009093A00380939F0380E091E09093A203B0
:103D00008093A10384E08093A3038093A40388E0BD
:103D100091E090939E0380939D038AE090E09093BE
:103D2000A6038093A50384EF91E09093A80380936A
:103D3000A7031092AB031092AA031092990310925A
:103D40009A0310929B0310929C031092A903109265
:103D500038031092370310923A03109239031092ED
:103D60003C0310923B0341E050E061E871E087E3DF
:103D700093E00E9472151092320310923103109258
:103D8000340310923303109236031092350341E04E
:103D900050E061E871E081E393E00E9472151092B7
:103DA000F6021092F50220E830E03093F8022093FA
:103DB000F70280E290E09093FA028093F902309348
:103DC000FC022093FB029093FE028093FD0210926E
:103DD0000803109200031092FF0210920203109247
:103DE000010391E0909307032FEF3FEF3093060319
:103DF0002093050330930403209303039093090356
:103E000010920A0310920C0310920B0326E431E087
:103E10003093F4022093F30210920E0310920D03DC
:103E20002CEA33E03093100320930F031092120317
:103E3000109211038FEF80931603809317038093E2
:103E400018038093190390931A0380E58093270346
:103E50001092280308951F93FC0199278827BC011D
:103E6000E89411911032E9F3193010F01E30C8F3C4
:103E70001B3251F01D3249F4689406C00E945D1F48
:103E8000610F711D811D911D119110531A30B0F3F6
:103E90003EF490958095709561957F4F8F4F9F4F21
:103EA0001F910895BB274A3031F4992322F4BDE2D3
:103EB000909581959F4F0C94731F592F482F372F42
:103EC000262F660F771F881F991F660F771F881F81
:103ED000991F620F731F841F951F660F771F881F1E
:103EE000991F0895BB27FB015527AA27880F991F03
:103EF000AA1FA41710F0A41B83955051B9F7A05D19
:103F0000AA3308F0A95DA193009779F7B111B19395
:103F10001192CB010C948C1FDC01FC01672F719175
:103F20007723E1F7329704C07C916D93708362919F
:103F3000AE17BF07C8F308952F923F924F925F923A
:103F40006F927F928F929F92AF92BF92CF92DF92A9
:103F5000EF92FF920F931F93CF93DF93CDB7DEB70E
:103F6000CA1BDB0B0FB6F894DEBF0FBECDBF0994A2
:103F70002A88398848885F846E847D848C849B84F9
:103F8000AA84B984C884DF80EE80FD800C811B8107
:103F9000AA81B981CE0FD11D0FB6F894DEBF0FBE36
:103FA000CDBFED010895A1E21A2EAA1BBB1BFD0196
:103FB0000DC0AA1FBB1FEE1FFF1FA217B307E40708
:103FC000F50720F0A21BB30BE40BF50B661F771F60
:103FD000881F991F1A9469F7609570958095909540
:103FE0009B01AC01BD01CF010895EE0FFF1F0590AD
:103FF000F491E02D09940F931F93CF93DF938230B8
:10400000910510F482E090E0E091BA03F091BB03D7
:1040100020E030E0A0E0B0E0309719F1408151811C
:104020000281138148175907C8F08417950769F46E
:10403000109731F012960C93129713961C9327C089
:104040000093BA031093BB0322C02115310519F068
:104050004217530718F49A01BD01EF01DF01F8017F
:10406000DBCF21153105F9F0281B390B2430310540
:1040700080F48A819B816115710521F0FB01938396
:10408000828304C09093BB038093BA03FE013296EF
:1040900044C0FE01E20FF31F819391932250310936
:1040A000398328833AC02091B8033091B903232B78
:1040B00041F420911A0130911B013093B9032093F0
:1040C000B80320911801309119012115310541F4EF
:1040D0002DB73EB740911C0150911D01241B350B9B
:1040E000E091B803F091B903E217F307A0F42E1B97
:1040F0003F0B2817390778F0AC014E5F5F4F24174C
:10410000350748F04E0F5F1F5093B9034093B80333
:104110008193919302C0E0E0F0E0CF01DF91CF9175
:104120001F910F910895CF93DF93009709F481C0F9
:10413000FC01329713821282A091BA03B091BB03A3
:10414000109781F420813181820F931F2091B80351
:104150003091B9032817390751F5F093B903E0936B
:10416000B80367C0ED0120E030E0CE17DF0740F470
:104170004A815B819E0141155105F1F0EA01F5CFBD
:10418000D383C28340815181840F951FC817D907FB
:1041900059F488819981840F951F029691838083B9
:1041A0008A819B81938382832115310529F4F093C1
:1041B000BB03E093BA033DC0E901FB83EA83499165
:1041C0005991C40FD51FEC17FD0761F480819181CF
:1041D000840F951F0296E9019983888382819381D8
:1041E0009B838A83E0E0F0E012968D919C91139777
:1041F000009719F0FD01DC01F7CF8D919C9111978B
:104200009D012E5F3F4F820F931F2091B803309185
:10421000B9032817390769F4309729F41092BB03C2
:104220001092BA0302C013821282B093B903A09312
:10423000B803DF91CF910895A0E0B0E0E2E2F1E2AF
:104240000C94A01FEC01009721F4CB010E94FB1FEE
:10425000B4C0FC01E60FF71F9C0122503109E217A0
:10426000F30708F4A8C0D9010D911C911197061706
:104270001707B0F00530110508F49BC0C80104977A
:104280008617970708F495C002501109061B170BF3
:10429000019311936D937C93CF010E94932089C069
:1042A0005B01A01AB10A4C01800E911EA091BA03C5
:1042B000B091BB03612C712CE12CF12C109709F407
:1042C00046C08D919C911197A815B905B1F56C0167
:1042D00042E0C40ED11CCA14DB0478F14C018A18E8
:1042E0009B08640142E0C40ED11C1296BC90129748
:1042F0001396AC91B5E0CB16D10440F0B282A38303
:1043000091828082D9016D937C9309C00E5F1F4F0B
:10431000800F911FF90191838083EB2DFA2FE11417
:10432000F10431F0D7011396FC93EE93129741C03C
:10433000F093BB03E093BA033CC06816790608F417
:104340003C017D0112960D90BC91A02DB7CF8091BC
:10435000B8039091B90388169906E1F466167706BA
:10436000C8F48091180190911901009741F48DB71C
:104370009EB740911C0150911D01841B950BE817BD
:10438000F907C8F4F093B903E093B803F901718316
:1043900060830FC0CB010E94FB1F7C01009759F086
:1043A000A801BE010E94E721CE010E949320C7010F
:1043B00004C0CE0102C080E090E0CDB7DEB7EEE0F1
:1043C0000C94BC1F81E090E0F8940C940722FB0150
:1043D000DC0102C001900D9241505040D8F7089581
:1043E000DC0101C06D9341505040E0F70895FB019E
:1043F000DC018D91019080190110D9F3990B08957A
:10440000FB01DC0101900D920020E1F7089515E019
:10441000CBE4D5E004C0FE010E94F51F2196CC3408
:08442000D107C9F7F894FFCFA2
:10442800080706050C0B0A09313233413435364288
:10443800373839432B303D440000BC03800000006E
:104448000000CA0E26108F0E170F76059E0EB20EAC
:1044580000000000FE08D108EA099007C908B5085D
:10446800A60800000000EF092610EA0925102D090A
:104478009007B9079107AD07A107C0079007DB05AB
:10448800350EC50A090BD906BC064F06F005000013
:104498000000110CD10B9F0B202B20003000203D79
:1044A800203F00416464696E672E2E2E00203D2057
:0444B800000D0A00E9
:00000001FF
