:100000000C944C050C9474050C9474050C947405B4
:100010000C9474050C9474050C9474050C9474057C
:100020000C9474050C9474050C9474050C9474056C
:100030000C9474050C9474050C9474050C9474055C
:100040000C94380D0C9474050C94850B0C94861745
:100050000C9474050C9474050C9474050C9474053C
:100060000C94820D0C9474050000000023002600FF
:10007000290000000008000201000003040700003E
:1000800000000000000000000000003E5B4F5B3EEF
:100090003E6B4F6B3E1C3E7C3E1C183C7E3C181C4D
:1000A000577D571C1C5E7F5E1C00183C1800FFE744
:1000B000C3E7FF0018241800FFE7DBE7FF30483AEA
:1000C000060E2629792926407F050507407F05254C
:1000D0003F5A3CE73C5A7F3E1C1C08081C1C3E7FD4
:1000E00014227F22145F5F005F5F06097F017F009B
:1000F0006689956A606060606094A2FFA2940804BB
:100100007E040810207E201008082A1C08081C2ADB
:1001100008081E101010100C1E0C1E0C30383E3833
:1001200030060E3E0E06000000000000005F0000DA
:100130000007000700147F147F14242A7F2A12234B
:100140001308646236495620500008070300001C5B
:100150002241000041221C002A1C7F1C2A08083E64
:100160000808008070300008080808080000606077
:100170000020100804023E5149453E00427F4000E5
:1001800072494949462141494D331814127F1027BD
:10019000454545393C4A494931412111090736490C
:1001A000494936464949291E0000140000004034E0
:1001B00000000008142241141414141400412214E5
:1001C0000802015909063E415D594E7C1211127C0C
:1001D0007F494949363E414141227F4141413E7F6D
:1001E000494949417F090909013E414151737F084D
:1001F00008087F00417F41002040413F017F0814F3
:1002000022417F404040407F021C027F7F04081053
:100210007F3E4141413E7F090909063E4151215E31
:100220007F09192946264949493203017F01033FC5
:100230004040403F1F2040201F3F4038403F631454
:1002400008146303047804036159494D43007F4156
:1002500041410204081020004141417F0402010293
:1002600004404040404000030708002054547840B8
:100270007F284444383844444428384444287F384C
:100280005454541800087E090218A4A49C787F08CE
:1002900004047800447D40002040403D007F102849
:1002A000440000417F40007C047804787C0804040A
:1002B000783844444438FC1824241818242418FCA2
:1002C0007C08040408485454542404043F44243C47
:1002D0004040207C1C2040201C3C4030403C4428B6
:1002E0001028444C9090907C4464544C4400083650
:1002F00041000000770000004136080002010204BE
:10030000023C2623263C1EA1A161123A4040207ADD
:100310003854545559215555794122545478422125
:100320005554784020545579400C1E52721239555C
:100330005555593954545459395554545800004559
:100340007C410002457D420001457C407D12111236
:100350007DF0282528F07C545545002054547C54C9
:100360007C0A097F4932494949323A4444443A3285
:100370004A4848303A4141217A3A42402078009D2B
:10038000A0A07D3D4242423D3D4040403D3C24FFD7
:100390002424487E4943662B2FFC2F2BFF0929F686
:1003A00020C0887E090320545479410000447D41D7
:1003B0003048484A32384040227A007A0A0A727D30
:1003C0000D19317D2629292F28262929292630484B
:1003D0004D4020380808080808080808382F10C8B9
:1003E000ACBA2F102834FA00007B000008142A143D
:1003F0002222142A14085500550055AA55AA55AAB8
:10040000FF55FF55FF000000FF00101010FF001403
:100410001414FF001010FF00FF1010F010F014145F
:1004200014FC001414F700FF0000FF00FF1414F484
:1004300004FC141417101F10101F101F1414141F85
:1004400000101010F0000000001F101010101F10FE
:10045000101010F010000000FF10101010101010FD
:100460001010FF10000000FF140000FF00FF00004C
:100470001F10170000FC04F414141710171414F4C0
:1004800004F40000FF00F714141414141414F700FB
:10049000F7141414171410101F101F141414F4144C
:1004A0001010F010F000001F101F0000001F1400BB
:1004B0000000FC140000F010F01010FF10FF1414E6
:1004C00014FF141010101F00000000F010FFFFFFB9
:1004D000FFFFF0F0F0F0F0FFFFFF0000000000FF72
:1004E000FF0F0F0F0F0F3844443844FC4A4A4A3478
:1004F0007E02020606027E027E026355494163388F
:1005000044443C04407E201E2006027E020299A53F
:10051000E7A5991C2A492A1C4C7201724C304A4D9D
:100520004D303048784830BC625A463D3E494949D2
:10053000007E0101017E2A2A2A2A2A44445F44447B
:1005400040514A444040444A51400000FF0103E00A
:1005500080FF000008086B6B083612362436060F41
:10056000090F06000018180000001010003040FFAE
:100570000101001F01011E00191D1712003C3C3C27
:100580003C0000000000000103070F1F3F7F0080B8
:10059000C0E0F0F8FCFE2200FF2100000000002473
:1005A0000027002A00DB40A4A62EAFDA0281DA126F
:1005B00081DA02818F2000A1C8D300408DAED580A2
:1005C000A801020408102040800102040810200144
:1005D000020408102000000000250028002B000461
:1005E00004040404040404020202020202030303DA
:1005F0000303030000600000000000000000000092
:1006000000000000E000000000000000000000000A
:10061000000001E0000000000000000000000000F9
:100620000001F000000000000000000000000000D9
:1006300003F00000000000000000000000000007C0
:10064000F00000000000000000000000000007F8BB
:10065000000000000000000000000000000FF80093
:10066000000003C0007E000001E0007F0FF80000E2
:100670000003C000FE000001E000FFEFF8000000F2
:1006800003C000FE000001E000FFFFF800000003CF
:10069000C000F00000000F007FFE7FC0000003C01C
:1006A00000F00000000F003FFE7FF83FF1FBCFFCA1
:1006B000FEF3BC3DEFE01FFE7FFF7FFBFFDFFEFE92
:1006C000FFBC3DEFE01FC6FFFF7FFBFFDFFEFEFF2D
:1006D000BC3DEFE00FE3C7FE787BC3DE1EF0FFBC3E
:1006E0003DEF0007FF87FC787BC3DE1EF0F83C3D42
:1006F000EF0001FFFFF0007BC3C01EF0F03C3DEFB8
:100700000001F37FE03FFBC3CFFEF0F03C3DEF0084
:1007100003E33F807FFBC3DFFEF0F03C3DEF0007CB
:10072000E73C00787BC3DE1EF0F03C3DEF0007FFA6
:10073000BE00787BC3DE1EF0F03C3DEF0007FFFEFD
:1007400000787BC3DE1EF0F03C3DEF000FFFFE00A3
:100750007FFBFFDFFEF0F03FFDEFE00FFFFF007FCC
:10076000FBFFDFFEF0F03FFDEFE00FF9FF003E7909
:10077000F9CF9EF0F01F3DE7E01FF1FF0000000001
:1007800000000000000000001F80FF007FFFFFFF4F
:10079000FFFFFFFFFFFFE01C007F007FFFFFFFFE6A
:1007A000B46D888D18E000001F007FFFFFFFFE95ED
:1007B000AD7DB577E000000F007FFFFFFFFEA5AD28
:1007C0009D8D19E0000006007FFFFFFFFEB5ADED37
:1007D000B57EE00000000000018000000000000085
:1007E000000000038000000000000000000007C0BF
:1007F00000000000000000000007C0000000000032
:10080000000000000FC00000000000000000001FFA
:10081000E00000000000000000001FE000000000F9
:1008200000000000003FE0000000000000000000A9
:100830003FF00000000000000000007FF00000001A
:10084000000000001FF87FF0000000000000003FE3
:10085000FE7FF0000000000000003FFF7FF000007E
:1008600000000000001FFFFBE0000000000000008F
:100870000FFFF9FFC00000000000000FFFF9FFF8B4
:1008800000000000000007FFF1FFFF000000000073
:100890000003FC73FFFF80000000000001FE3FFF2B
:1008A000FF80000000000000FF1E0FFF000000009E
:1008B0000000007FFE1FFC000000000000003FFF62
:1008C000FFF8000000000000000FDFFFE000000064
:1008D000000000001F19FFC0000000000000003FE2
:1008E0003CFF00000000000000007E7CF8000000DB
:1008F00000000000007FFE7C0000000000000000FF
:10090000FFFFFC0000000000000000FFFFFE0000F1
:10091000000000000000FFFFFE00000000000000DB
:1009200001FFEFFE0000000000000001FFCFFE000D
:1009300000000000000003FF07FE000000000000B0
:100940000003FC07FE0000000000000003F003FEAF
:1009500000000000000000018000FE000000000018
:1009600000000000007E0000000000000000000009
:100970003E000000000000000000000C000000002D
:100980000000078000FC000003C000000007800199
:10099000FC000003C0000000078001FC000003C051
:1009A000000000078001E00000001E00000007803A
:1009B00001E00000001E007FE3F79FF9FDE7787B70
:1009C000DFC0FFF7FFBFFDFDFF787BDFC0FFF7FF54
:1009D000BFFDFDFF787BDFC0F0F787BC3DE1FF780E
:1009E0007BDE00F0F787BC3DE1F0787BDE0000F7AE
:1009F00087803DE1E0787BDE007FF7879FFDE1E0C7
:100A0000787BDE00FFF787BFFDE1E0787BDE00F05A
:100A1000F787BC3DE1E0787BDE00F0F787BC3DE185
:100A2000E0787BDE00F0F787BC3DE1E0787BDE001C
:100A3000FFF7FFBFFDE1E07FFBDFC0FFF7FFBFFD7A
:100A4000E1E07FFBDFC07CF3F39F3DE1E03E7BCF45
:100A5000C00000000000000000000000FFFFFFFFDA
:100A6000FFFFFFFFFFFFC0FFFFFFFFFD68DB111A65
:100A700031C0FFFFFFFFFD2B5AFB6AEFC0FFFFFFF6
:100A8000FFFD4B5B3B1A33C0FFFFFFFFFD6B5BDBE2
:100A90006AFDC000671FD31911241FBECFEFD8E035
:100AA000DEBFCDBF23E0ACE9B1E001C01D92A43CA4
:100AB000B207E1F711E0A0E0B1E0E6EEF6E402C033
:100AC00005900D92AC39B107D9F715E0CBE4D5E02C
:100AD00004C02197FE010E945421CA34D107C9F7EE
:100AE0000E94E9190C9466230C940000FC01538DBC
:100AF000448D252F30E0842F90E0821B930B5417F8
:100B000010F0CF96089501970895FC01918D828D84
:100B1000981761F0828DDF01A80FB11D5D968C9151
:100B2000928D9F5F9F73928F90E008958FEF9FEF5C
:100B30000895FC01918D828D981731F0828DE80F18
:100B4000F11D858D90E008958FEF9FEF0895FC01D2
:100B5000918D228D892F90E0805C9F4F821B91099F
:100B60008F739927089580E090E0892B29F00E94E7
:100B70004A1781110C9400000895833081F028F405
:100B8000813099F08230A1F008958730A9F0883043
:100B9000B9F08430D1F4809180008F7D03C08091C2
:100BA00080008F7780938000089584B58F7702C08E
:100BB00084B58F7D84BD08958091B0008F7703C088
:100BC0008091B0008F7D8093B00008953FB7F89476
:100BD0008091000290910102A0910202B091030263
:100BE00026B5A89B05C02F3F19F00196A11DB11D88
:100BF0003FBFBA2FA92F982F8827820F911DA11DC3
:100C0000B11DBC01CD0142E0660F771F881F991FFF
:100C10004A95D1F708950895FC016370658B84812E
:100C2000958126813781613039F0633029F09187D1
:100C3000808733872287089531872087938782872B
:100C400008956F927F928F929F92AF92BF92CF92B0
:100C5000DF92EF92FF920F931F93CF93DF93EC01FC
:100C60004B015A0169013801E881F9810284F38559
:100C7000E02D0995E881F9810288F389E02D87014B
:100C80009601A501B401CE010995A501460D571D98
:100C900041505109E881F9810288F389E02D9601DC
:100CA000B401CE010995E881F9810088F189E02D30
:100CB0009301A501B401CE010995C80CD91CB60158
:100CC00061507109E881F9810088F189E02D930173
:100CD000A501CE010995E881F9810688F789E02D03
:100CE000CE01DF91CF911F910F91FF90EF90DF9098
:100CF000CF90BF90AF909F908F907F906F9009940E
:100D00008F929F92AF92BF92CF92DF92EF92FF921B
:100D10000F931F93CF93DF934C016B015A01E901AD
:100D2000DC01ED91FC916217730781F4041715073C
:100D300024F48B2D5801042F182F0A191B09980130
:100D40002F5F3F4F048CF58DE02D12C040175107E7
:100D500009F52617370724F48D2D6901C62FD82FE2
:100D60009E012C193D092F5F3F4F068CF78DE02D1A
:100D70008701A501B601C4010995DF91CF911F91AB
:100D80000F91FF90EF90DF90CF90BF90AF909F902A
:100D90008F9008950284F385E02D0995D401ED919B
:100DA000FC910488F589E02D9E01A501B601C401DE
:100DB0000995D401ED91FC910688F789E02DC401D5
:100DC000DF91CF911F910F91FF90EF90DF90CF9027
:100DD000BF90AF909F908F900994EF92FF920F93E6
:100DE0001F93DC011A960D911C911B9718962D915B
:100DF0003C911997ED91FC9100A0F1A1E02D7B01B0
:100E000040E050E060E070E009951F910F91FF9085
:100E1000EF9008954F925F926F927F928F929F9280
:100E2000AF92BF92CF92DF92EF92FF920F931F93F8
:100E3000CF93DF936C012B015A0139014801DC018A
:100E4000ED91FC910284F385E02D0995E201640C9B
:100E5000751CD601ED91FC91C615D7055CF4008890
:100E6000F189E02D87019401A501BE01C601099514
:100E70002196EFCF0688F789E02DC601DF91CF914B
:100E80001F910F91FF90EF90DF90CF90BF90AF90A8
:100E90009F908F907F906F905F904F9009948F926A
:100EA0009F92AF92BF92CF92DF92EF92FF920F93F9
:100EB0001F93CF93DF93EC015B014A016901E88145
:100EC000F9810284F385E02D099595012C0D3D1DD6
:100ED00021503109E881F9810488F589E02D7801F4
:100EE0008401A401B501CE010995E881F981068844
:100EF000F789E02DCE01DF91CF911F910F91FF90E7
:100F0000EF90DF90CF90BF90AF909F908F9009941B
:100F10008F929F92AF92BF92CF92DF92EF92FF9209
:100F20000F931F93CF93DF93EC015B014A0169019B
:100F30007801E881F9810284F385E02D0995C80CD8
:100F4000D91C860101501109E881F9810488F589CD
:100F5000E02D9501A401B501CE010995E881F98143
:100F60000688F789E02DCE01DF91CF911F910F9177
:100F7000FF90EF90DF90CF90BF90AF909F908F90B9
:100F800009940895EF92FF920F931F93DC01ED9166
:100F9000FC9100A0F1A1E02D09951F910F91FF9008
:100FA000EF9008950F931F93DC01ED91FC91068C57
:100FB000F78DE02D09951F910F9108950F931F93C1
:100FC000DC01ED91FC91048CF58DE02D09951F91CC
:100FD0000F910895DC01ED91FC910084F185E02DE5
:100FE00009942F923F924F925F926F927F928F92CD
:100FF0009F92AF92BF92CF92DF92EF92FF920F93A8
:101000001F93CF93DF9300D000D000D0CDB7DEB7D1
:101010002C017E836D836A015901C801FC82EB8239
:101020004801841A950A97FE03C09194819491080F
:1010300035012D813E81621A730A77FE03C07194D7
:1010400061947108681479045CF43A2D2B2D5C01CD
:10105000832F922F3D812E81DE82CD82C32ED22E10
:10106000AD81BE81AA16BB065CF43C2D2D2D6C0112
:10107000832F922F3D812E81BE82AD82A32EB22E70
:1010800085012D813E81021B130B1C012C183D088C
:1010900037FE03C0319421943108780117FF03C053
:1010A0003FEFE31AF30AF594E794C816D9062CF03B
:1010B0008FEF9FEF9A83898304C0A1E0B0E0BA83E9
:1010C000A9832D813E81A216B30624F1D201ED91B0
:1010D000FC910484F585E02D2B813C816814790412
:1010E00024F44D815E81B60103C0A6016D817E812D
:1010F000C2010995E218F308F7FE06C029813A817A
:10110000C20ED31EE00EF11E8D819E8101969E833C
:101110008D83D7CF26960FB6F894DEBF0FBECDBF16
:10112000DF91CF911F910F91FF90EF90DF90CF90C3
:10113000BF90AF909F908F907F906F905F904F90F7
:101140003F902F90089585ED8093BC008091BC0066
:1011500084FDFCCF1092390208954091DC01262FC6
:1011600030E0240F311D21323105DCF420913902A9
:101170002430C9F4FC0180E090E0861758F43091E7
:10118000DC012191DC01A454BE4FA30FB11D2C93AF
:101190000196F3CF8091DC01680F6093DC0180E061
:1011A000089581E0089582E0089508950895E091FA
:1011B0000D0280910C02E81730F4F0E0E456FE4F87
:1011C000808190E008958FEF9FEF089590910D0238
:1011D00080910C02981750F4E92FF0E0E456FE4F8E
:1011E000208130E09F5F90930D0202C02FEF3FEF10
:1011F000C901089580910C0290E020910D02821B9C
:1012000091090895CF92DF92EF92FF920F931F936F
:10121000CF93DF937C01CB018A0120913A022223F4
:1012200089F0EB016B01C40ED51ECC15DD0569F00C
:101230006991D701ED91FC910190F081E02DC701FA
:101240000995F3CF642F0E94AD08C801DF91CF91BB
:101250001F910F91FF90EF90DF90CF900895CF9363
:10126000DF931F92CDB7DEB7698320913A02222324
:10127000D1F020915D02203240F021E030E0FC010D
:101280003383228380E090E015C080913B02E82FF9
:10129000F0E0E45CFD4F998190838F5F80933B0287
:1012A00080935D0205C061E0CE0101960E94AD0809
:1012B00081E090E00F90DF91CF910895FC0177FDE0
:1012C000B9C080859185681779070CF0B3C057FDC8
:1012D000B1C082859385481759070CF00895858918
:1012E000823079F484819581DC01A61BB70BBD01A6
:1012F0006150710986819781DC01A41BB50BAD019A
:101300000EC0833009F084C064277527CA01862780
:1013100097276827792746815781481B590B4150E9
:1013200051092130310531F048F12230310509F4FD
:101330004AC00895CA0157FD07969C01A3E0359560
:101340002795AA95E1F7A481B5812A9FC0012B9F1B
:10135000900D3A9F900D1124680F791F068CF78D20
:10136000E02DE60FF71F4770552781E090E001C0A0
:10137000880F4A95EAF79081892B48C0CA0157FD2A
:1013800007969C0193E0359527959A95E1F7A481FE
:10139000B5812A9FC0012B9F900D3A9F900D11247B
:1013A000680F791F068CF78DE02DE60FF71F477049
:1013B000552781E090E001C0880F4A95EAF78095B3
:1013C0009081892323C0CA0157FD07969C0183E0C1
:1013D000359527958A95E1F7A481B5812A9FC001AB
:1013E0002B9F900D3A9F900D1124680F791F068C4A
:1013F000F78DE02DE60FF71F4770552781E090E04D
:1014000001C0880F4A95EAF7908189278083089563
:10141000813009F086CF6427752746275727642730
:10142000752784819581DC01A61BB70BBD01615036
:10143000710977CF089580E090E008950E944123DC
:10144000AF92BF92CF92EF92FF920F931F93CF93E1
:10145000DF93EC01262F888D998D009709F040C00D
:101460006A3059F41D861C862C898E859F8538E04C
:10147000239F800D911D112441C06D3009F4AAC035
:101480008E898823C1F03C898C859D8546E0349FF8
:10149000800D911D112448855985481759075CF422
:1014A0001D861C868E859F8548E0349F800D911D8A
:1014B00011249F878E87EA88FB88088919894E85C1
:1014C0005F856C857D85CC88CE010E9457142C8960
:1014D0008C859D8536E0239F800D911D112442C08F
:1014E0006A3079F41D861C862C89FC013696E491BD
:1014F0008E859F852E9F800D911D11249F878E873D
:1015000069C06D3009F466C0FC01349634916317EC
:1015100008F460C03196E491E61708F45BC0FC0162
:10152000329665917491422F50E0431B510937E088
:10153000349F5001359FB00C1124A60EB71EF50143
:10154000329634913196E491332311F0E1110DC0BC
:10155000F5013496E4912C898C859D85E29F800D60
:10156000911D11249D878C8735C0F50135964491D6
:101570005E89552311F16C89E32FF0E0E40FF11D32
:1015800047FDFA956E9FD0016F9FB00D11244C85D9
:101590005D854A0F5B1FE885F985E417F5076CF454
:1015A0001D861C86FC013696E4918E859F856E9F74
:1015B000800D911D11249F878E87EA88FB880889FA
:1015C00019894E855F856C857D85CC88CE010E940A
:1015D0005714BECF81E090E0DF91CF911F910F9122
:1015E000FF90EF90CF90BF90AF9008950F931F930F
:1015F000CF93DF93DC015596EC915597E23071F073
:10160000E330E9F0E13079F5FB0114960D90BC91DF
:10161000A02DA41BB50BA21BB30B18C0EC01EC81D1
:10162000FD81E61BF70BBF0161507109EE81FF815F
:10163000DF01A41BB50BAD01421B530B14C0DA0133
:10164000EC01EE81FF81E61BF70B3197F7FD0DC032
:10165000EC014E815F81E417F5073CF4AF01BD0159
:101660000E943B1302C00E94A213DF91CF911F91F1
:101670000F9108950F931F93DC015596EC915597A8
:10168000E23061F0E33009F1E13081F51496ED913B
:10169000FC911597E41BF50B319723C0DC011496E0
:1016A000ED91FC911597DF01A61BB70BBD01DC0185
:1016B0001696ED91FC911797DF01A41BB50BAD01B8
:1016C00041505109621B730B11C0FA01DC011696DF
:1016D0004D915C911797DA01A61BB70BBD01621BF8
:1016E000730BAB01BF010E94A2130CC057FD0AC0CF
:1016F000DC011696ED91FC9117974E175F0714F4D5
:101700000E943B131F910F9108951F920F920FB6E5
:101710000F9211242F938F939F93EF93FF93E09158
:101720006E02F0916F028081E0917402F091750277
:1017300082FD12C09081809177028F5F8F7320911C
:101740007802821751F0E0917702F0E0E25AFD4F03
:10175000958F8093770201C08081FF91EF919F91D7
:101760008F912F910F900FBE0F901F901895FC0135
:10177000848DDF01A80FB11DA35ABF4F2C91848D1A
:1017800090E001968F739927848FA689B7892C934F
:10179000A089B1898C91837080648C93938D848DA2
:1017A000981306C00288F389E02D80818F7D8083A5
:1017B0000895EF92FF920F931F93CF93DF93EC0165
:1017C00081E0888F9B8D8C8D981305C0E889F989FD
:1017D000808185FD26C0F62E0B8D10E00F5F1F4F18
:1017E0000F731127E02E8C8DE8120CC00FB607FC8A
:1017F000FACFE889F989808185FFF5CFCE010E9473
:10180000B70BF1CF8B8DFE01E80FF11DE35AFF4FAF
:10181000F0829FB7F8940B8FEA89FB898081806200
:101820000AC09FB7F894EE89FF896083E889F98937
:1018300080818370806480839FBF81E090E0DF912E
:10184000CF911F910F91FF90EF900895CF93DF9369
:10185000EC01888D8823C9F0EA89FB89808185FDA8
:1018600005C0A889B9898C9186FD0FC00FB607FC09
:10187000F5CF808185FFF2CFA889B9898C9185FF4A
:10188000EDCFCE010E94B70BE7CFDF91CF91089546
:10189000CF93DF93282F30E0F901EE58FF4F84916A
:1018A000F901EF53FA4FD491F901E152FA4FC49183
:1018B000CC2391F081110E94BD05EC2FF0E0EE0FDA
:1018C000FF1FE859FF4FA591B491EC91ED2381E002
:1018D00090E021F480E002C080E090E0DF91CF91C1
:1018E0000895862F0C94480C1F93CF93DF93282FD5
:1018F00030E0F901EE58FF4F8491F901EF53FA4FB0
:10190000D491F901E152FA4FC491CC23C1F0162FC2
:1019100081110E94BD05EC2FF0E0EE0FFF1FEB528E
:10192000FA4FA591B4919FB7F894111104C08C910E
:10193000D095D82302C0EC91DE2BDC939FBFDF91C2
:10194000CF911F910895862F642F0C94740CCF9320
:10195000DF9390E0FC01EF53FA4F2491FC01E15238
:10196000FA4F8491882361F190E0880F991FFC0160
:10197000E556FA4FC591D491FC01EB52FA4FA5916F
:10198000B491611109C09FB7F89488812095822392
:101990008883EC912E230BC0623061F49FB7F894DA
:1019A0008881322F309583238883EC912E2B2C93C2
:1019B0009FBF06C08FB7F894E8812E2B28838FBF76
:1019C000DF91CF910895862F642F0C94A70C8E3051
:1019D00008F08E508770806480937C0080917A003C
:1019E000806480937A0080917A0086FDFCCF80919C
:1019F00078002091790090E0922B08958F929F9229
:101A0000AF92BF92CF92DF92EF92FF926B017C0177
:101A10000E94E6054B015C01C114D104E104F1040C
:101A2000F1F00E94E605DC01CB0188199909AA09A9
:101A3000BB09883E9340A105B10570F321E0C21AAD
:101A4000D108E108F10888EE880E83E0981EA11CF9
:101A5000B11CC114D104E104F10419F7DDCFFF90EA
:101A6000EF90DF90CF90BF90AF909F908F900895B0
:101A70001F920F920FB60F9211242F933F938F93C3
:101A80009F93AF93BF938091040290910502A09120
:101A90000602B09107023091FF0123E0230F2D379A
:101AA00020F40196A11DB11D05C026E8230F029662
:101AB000A11DB11D2093FF018093040290930502A4
:101AC000A0930602B0930702809100029091010258
:101AD000A0910202B09103020196A11DB11D809355
:101AE000000290930102A0930202B0930302BF91FF
:101AF000AF919F918F913F912F910F900FBE0F90BB
:101B00001F9018951F920F920FB60F9211242F93CA
:101B10003F934F935F936F937F938F939F93AF9375
:101B2000BF93EF93FF938091B900887F803609F4CB
:101B30009CC068F5883209F45BC090F4803109F4E8
:101B400054C038F4882309F4F6C0883009F44DC035
:101B5000F6C0883109F44CC0803209F45DC0EFC092
:101B6000803409F468C048F4803309F455C08833E0
:101B700009F0E5C080933702D8C0803509F44FC022
:101B8000883509F45DC0883409F0D9C0D6C08839D9
:101B900009F4C7C0A8F4883709F467C038F4883658
:101BA00009F463C0803709F460C0C9C0883809F4FB
:101BB000B8C0803909F45FC0803809F0C0C05BC08C
:101BC000803B09F486C038F4803A09F466C0883A4C
:101BD00009F47FC0B4C0803C09F4A7C0883C09F474
:101BE000A4C0883B09F48AC0AAC08091140210C026
:101BF0009091360280913502981770F5E091360287
:101C000081E08E0F80933602F0E0EB5EFD4F808125
:101C10008093BB0085EC86C0809337028EC0E09134
:101C2000360281E08E0F809336028091BB00F0E097
:101C3000EB5EFD4F808390913602809135026EC03D
:101C4000E091360281E08E0F809336028091BB00D6
:101C5000F0E0EB5EFD4F80838091380281116DC012
:101C600081E08093130284EA61C083E080933902AB
:101C70001092FE01CFCF8091FE01803208F051C05A
:101C8000E091FE0181E08E0F8093FE018091BB0008
:101C9000F0E0E252FE4F8083BDCF85EC8093BC0024
:101CA000109239028091FE01803230F4E091FE0101
:101CB000F0E0E252FE4F10826091FE0170E0E09190
:101CC0000802F09109028EED91E009951092FE0153
:101CD00036C084E0809339021092DD011092DC015D
:101CE000E0910A02F0910B0209958091DC018111CB
:101CF00005C081E08093DC011092BC01E091DD0120
:101D000081E08E0F8093DD01F0E0E454FE4F80818E
:101D10008093BB009091DD018091DC01981708F45D
:101D200079CF85E88093BC000AC085EC8093BC0025
:101D30001092390204C0109237020E94A308FF914A
:101D4000EF91BF91AF919F918F917F916F915F9133
:101D50004F913F912F910F900FBE0F901F901895AC
:101D600008958EBD00000DB407FEFDCF8EB5089519
:101D70001F93CF93DF93FC01848D958D009729F1FC
:101D8000162FEF0120A131E030933A0220935C023C
:101D900010923B0210925D02DC01ED91FC910190EA
:101DA000F081E02D60E009958C8D9D8DDC01ED9139
:101DB000FC910190F081E02D612F09958C8D9D8D16
:101DC000DF91CF911F910C94C218A4A5B5A59C9149
:101DD00082A9809589238C93828D938D892B31F0F4
:101DE000862FDF91CF911F910C94B10E28E030E047
:101DF00080E8A0A5B1A590A9462F482319F04C91E1
:101E0000942B03C04C91909594239C93A2A5B3A5C9
:101E10004C9191A9942B9C93A2A5B3A54C9191A907
:101E2000909594239C9386952150310911F7DF9169
:101E3000CF911F9108958CBD9DBD08951F93CF93A1
:101E4000DF93EC01162F8C8D9D8D892BB1F02EA97F
:101E50003FA948AD59AD60E074E284EF90E00E9484
:101E60003221DA01C9014097A109B109B695A795B8
:101E7000979587958093B8000FC08A8D9B8D892B8D
:101E800021F08CA99DA90E941B0FEEA5FFA59081B2
:101E90008BA9809589238083111102C066EA01C055
:101EA00067EACE010E94B80E8C8D9D8D892BB1F012
:101EB0002AAD3BAD4CAD5DAD60E074E284EF90E0E7
:101EC0000E943221DA01C9014097A109B109B695F2
:101ED000A795979587958093B80006C0EEA5FFA5B6
:101EE00090818BA9892B8083DF91CF911F910895D9
:101EF00096E0899FD0011124AB5BBC4F90967C93F8
:101F00006E935F9791E091969C9391979091B10316
:101F1000E091B203F091B303992339F0309751F077
:101F2000811108C08091610304C0309719F05C965C
:101F30008C9109940895CF92DF92EF92FF920F93C4
:101F40001F9396E0899FF0011124EB5BFC4F11A2D7
:101F5000278D30A12130310539F158F0223031057B
:101F600009F447C02330310509F04FC060E070E04C
:101F700044C0662309F449C061E070E00E94780F14
:101F80002FB7F8948091040290910502A091060267
:101F9000B09107022FBF80939D0390939E03A0935F
:101FA0009F03B093A00331C09FB7F894C090040280
:101FB000D0900502E0900602F09007029FBF0091CA
:101FC0009D0310919E0320919F033091A003C01A9E
:101FD000D10AE20AF30A0091AF031091B00320E0A6
:101FE00030E00C151D052E053F0518F462E070E089
:101FF00004C061110AC063E070E01F910F91FF906F
:10200000EF90DF90CF900C94780F1F910F91FF907D
:10201000EF90DF90CF9008950F931F93CF93DF93AE
:10202000EC0188819981009729F02A813B8126174C
:10203000370788F48B016F5F7F4F0E947B220097E8
:1020400061F0998388831B830A832C813D81232B34
:1020500011F4FC01108281E001C080E0DF91CF919A
:102060001F910F910895EF92FF920F931F93CF93BB
:10207000DF938091170390911803892BD1F0209161
:10208000310330913203409133035091340360E0C7
:1020900074E284EF90E00E943221DA01C901409796
:1020A000A109B109B695A795979587958093B80032
:1020B00016C08091150390911603892B31F0809101
:1020C0002F03909130030E941B0FE0912903F091A0
:1020D0002A03908180912E0380958923808365E077
:1020E00086E995E00E941E196091FF0261508BEF16
:1020F00092E00E94B80E2091010330910203C901C1
:10210000079697FD079633E0959587953A95E1F701
:102110002091FF0230910003829F8001839F100D68
:10212000929F100D1124C0911903D0911A03809130
:102130001703909118030C0F1D1F009709F44CC052
:1021400020911B0331E030933A0220935C021092FD
:102150003B0210925D02DC01ED91FC910190F08157
:10216000E02D60E40995FF24F394EE24E39480913C
:102170001703909118030C171D0759F1BFE1BF1504
:10218000D0F40E94C21880911B03E0923A0280931F
:102190005C0210923B0210925D02809117039091B5
:1021A0001803DC01ED91FC910190F081E02D60E4D9
:1021B0000995FF24F3948091170390911803699176
:1021C000DC01ED91FC910190F081E02D0995F394F3
:1021D000CECF0E94C21841C0E0912703F09128039E
:1021E000908180912D03892B80830C171D07A9F105
:1021F00089912091150330911603232B19F00E9429
:10220000B10EF3CF28E030E040E8E0912303F091F5
:10221000240390912B03582F542319F05081952BB0
:1022200003C05081909595239083E0912503F09110
:102230002603508190912C03952B9083E0912503E8
:10224000F0912603508190912C03909595239083D3
:10225000469521503109C9F6C8CF80911703909156
:102260001803892BD1F0209135033091360340912A
:1022700037035091380360E074E284EF90E00E94ED
:102280003221DA01C9014097A109B109B695A79594
:10229000979587958093B80017C0E0912903F09136
:1022A0002A03908180912E03892B808380911503CE
:1022B00090911603892B41F0DF91CF911F910F91DF
:1022C000FF90EF900C94B00EDF91CF911F910F9182
:1022D000FF90EF900895CF93DF93FC0144815581E7
:1022E000608171818BEF92E00E942017EC0168E71A
:1022F00071E08BEF92E00E9459178C0F9D1FDF91C8
:10230000CF910895CF93DF93EC0188819981009755
:1023100011F00E94F221198218821D821C821B82F8
:102320001A82DF91CF910895FC0124813581232BFE
:1023300049F064E871E0808191810E94562321E098
:10234000892B09F020E0822F08950F931F93CF93DC
:10235000DF938C01EB01FC01808191810097B1F04A
:10236000688179816115710579F0428153812C81F1
:102370003D814217530740F00E945F238C819D816D
:10238000F8019583848313C00E94F221888199818A
:10239000F801918380838A819B81938382838C81DE
:1023A0009D8195838483198218821B821A821D82E3
:1023B0001C82DF91CF911F910F9108956F927F92B0
:1023C0008F929F92AF92BF92CF92DF92EF92FF9245
:1023D0000F931F93CF93DF9381E08093B1038FB767
:1023E000F8944091040250910502609106027091A8
:1023F00007028FBF8091A1039091A203A091A30334
:10240000B091A403481B590B6A0B7B0B8091AD0361
:102410009091AE03A0E0B0E084179507A607B70738
:1024200008F0F0C0C0E08091AB03C81730F0712C09
:10243000812C912C5401839440C0E091A703F0912A
:10244000A803EC0FF11D62E080810E94A70CCF5F12
:10245000EACFC62DD0E0E091A703F091A803EC0FDE
:10246000FD1F80810E94480C2496CC0FDD1FCB5BA2
:10247000DC4F892B09F04BC0888199818C299D29DB
:102480009983888363948091AB03681610F3E0917D
:10249000A903F091AA03E00FF11F61E080810E947F
:1024A000740C8091A9039091AA03FC01E00FF11F25
:1024B00060E080810E94A70C73948091AC03781631
:1024C00058F5072D10E0E091A903F091AA03E00F61
:1024D000F11F61E080810E94A70CE091A903F091B7
:1024E000AA03E00FF11F60E080810E94740CD50107
:1024F000C401072C04C0880F991FAA1FBB1F0A9490
:10250000D2F76C017C01E094F094612CBCCF8881FF
:1025100099818E219F21B4CF25E4E22E23E0F22E73
:1025200081E893E0F7012FEF3FEF478D50A1452B56
:1025300021F4148E368F258F11A236968E179F07A1
:10254000A1F7C0E096E0D92E8091AB03C81758F5EB
:10255000D0E00C2F10E0000F111F035B1C4F2091E7
:10256000AC03D217F0F4F801408151810D2E02C066
:10257000569547950A94E2F7642F6170C29F9001C7
:1025800011242D0F311DE5E4F3E080E0A58DB68D1B
:102590002A173B0709F456C08F5F36968A30B1F789
:1025A00035C0CF5FD1CF80E0F70191A1911181E0DB
:1025B000F6E0EF0EF11C91E8E91693E0F906A1F7B9
:1025C0009FB7F89440910402509105026091060271
:1025D000709107029FBF4093A1035093A2036093A1
:1025E000A3037093A403882369F080916603882372
:1025F00049F08091640390916503019719F48091EB
:1026000061032AC01092B10380E026C040FF1CC0C5
:10261000E5E4F3E080E090E0448D411117C0E091E3
:10262000A503F091A603E20FF31F4081D89EF001AD
:10263000D99EF00D1124EB5BFC4F448F368F258F14
:1026400010A2178E0E949B0FDF5F89CF01963696EE
:102650008A30910509F7F8CFDF91CF911F910F9143
:10266000FF90EF90DF90CF90BF90AF909F908F90B2
:102670007F906F9008950F931F93CF93DF9377FF11
:1026800004C0260F371F60E070E0DC011496CD9186
:10269000DC911597FB01E20FF31FCE17DF071CF447
:1026A0009E01261B370B121613060CF046C0FA01CA
:1026B00057FD3796DF01E3E0B595A795EA95E1F779
:1026C000AC9FF001AD9FF00DBC9FF00D11246E0F7B
:1026D0007F1FDC015E96ED91FC915F97E60FF71F7F
:1026E0004770552781E090E001C0880F4A95EAF7CE
:1026F000482F0130110539F078F002301105E9F466
:102700002E0F3F1F13C02E0F3F1FE217F307A9F034
:102710008081842B8193F9CF80952E0F3F1FE21784
:10272000F30759F0908198239193F9CFE217F307BB
:1027300021F0808184278193F9CFDF91CF911F9180
:102740000F910895EF92FF920F931F93CF93DF9312
:10275000EC0177FDA5C0EC80FD806E157F050CF0C7
:102760009FC057FF04C0240F351F40E050E08E810A
:102770009F81FA01E20FF31F8E179F071CF49C0143
:10278000241B350B121613060CF08AC0922F842FCF
:102790008695869586958E9DD0018F9DB00D1124CE
:1027A0006A0F7B1FAE8DBF8DA60FB71F4770B1F1AB
:1027B00088E0841B482F682F70E0FB01E257FA4F36
:1027C000E491281798F4621B71092FEF30E002C0E2
:1027D000359527956A95E2F7E2230130110549F016
:1027E00078F00230110509F05BC00EC00130110510
:1027F00019F48C91E82B0AC00130110508F049C08A
:10280000E0958C91E82302C08C91E827EC93941713
:1028100008F446C02C813D81A20FB31FE92FE41BB1
:10282000E830F8F00230110561F48E2F9C919095FC
:102830009C932C813D81A20FB31F88508830B0F744
:102840000FC081E00115110509F480E081959E2FEC
:102850008C932C813D81A20FB31F98509830C0F704
:10286000E770EE23E9F0F0E0EA57FA4FE491013027
:10287000110539F048F00230110591F48C91E827E8
:1028800006C08C91E82B03C0E0958C91E823EC9373
:1028900007C00230110509F4B7CFAE0DBF1DBECF82
:1028A000DF91CF911F910F91FF90EF9008952F929C
:1028B0003F924F925F926F927F928F929F92AF92D0
:1028C000BF92CF92DF92EF92FF920F931F93CF931D
:1028D000DF93CDB7DEB76B970FB6F894DEBF0FBEB0
:1028E000CDBF9B8F8A8F5B011A01D22E1F830E836F
:1028F0003701C982DC0158962D913C9159972115D9
:10290000310509F0E6C018968D919C9119976817CA
:1029100079070CF0CDC11A968D919C911B974817A1
:1029200059070CF0C5C18C2C912CFB0126E0C29EEE
:10293000E00DF11D1124FB87EA871E161F060CF01F
:10294000B7C1A40183E0440F551F8A95E1F75D8765
:102950004C87CA01820D931D181619060CF0A8C1E8
:1029600057968C91811104C05FEA5D1508F4D394E9
:10297000AA8DBB8DED91FC9111970284F385E02D1A
:10298000CD010995B5E0DB9EC0011124F501359616
:10299000FF87EE87BB82AA8225019C012A193B0989
:1029A000398B288BA101485F5F4F5B8B4A8BE8898D
:1029B000F989E40DF51DEA57FF4F549158876101DD
:1029C0003D822C82888580FF13C0AA8DBB8DED913E
:1029D000FC91B981B13031F40484F585E02D2E816C
:1029E0003F8116C00684F785E02DEE80FF801AC077
:1029F000EE81FF81E615F705F1F0AA8DBB8DED9113
:102A0000FC91B981B13051F40484F585E02D930136
:102A1000A601B2018A8D9B8D09950DC00684F785AC
:102A2000E02D7301840194014C815D816A817B8179
:102A30008A8D9B8D0995E885E695E887FFEFCF1A8B
:102A4000DF0A2C813D81280D391D3D832C834A8965
:102A50005B89C416D50609F0B5CF5FEF451A550A54
:102A60008A819B81880D991D9B838A83AE85BF8552
:102A70004A165B0609F09BCFEE81FF81E615F7054C
:102A800009F4F4C0EA8DFB8DA081B181F981F130A8
:102A900079F4B5016B5F7F4F5096ED91FC915197A2
:102AA000830128E030E0A1018A8D9B8D0995DEC06D
:102AB0006A857B85681979091E96ED91FC911F97AF
:102AC00073010C851D859401A1018A8D9B8D09954B
:102AD000CDC0F9013496E491DE1AF9013296859160
:102AE0009491B7E0DB9E800D911D1124F901259191
:102AF00034913B8B2A8BFC01259134912901FC01F7
:102B00003296C490319634913E8732961491319624
:102B1000D4904981423058F0612E012E000C770884
:102B20008D2D0D2C000C990B9987888704C0198670
:102B30001886612C712CAA8DBB8DED91FC9111979B
:102B40000284F385E02DCD010995B9818B2E912C5E
:102B5000689CC001699C900D789C900D1124FC012B
:102B6000EA0DFB1DFD87EC871A82712C612CE12F89
:102B7000110FFF0B95012E0F3F1F3B872A87AC0CCF
:102B8000B11CA5014E0F5F1F5F8B4E8BC1018D0DD8
:102B9000911DD7FC9A95998F888F9E85691608F0AC
:102BA00065C0862D90E048855985480F591F489D7E
:102BB0009001499D300D589D300D1124D101A20F77
:102BC000B31FB98BA88BEC85FD85FD83EC83AA84AC
:102BD000BB84DA80FA85DF1A288D398D280F391FDA
:102BE0003D8B2C8B8D2D8A0D4E895F89A416B506E1
:102BF000C1F1877041F4C2010196EA89FB89E40DB5
:102C0000F51D74902C0177FE21C0AA8DBB8DED912E
:102C1000FC91B981B13061F40484F585E02D2E81F9
:102C20003F814C895D89B5018A8D9B8D09950EC0C8
:102C30000684F785E02DEE80FF80840194014889A9
:102C400059896C817D818A8D9B8D0995770CEFEF79
:102C5000AE1ABE0A2C813D81280D391D3D832C837F
:102C6000C1CF3A813C0D3A83639497CFAA8DBB8D37
:102C7000ED91FC9111970688F789E02DCD016B96B7
:102C80000FB6F894DEBF0FBECDBFDF91CF911F917D
:102C90000F91FF90EF90DF90CF90BF90AF909F90FB
:102CA0008F907F906F905F904F903F902F900994FE
:102CB0006B960FB6F894DEBF0FBECDBFDF91CF91FC
:102CC0001F910F91FF90EF90DF90CF90BF90AF904A
:102CD0009F908F907F906F905F904F903F902F903C
:102CE0000895EF92FF920F931F93CF93DF93611597
:102CF000710511F480E01CC041155105C1F07B0144
:102D0000EC018C819D818A01080F191FB801CE0149
:102D10000E940C10882371F3288139818C819D8158
:102D2000B701820F931F0E945F231D830C8381E0F4
:102D3000DF91CF911F910F91FF90EF900895CF9366
:102D4000DF93EC0140913D0350913E0360913903C4
:102D500070913A030E947116811103C0CE010E9446
:102D60008211CE01DF91CF910895CF93DF93EC01D3
:102D70006115710561F0FB0101900020E9F73197C1
:102D8000AF01461B570B0E947116811103C0CE0183
:102D90000E948211CE01DF91CF910895EF92FF92B0
:102DA0000F931F93CF93DF93EC017B018A01BA014C
:102DB0000E940C10811104C0CE010E94821107C034
:102DC0001D830C83B701888199810E945F23CE0106
:102DD000DF91CF911F910F91FF90EF900895FC012B
:102DE000118210821382128215821482F3E08F33D3
:102DF0009F0769F060913F03709140036115710571
:102E000031F040914303509144030C94CE16089541
:102E1000CF93DF93EC016115710559F0FB0101902F
:102E20000020E9F73197AF01461B570B0E94CE16E1
:102E300002C00E948211CE01DF91CF9108950895C2
:102E4000CF92DF92EF92FF920F931F93CF93DF9376
:102E50006C017A018B01C0E0D0E0CE15DF0581F076
:102E6000D8016D918D01D601ED91FC910190F08119
:102E7000E02DC6010995892B11F02196EECF7E0138
:102E8000C701DF91CF911F910F91FF90EF90DF90DD
:102E9000CF9008958EE592E00E94A70521E0892B4E
:102EA00009F420E0822F0895FC01808191810C9427
:102EB000F2216115710579F0FB0101900020E9F71D
:102EC0003197AF01461B570BDC01ED91FC9102805D
:102ED000F381E02D099480E090E008950F931F9313
:102EE000CF93DF93EC01E881F9810190F081E02D2F
:102EF00009958C0168E771E0CE010E945917800F97
:102F0000911FDF91CF911F910F9108951F920F9202
:102F10000FB60F9211242F933F934F935F936F93AC
:102F20007F938F939F93AF93BF93EF93FF938EE520
:102F300092E00E94B70BFF91EF91BF91AF919F91EB
:102F40008F917F916F915F914F913F912F910F9052
:102F50000FBE0F901F9018958F929F92AF92BF92C5
:102F60000F931F93CF93DF93CDB7DEB7A1970FB623
:102F7000F894DEBF0FBECDBF19A2423008F44AE07C
:102F80008E010F5D1F4F842E912CA12CB12CA50119
:102F900094010E943221E62FB901CA0101501109A2
:102FA000EA3014F4E05D01C0E95CD801EC93232B16
:102FB000242B252B61F7B8018EE592E00E9459176A
:102FC000A1960FB6F894DEBF0FBECDBFDF91CF91B3
:102FD0001F910F91BF90AF909F908F900895CF92C7
:102FE000DF92EF92FF92CF93DF936C01990FEE087F
:102FF000FF08F7FE19C06DE28EE592E00E94D90B42
:10300000EC0166277727CB016C197D098E099F0992
:103010004AE00E94AC178C0F9D1FDF91CF91FF906B
:10302000EF90DF90CF9008954AE0C701B601DF919D
:10303000CF91FF90EF90DF90CF900C94AC17209140
:10304000010330910203C901079697FD079623E01B
:10305000959587952A95E1F72091FF02309100031D
:10306000829FA001839F500D929F500D112460E01C
:1030700070E08091190390911A030C944F233F92B2
:103080004F925F926F927F928F929F92AF92BF9278
:10309000CF92DF92EF92FF920F931F93CF93DF9324
:1030A00000D000D000D0CDB7DEB72C013B014A01E3
:1030B0005901C901079697FD07969C0193E0359544
:1030C00027959A95E1F73C832B83C12CD12CE12CD9
:1030D000F12C312CC3018E0D9F1D9A838983E0163C
:1030E000F106C4F51E821D822D813E812A153B0505
:1030F0004CF5C90187709927892B11F0330C0EC04C
:10310000ED81FE81F7FD379683E0F595E7958A9589
:10311000E1F7EC0DFD1DE80DF91D349037FE0CC0F4
:1031200021E030E049815A816D817E81640D751DF9
:103130008BEF92E00E94EA078D819E8101969E832B
:103140008D83D2CF9FEFE91AF90A2B813C81C20E01
:10315000D31EC0CF26960FB6F894DEBF0FBECDBFEC
:10316000DF91CF911F910F91FF90EF90DF90CF9063
:10317000BF90AF909F908F907F906F905F904F9097
:103180003F90089530915D02313208F04BC080913C
:1031900039028111FCCF90915C0222E02093390228
:1031A00021E0209338022FEF20933702109236024D
:1031B00030933502ECE3F2E0A5E1B2E020E0321713
:1031C00021F041914D932F5FFACF1092140220917C
:1031D0001402990F922B9093140290911302913044
:1031E00061F410921302909114029093BB0090919D
:1031F000BC0093FDF8CF95EC01C095EE9093BC0018
:10320000909139029230E1F3909137029F3F79F02B
:1032100080913702803241F080913702803331F063
:1032200084E005C081E003C082E001C083E0109229
:103230003B0210925D0210923A020895DF92EF92E3
:10324000FF920F931F93CF93DF93D82ED92FC62FC2
:103250008091170390911803009709F454C02091AE
:103260001B0331E030933A0220935C0210923B0240
:1032700010925D02DC01ED91FC910190F081E02D56
:1032800060E00995ED2CFD2E11E0D1E0809117034F
:1032900090911803CC2371F11032C8F00E94C2182B
:1032A00080911B03D0933A0280935C0210923B0200
:1032B00010925D028091170390911803DC01ED914B
:1032C000FC910190F081E02D60E0099511E0809182
:1032D000170390911803F7016491DC01ED91FC91C3
:1032E0000190F081E02D09951F5FC150BFEFEB1AEF
:1032F000FB0ACCCFDF91CF911F910F91FF90EF9000
:10330000DF900C94C218E0912703F091280390817C
:1033100080912D038095892380830D2D1D2FCC2333
:1033200009F439C0F80184912091150330911603F6
:10333000232B31F00E94B10EC1500F5F1F4FEFCF12
:1033400028E030E040E8E0912303F09124039091DD
:103350002B03582F542319F05081952B03C0508113
:10336000909595239083E0912503F0912603508159
:1033700090912C03952B9083E0912503F0912603E7
:10338000508190912C0390959523908346952150E0
:103390003109C9F6D1CFDF91CF911F910F91FF90E5
:1033A000EF90DF90089586E491E09093FC02809383
:1033B000FB028091190390911A03009711F00E946B
:1033C000F22189E393E00E9454178FE393E00C9479
:1033D0005417CF93DF93CDB7DEB766970FB6F89447
:1033E000DEBF0FBECDBF789484B5826084BD84B546
:1033F000816084BD85B5826085BD85B5816085BDF0
:1034000080916E00816080936E00109281008091A7
:10341000810082608093810080918100816080932F
:103420008100809180008160809380008091B10054
:1034300084608093B1008091B00081608093B0007F
:1034400080917A00846080937A0080917A00826013
:1034500080937A0080917A00816080937A008091D5
:103460007A00806880937A001092C100E0916E0229
:10347000F0916F0282E08083E0916A02F0916B022A
:103480001082E0916C02F0916D028FEC80831092BB
:103490007602E0917202F091730286E08083E091FF
:1034A0007002F0917102808180618083E0917002EE
:1034B000F0917102808188608083E0917002F091C8
:1034C0007102808180688083E0917002F0917102C6
:1034D00080818F7D808361E082E00E94A70C61E0A3
:1034E00083E00E94A70C61E084E00E94A70C60E0EA
:1034F00084E10E94A70C60E085E10E94A70C809106
:10350000190390911A03892B11F520910103309131
:103510000203C901079697FD079623E095958795C5
:103520002A95E1F72091FF0230910003AC01429F00
:10353000C001439F900D529F900D11240E945A216B
:1035400090931A0380931903892B09F410C10E94E8
:103550001F188091010390910203813291050CF4B0
:1035600084C3BC016054710977FF02C06F5F7F4F55
:10357000759567958091FF0290910003825591099E
:1035800097FD019600E410E022E530E043ED57E0BE
:10359000959587950E943F1882E080931C03809147
:1035A000170390911803892B09F477C38CE3809358
:1035B0001B0310920D0210920C0210923B0210920B
:1035C0005D021092390281E080933802109213025A
:1035D00061E082E10E94740C61E083E10E94740C5E
:1035E0008091B9008E7F8093B9008091B9008D7F62
:1035F0008093B90088E48093B80085E48093BC0090
:1036000085ED98E090930B0280930A0286ED98E096
:1036100090930902809308028091220387FD1EC0C7
:1036200061E00E94A70C61E0809122030E94740C6B
:1036300061E070E080E090E00E94FE0C60E080912C
:1036400022030E94740C6AE070E080E090E00E9427
:10365000FE0C61E0809122030E94740C809117039C
:1036600090911803892B09F4D7C32091310330912D
:103670003203409133035091340360E074E284EFED
:1036800090E00E943221DA01C9014097A109B109F5
:10369000B695A795979587958093B80064E08DEBD4
:1036A00095E00E941E196091010361508BEF92E03A
:1036B0000E94B80E64E089EB95E00E941E1980918B
:1036C0001C03813009F4BFC364E18BEF92E00E94D8
:1036D000B80E64E085EB95E00E941E198091FF0210
:1036E000909100038038910509F0C0C380910103D7
:1036F000909102038032910509F0A7C364E081EB49
:1037000095E00E941E1969ED8BEF92E00E94B80EC1
:1037100080911C03813009F4C5C361EF8BEF92E007
:103720000E94B80E66E085EA95E00E941E1980911D
:10373000170390911803892B09F4B6C32091350320
:1037400030913603409137035091380360E074E2C2
:1037500084EF90E00E943221DA01C9014097A1096B
:10376000B109B695A795979587958093B8008E0176
:103770000F5F1F4F84E1882E912C412C512C320178
:1037800043940E941F1881E090E090930E03809371
:103790000D0390930C0380930B0380911102909181
:1037A00012028130910509F47AC01CF4892B49F08A
:1037B00053C28230910509F4E9C0039709F4F6C1B8
:1037C0004BC2109208031092070310920A03109242
:1037D0000903C8010E94EF166BE771E0C8010E945F
:1037E000B5160E949F160E946B11C8010E945417C3
:1037F000109208031092070390920A038092090323
:103800000E94DE11F82E682F8BEF92E00E946E1757
:103810000E94331064E670E080E090E00E94FE0CAD
:103820001F140CF019C280ED8F0D8A3000F58FE364
:1038300093E00E949411882391F01A8219821C82CD
:103840001B821E821D82F9861A86BE01675F7F4F2A
:10385000C8010E940817B8018FE393E06DC0F98298
:103860001A8241E050E0B8018FE393E072C09BE21E
:10387000F912F2C180911102909112020196909377
:103880001202809311028FE393E00E949411882327
:1038900009F4E2C16FE771E08FE393E074C0109226
:1038A00008031092070310920A0310920903C8013B
:1038B0000E94EF166BE771E0C8010E94B5160E94E6
:1038C0009F160E946B11C8010E94541710920803A2
:1038D0001092070390920A03809209030E94DE115E
:1038E000F82E682F8BEF92E00E946E170E94331023
:1038F00064E670E080E090E00E94FE0C1F140CF083
:10390000ABC180ED8F0D8A3038F589E393E00E94DA
:1039100094118823B9F01A8219821C821B821E829C
:103920001D82F9861A86BE01675F7F4FC8010E941B
:103930000817B80189E393E00E94A511C8010E940D
:1039400054178AC1F9821A8241E050E0B80189E334
:1039500093E00E94711680C12BE2F2127DC180912A
:10396000110290911202019690931202809311021B
:1039700089E393E00E949411882309F46DC16FE7F5
:1039800071E089E393E00E94081766C11092080372
:103990001092070310920A0310920903C8010E94B3
:1039A000EF166BE771E0C8010E94B5160E949F16E2
:1039B00061E871E00E94B5160E946B11C8010E9477
:1039C0005417109208031092070390920A038092F2
:1039D000090366E871E08BEF92E00E94591768E7EF
:1039E00071E08BEF92E00E9459170E943310809192
:1039F000390390913A03009719F00E948A2003C07E
:103A000060E070E0CB017C8B6B8B80913F039091E9
:103A10004003009719F00E948A2003C060E070E024
:103A2000CB017E8B6D8BC12CD12C1F86E12CF12C10
:103A30008B899C890E2C02C0959587950A94E2F794
:103A4000AC0141705527598B488B2D883E880E2C30
:103A500002C0359427940A94E2F751E025223324DA
:103A6000622D82E00E94740C688983E00E94740CCD
:103A70006F8584E00E94740C6CED75E080E090E04E
:103A80000E94FE0C85E10E94E70C21E02F87893C13
:103A900091050CF41F8684E10E94E70C5C0131E083
:103AA0003A8B893C91050CF41A8A6EEE72E080E044
:103AB00090E00E94FE0C60E082E00E94740C60E0E6
:103AC00083E00E94740C60E084E00E94740C59EC66
:103AD000A516B10464F0D301C2010E2C04C0880FF6
:103AE000991FAA1FBB1F0A94D2F7C82AD92AC70157
:103AF0000E94EF1760E971E08EE592E00E9459178D
:103B0000C1010E94EF1764E971E08EE592E00E9426
:103B10005917888999890E94EF1764E971E08EE549
:103B200092E00E9459178F85A82EB12CC5010E94E2
:103B3000EF1760E971E08EE592E00E9459172A893B
:103B4000822F90E00E94EF1764E971E08EE592E029
:103B50000E945917C5010E94EF1760E971E08EE5D8
:103B600092E00E945917C601A0E0B0E04AE0BC0113
:103B7000CD010E94AC1760E28EE592E00E946E17C4
:103B80003FEFE31AF30A40E2E416F10409F050CFE4
:103B9000D0921002C0920F028091110290911202F5
:103BA0000196909312028093110256C0109208035E
:103BB0001092070310920A0310920903C0900F029B
:103BC000D0901002CE0109960E94EF166BE771E0CB
:103BD000CE0109960E94B5160E949F1667E971E012
:103BE0000E94B5167C014AE0B801C6010E94B120CE
:103BF000F80101900020E9F73197AF01401B510B0C
:103C0000B801C7010E947116811103C0C7010E944B
:103C10008211C7010E946B11CE0109960E945417B0
:103C20000E94331060ED77E080E090E00E94FE0C8F
:103C3000109212021092110264E871E08FE393E097
:103C40000E94081764E871E089E393E00E94081776
:103C50001092100210920F0262E070E080E090E09B
:103C60000E94FE0C0E94B3058CCDBC01605271090C
:103C700077FF02C06F5F7F4F759567958091FF0258
:103C8000909100038357910997FD019600E210E09F
:103C900023E730E043EF55E07BCC61E080912003E7
:103CA0000E94A70C61E0809121030E94A70C8091E3
:103CB0002003082E000C990BFC01E152FA4FE4910D
:103CC000F0E0EE0FFF1FEB52FA4F25913491309345
:103CD000280320932703FC01EF53FA4FE491E0936C
:103CE0002D0380912103082E000C990BFC01E15259
:103CF000FA4FE491F0E0EE0FFF1FEB52FA4FA5915F
:103D0000B491B0932A03A0932903FC01EF53FA4F17
:103D1000E491E0932E038C91E82BEC9380911503B2
:103D200090911603892B09F434C01FB7F894809141
:103D30000E02811127C0E9EEF5E08491EBECF5E08D
:103D40009491E82FF0E0EE0FFF1FE556FA4FA59192
:103D5000B491EC91E92321F461E08AE00E94740CB3
:103D600061E08AE00E94A70C8CB580618CBD8CB5A7
:103D700080648CBD61E08DE00E94A70C61E08BE067
:103D80000E94A70C80910E028F5F80930E021FBFCE
:103D900043CC61E080911E030E94A70C61E08091FA
:103DA0001F030E94A70C80911E03082E000C990B84
:103DB000FC01E152FA4FE491F0E0EE0FFF1FEB52ED
:103DC000FA4F259134913093240320932303FC016F
:103DD000EF53FA4FE491E0932B0380911F03082ED9
:103DE000000C990BFC01E152FA4FE491F0E0EE0F68
:103DF000FF1FEB52FA4FA591B491B0932603A09305
:103E00002503FC01EF53FA4FE491E0932C038C91CE
:103E1000E095E823EC9300CC809115039091160374
:103E2000892B31F080912F03909130030E941B0F5A
:103E3000E0912903F0912A03908180912E038095CF
:103E4000892380832BCC60E140CC8034910509F03C
:103E50005ACC63E08EEA95E00E941E1980911C0303
:103E6000813011F06FEC19C06FE917C080369105F1
:103E700009F049CC8091010390910203409709F029
:103E800042CC63E08BEA95E00E941E1980911C03EE
:103E9000813011F06FEA01C060E18BEF92E00E9487
:103EA000B80E31CC62E23ACCE0912903F0912A03BA
:103EB000908180912E03892B8083809115039091AE
:103EC0001603892B09F453CC0E94B00E50CC1092EB
:103ED00061021092600288EE93E0A0E0B0E080936F
:103EE000620290936302A0936402B093650222E29F
:103EF00031E030935F0220935E0225EC30E0309396
:103F00006B0220936A0224EC30E030936D02209320
:103F10006C0220EC30E030936F0220936E0221ECB3
:103F200030E0309371022093700222EC30E0309345
:103F300073022093720226EC30E0309375022093D6
:103F40007402109277021092780210927902109205
:103F50007A021092B7031092B6038093B80390933D
:103F6000B903A093BA03B093BB0384E391E09093A9
:103F7000B5038093B4031092470310924B03109241
:103F80004A0310924C0382E791E09093460380939A
:103F90004503E5E4F3E081E893E0148E10A2178E68
:103FA00011A236968E179F07C1F784E091E0909397
:103FB000A8038093A70380E091E09093AA038093E5
:103FC000A90384E08093AB038093AC0388E091E085
:103FD0009093A6038093A5038AE090E09093AE03AC
:103FE0008093AD0384EF91E09093B0038093AF038F
:103FF0001092B3031092B2031092A1031092A20385
:104000001092A3031092A4031092B10310924003E4
:1040100010923F0310924203109241031092440306
:104020001092430341E050E064E871E08FE393E0D5
:104030000E94CE1610923A031092390310923C035C
:1040400010923B0310923E0310923D0341E050E07A
:1040500064E871E089E393E00E94CE161092FE02BC
:104060001092FD0220E830E0309300032093FF021D
:1040700080E290E090930203809301033093040365
:10408000209303039093060380930503109210037B
:10409000109208031092070310920A03109209036A
:1040A00091E090930F032FEF3FEF30930E03209397
:1040B0000D0330930C0320930B0390931103109284
:1040C0001203109214031092130326E431E030938C
:1040D000FC022093FB02109216031092150324EBAE
:1040E00033E0309318032093170310921A031092B1
:1040F00019038FEF80931E0380931F038093200387
:10410000809321039093220380E580932F031092E4
:10411000300308951F93FC0199278827BC01E89478
:1041200011911032E9F3193010F01E30C8F31B3230
:1041300051F01D3249F4689406C00E94BC20610F02
:10414000711D811D911D119110531A30B0F33EF471
:1041500090958095709561957F4F8F4F9F4F1F91E0
:104160000895BB274A3031F4992322F4BDE290959B
:1041700081959F4F0C94D220592F482F372F262FEF
:10418000660F771F881F991F660F771F881F991F5B
:10419000620F731F841F951F660F771F881F991F5B
:1041A0000895BB27FB015527AA27880F991FAA1F2F
:1041B000A41710F0A41B83955051B9F7A05DAA3342
:1041C00008F0A95DA193009779F7B111B19311920D
:1041D000CB010C94EB20DC01FC01672F719177235C
:1041E000E1F7329704C07C916D9370836291AE17B2
:1041F000BF07C8F308952F923F924F925F926F923C
:104200007F928F929F92AF92BF92CF92DF92EF9266
:10421000FF920F931F93CF93DF93CDB7DEB7CA1BE7
:10422000DB0B0FB6F894DEBF0FBECDBF09942A8812
:10423000398848885F846E847D848C849B84AA84BA
:10424000B984C884DF80EE80FD800C811B81AA8147
:10425000B981CE0FD11D0FB6F894DEBF0FBECDBF12
:10426000ED010895A1E21A2EAA1BBB1BFD010DC092
:10427000AA1FBB1FEE1FFF1FA217B307E407F50716
:1042800020F0A21BB30BE40BF50B661F771F881FF2
:10429000991F1A9469F760957095809590959B0188
:1042A000AC01BD01CF010895EE0FFF1F0590F49101
:1042B000E02D09940F931F93CF93DF9382309105E4
:1042C00010F482E090E0E091C203F091C30320E09B
:1042D00030E0A0E0B0E0309719F1408151810281D7
:1042E000138148175907C8F08417950769F4109788
:1042F00031F012960C93129713961C9327C00093DB
:10430000C2031093C30322C02115310519F04217CF
:10431000530718F49A01BD01EF01DF01F801DBCF6B
:1043200021153105F9F0281B390B2430310580F4B3
:104330008A819B816115710521F0FB019383828342
:1043400004C09093C3038093C203FE01329644C01D
:10435000FE01E20FF31F81939193225031093983BB
:1043600028833AC02091C0033091C103232B41F42C
:1043700020911A0130911B013093C1032093C00397
:1043800020911801309119012115310541F42DB703
:104390003EB740911C0150911D01241B350BE0914B
:1043A000C003F091C103E217F307A0F42E1B3F0BEB
:1043B0002817390778F0AC014E5F5F4F2417350797
:1043C00048F04E0F5F1F5093C1034093C003819389
:1043D000919302C0E0E0F0E0CF01DF91CF911F9117
:1043E0000F910895CF93DF93009709F481C0FC01EA
:1043F000329713821282A091C203B091C303109727
:1044000081F420813181820F931F2091C00330916C
:10441000C1032817390751F5F093C103E093C00396
:1044200067C0ED0120E030E0CE17DF0740F44A819D
:104430005B819E0141155105F1F0EA01F5CFD3836F
:10444000C28340815181840F951FC817D90759F441
:1044500088819981840F951F0296918380838A8138
:104460009B81938382832115310529F4F093C30343
:10447000E093C2033DC0E901FB83EA83499159916E
:10448000C40FD51FEC17FD0761F480819181840F63
:10449000951F0296E90199838883828193819B838A
:1044A0008A83E0E0F0E012968D919C91139700973B
:1044B00019F0FD01DC01F7CF8D919C9111979D01C1
:1044C0002E5F3F4F820F931F2091C0033091C10395
:1044D0002817390769F4309729F41092C303109212
:1044E000C20302C013821282B093C103A093C0031F
:1044F000DF91CF910895A0E0B0E0E1E8F2E20C9402
:10450000FF20EC01009721F4CB010E945A21B4C096
:10451000FC01E60FF71F9C0122503109E217F30757
:1045200008F4A8C0D9010D911C911197061717071F
:10453000B0F00530110508F49BC0C8010497861738
:10454000970708F495C002501109061B170B019339
:1045500011936D937C93CF010E94F22189C05B017E
:10456000A01AB10A4C01800E911EA091C203B09115
:10457000C303612C712CE12CF12C109709F446C077
:104580008D919C911197A815B905B1F56C0142E088
:10459000C40ED11CCA14DB0478F14C018A189B08A4
:1045A000640142E0C40ED11C1296BC90129713967F
:1045B000AC91B5E0CB16D10440F0B282A3839182D6
:1045C0008082D9016D937C9309C00E5F1F4F800FCD
:1045D000911FF90191838083EB2DFA2FE114F104EF
:1045E00031F0D7011396FC93EE93129741C0F093EC
:1045F000C303E093C2033CC06816790608F43C018B
:104600007D0112960D90BC91A02DB7CF8091C00373
:104610009091C10388169906E1F466167706C8F4EE
:104620008091180190911901009741F48DB79EB7C0
:1046300040911C0150911D01841B950BE817F9074F
:10464000C8F4F093C103E093C003F9017183608360
:104650000FC0CB010E945A217C01009759F0A8019C
:10466000BE010E944623CE010E94F221C70104C070
:10467000CE0102C080E090E0CDB7DEB7EEE00C9452
:104680001B2181E090E0F8940C946623FB01DC018F
:1046900002C001900D9241505040D8F70895DC01BE
:1046A00001C06D9341505040E0F70895FB01DC01DB
:1046B0008D91019080190110D9F3990B0895FB0198
:1046C000DC0101900D920020E1F7089515E0CBE4A4
:1046D000D5E004C0FE010E9454212196CC34D107BC
:0646E000C9F7F894FFCFBA
:1046E600080706050C0B0A093132334134353642C8
:1046F600373839432B303D440000C40380000000A6
:104706000000D90B20177605260CA7058505990507
:10471600000000002F0902091B0AC107FA08E60873
:10472600D70800000000200A20171B0A1F175E0981
:10473600C107EA07C207DE07D207F107C1070C0661
:104746001E0FF60A3A0B0A07ED0680062106000040
:104756000000E30CA30C710C0D0A00202B20003086
:1047660000203D203F00416464696E672E2E2E00B6
:0C477600202F20002C2000203D200000FF
:00000001FF
