:100000000C944C050C9474050C9474050C947405B4
:100010000C9474050C9474050C9474050C9474057C
:100020000C9474050C9474050C9474050C9474056C
:100030000C9474050C9474050C9474050C9474055C
:100040000C94060D0C9474050C941D170C94F71663
:100050000C9474050C9474050C9474050C9474053C
:100060000C94500D0C947405000000002300260031
:10007000290000000008000201000003040700003E
:1000800000000000000000000000003E5B4F5B3EEF
:100090003E6B4F6B3E1C3E7C3E1C183C7E3C181C4D
:1000A000577D571C1C5E7F5E1C00183C1800FFE744
:1000B000C3E7FF0018241800FFE7DBE7FF30483AEA
:1000C000060E2629792926407F050507407F05254C
:1000D0003F5A3CE73C5A7F3E1C1C08081C1C3E7FD4
:1000E00014227F22145F5F005F5F06097F017F009B
:1000F0006689956A606060606094A2FFA2940804BB
:100100007E040810207E201008082A1C08081C2ADB
:1001100008081E101010100C1E0C1E0C30383E3833
:1001200030060E3E0E06000000000000005F0000DA
:100130000007000700147F147F14242A7F2A12234B
:100140001308646236495620500008070300001C5B
:100150002241000041221C002A1C7F1C2A08083E64
:100160000808008070300008080808080000606077
:100170000020100804023E5149453E00427F4000E5
:1001800072494949462141494D331814127F1027BD
:10019000454545393C4A494931412111090736490C
:1001A000494936464949291E0000140000004034E0
:1001B00000000008142241141414141400412214E5
:1001C0000802015909063E415D594E7C1211127C0C
:1001D0007F494949363E414141227F4141413E7F6D
:1001E000494949417F090909013E414151737F084D
:1001F00008087F00417F41002040413F017F0814F3
:1002000022417F404040407F021C027F7F04081053
:100210007F3E4141413E7F090909063E4151215E31
:100220007F09192946264949493203017F01033FC5
:100230004040403F1F2040201F3F4038403F631454
:1002400008146303047804036159494D43007F4156
:1002500041410204081020004141417F0402010293
:1002600004404040404000030708002054547840B8
:100270007F284444383844444428384444287F384C
:100280005454541800087E090218A4A49C787F08CE
:1002900004047800447D40002040403D007F102849
:1002A000440000417F40007C047804787C0804040A
:1002B000783844444438FC1824241818242418FCA2
:1002C0007C08040408485454542404043F44243C47
:1002D0004040207C1C2040201C3C4030403C4428B6
:1002E0001028444C9090907C4464544C4400083650
:1002F00041000000770000004136080002010204BE
:10030000023C2623263C1EA1A161123A4040207ADD
:100310003854545559215555794122545478422125
:100320005554784020545579400C1E52721239555C
:100330005555593954545459395554545800004559
:100340007C410002457D420001457C407D12111236
:100350007DF0282528F07C545545002054547C54C9
:100360007C0A097F4932494949323A4444443A3285
:100370004A4848303A4141217A3A42402078009D2B
:10038000A0A07D3D4242423D3D4040403D3C24FFD7
:100390002424487E4943662B2FFC2F2BFF0929F686
:1003A00020C0887E090320545479410000447D41D7
:1003B0003048484A32384040227A007A0A0A727D30
:1003C0000D19317D2629292F28262929292630484B
:1003D0004D4020380808080808080808382F10C8B9
:1003E000ACBA2F102834FA00007B000008142A143D
:1003F0002222142A14085500550055AA55AA55AAB8
:10040000FF55FF55FF000000FF00101010FF001403
:100410001414FF001010FF00FF1010F010F014145F
:1004200014FC001414F700FF0000FF00FF1414F484
:1004300004FC141417101F10101F101F1414141F85
:1004400000101010F0000000001F101010101F10FE
:10045000101010F010000000FF10101010101010FD
:100460001010FF10000000FF140000FF00FF00004C
:100470001F10170000FC04F414141710171414F4C0
:1004800004F40000FF00F714141414141414F700FB
:10049000F7141414171410101F101F141414F4144C
:1004A0001010F010F000001F101F0000001F1400BB
:1004B0000000FC140000F010F01010FF10FF1414E6
:1004C00014FF141010101F00000000F010FFFFFFB9
:1004D000FFFFF0F0F0F0F0FFFFFF0000000000FF72
:1004E000FF0F0F0F0F0F3844443844FC4A4A4A3478
:1004F0007E02020606027E027E026355494163388F
:1005000044443C04407E201E2006027E020299A53F
:10051000E7A5991C2A492A1C4C7201724C304A4D9D
:100520004D303048784830BC625A463D3E494949D2
:10053000007E0101017E2A2A2A2A2A44445F44447B
:1005400040514A444040444A51400000FF0103E00A
:1005500080FF000008086B6B083612362436060F41
:10056000090F06000018180000001010003040FFAE
:100570000101001F01011E00191D1712003C3C3C27
:100580003C0000000000000103070F1F3F7F0080B8
:10059000C0E0F0F8FCFE2200FF2100000000002473
:1005A0000027002A00DB40A4A62EAFDA0281DA126F
:1005B00081DA02818F2000A1C8D300408DAED580A2
:1005C000A801020408102040800102040810200144
:1005D000020408102000000000250028002B000461
:1005E00004040404040404020202020202030303DA
:1005F0000303030000600000000000000000000092
:1006000000000000E000000000000000000000000A
:10061000000001E0000000000000000000000000F9
:100620000001F000000000000000000000000000D9
:1006300003F00000000000000000000000000007C0
:10064000F00000000000000000000000000007F8BB
:10065000000000000000000000000000000FF80093
:10066000000003C0007E000001E0007F0FF80000E2
:100670000003C000FE000001E000FFEFF8000000F2
:1006800003C000FE000001E000FFFFF800000003CF
:10069000C000F00000000F007FFE7FC0000003C01C
:1006A00000F00000000F003FFE7FF83FF1FBCFFCA1
:1006B000FEF3BC3DEFE01FFE7FFF7FFBFFDFFEFE92
:1006C000FFBC3DEFE01FC6FFFF7FFBFFDFFEFEFF2D
:1006D000BC3DEFE00FE3C7FE787BC3DE1EF0FFBC3E
:1006E0003DEF0007FF87FC787BC3DE1EF0F83C3D42
:1006F000EF0001FFFFF0007BC3C01EF0F03C3DEFB8
:100700000001F37FE03FFBC3CFFEF0F03C3DEF0084
:1007100003E33F807FFBC3DFFEF0F03C3DEF0007CB
:10072000E73C00787BC3DE1EF0F03C3DEF0007FFA6
:10073000BE00787BC3DE1EF0F03C3DEF0007FFFEFD
:1007400000787BC3DE1EF0F03C3DEF000FFFFE00A3
:100750007FFBFFDFFEF0F03FFDEFE00FFFFF007FCC
:10076000FBFFDFFEF0F03FFDEFE00FF9FF003E7909
:10077000F9CF9EF0F01F3DE7E01FF1FF0000000001
:1007800000000000000000001F80FF007FFFFFFF4F
:10079000FFFFFFFFFFFFE01C007F007FFFFFFFFE6A
:1007A000B46D888D18E000001F007FFFFFFFFE95ED
:1007B000AD7DB577E000000F007FFFFFFFFEA5AD28
:1007C0009D8D19E0000006007FFFFFFFFEB5ADED37
:1007D000B57EE00000000000018000000000000085
:1007E000000000038000000000000000000007C0BF
:1007F00000000000000000000007C0000000000032
:10080000000000000FC00000000000000000001FFA
:10081000E00000000000000000001FE000000000F9
:1008200000000000003FE0000000000000000000A9
:100830003FF00000000000000000007FF00000001A
:10084000000000001FF87FF0000000000000003FE3
:10085000FE7FF0000000000000003FFF7FF000007E
:1008600000000000001FFFFBE0000000000000008F
:100870000FFFF9FFC00000000000000FFFF9FFF8B4
:1008800000000000000007FFF1FFFF000000000073
:100890000003FC73FFFF80000000000001FE3FFF2B
:1008A000FF80000000000000FF1E0FFF000000009E
:1008B0000000007FFE1FFC000000000000003FFF62
:1008C000FFF8000000000000000FDFFFE000000064
:1008D000000000001F19FFC0000000000000003FE2
:1008E0003CFF00000000000000007E7CF8000000DB
:1008F00000000000007FFE7C0000000000000000FF
:10090000FFFFFC0000000000000000FFFFFE0000F1
:10091000000000000000FFFFFE00000000000000DB
:1009200001FFEFFE0000000000000001FFCFFE000D
:1009300000000000000003FF07FE000000000000B0
:100940000003FC07FE0000000000000003F003FEAF
:1009500000000000000000018000FE000000000018
:1009600000000000007E0000000000000000000009
:100970003E000000000000000000000C000000002D
:100980000000078000FC000003C000000007800199
:10099000FC000003C0000000078001FC000003C051
:1009A000000000078001E00000001E00000007803A
:1009B00001E00000001E007FE3F79FF9FDE7787B70
:1009C000DFC0FFF7FFBFFDFDFF787BDFC0FFF7FF54
:1009D000BFFDFDFF787BDFC0F0F787BC3DE1FF780E
:1009E0007BDE00F0F787BC3DE1F0787BDE0000F7AE
:1009F00087803DE1E0787BDE007FF7879FFDE1E0C7
:100A0000787BDE00FFF787BFFDE1E0787BDE00F05A
:100A1000F787BC3DE1E0787BDE00F0F787BC3DE185
:100A2000E0787BDE00F0F787BC3DE1E0787BDE001C
:100A3000FFF7FFBFFDE1E07FFBDFC0FFF7FFBFFD7A
:100A4000E1E07FFBDFC07CF3F39F3DE1E03E7BCF45
:100A5000C00000000000000000000000FFFFFFFFDA
:100A6000FFFFFFFFFFFFC0FFFFFFFFFD68DB111A65
:100A700031C0FFFFFFFFFD2B5AFB6AEFC0FFFFFFF6
:100A8000FFFD4B5B3B1A33C0FFFFFFFFFD6B5BDBE2
:100A90006AFDC0009F1FD71911241FBECFEFD8E0F9
:100AA000DEBFCDBF23E0A4EAB1E001C01D92AE3CA1
:100AB000B207E1F711E0A0E0B1E0EEE6F7E402C032
:100AC00005900D92A43AB107D9F715E0CBE4D5E033
:100AD00004C02197FE010E949821CA34D107C9F7AA
:100AE0000E94ED190C94AA230C940000FC01538D74
:100AF000448D252F30E0842F90E0821B930B5417F8
:100B000010F0CF96089501970895FC01918D828D84
:100B1000981761F0828DDF01A80FB11D5D968C9151
:100B2000928D9F5F9F73928F90E008958FEF9FEF5C
:100B30000895FC01918D828D981731F0828DE80F18
:100B4000F11D858D90E008958FEF9FEF0895FC01D2
:100B5000918D228D892F90E0805C9F4F821B91099F
:100B60008F739927089580E090E0892B29F00E94E7
:100B7000ED1681110C9400000895833081F028F463
:100B8000813099F08230A1F008958730A9F0883043
:100B9000B9F08430D1F4809180008F7D03C08091C2
:100BA00080008F7780938000089584B58F7702C08E
:100BB00084B58F7D84BD08958091B0008F7703C088
:100BC0008091B0008F7D8093B00008953FB7F89476
:100BD0008091080290910902A0910A02B0910B0243
:100BE00026B5A89B05C02F3F19F00196A11DB11D88
:100BF0003FBFBA2FA92F982F8827820F911DA11DC3
:100C0000B11DBC01CD0142E0660F771F881F991FFF
:100C10004A95D1F708950895FC016370658B84812E
:100C2000958126813781613039F0633029F09187D1
:100C3000808733872287089531872087938782872B
:100C400008956F927F928F929F92AF92BF92CF92B0
:100C5000DF92EF92FF920F931F93CF93DF93EC01FC
:100C60004B015A0169013801E881F9810284F38559
:100C7000E02D0995E881F9810288F389E02D87014B
:100C80009601A501B401CE010995A501460D571D98
:100C900041505109E881F9810288F389E02D9601DC
:100CA000B401CE010995E881F9810088F189E02D30
:100CB0009301A501B401CE010995C80CD91CB60158
:100CC00061507109E881F9810088F189E02D930173
:100CD000A501CE010995E881F9810688F789E02D03
:100CE000CE01DF91CF911F910F91FF90EF90DF9098
:100CF000CF90BF90AF909F908F907F906F9009940E
:100D00008F929F92AF92BF92CF92DF92EF92FF921B
:100D10000F931F93CF93DF934C016B015A01E901AD
:100D2000DC01ED91FC916217730781F4041715073C
:100D300024F48B2D5801042F182F0A191B09980130
:100D40002F5F3F4F048CF58DE02D12C040175107E7
:100D500009F52617370724F48D2D6901C62FD82FE2
:100D60009E012C193D092F5F3F4F068CF78DE02D1A
:100D70008701A501B601C4010995DF91CF911F91AB
:100D80000F91FF90EF90DF90CF90BF90AF909F902A
:100D90008F9008950284F385E02D0995D401ED919B
:100DA000FC910488F589E02D9E01A501B601C401DE
:100DB0000995D401ED91FC910688F789E02DC401D5
:100DC000DF91CF911F910F91FF90EF90DF90CF9027
:100DD000BF90AF909F908F900994EF92FF920F93E6
:100DE0001F93DC011A960D911C911B9718962D915B
:100DF0003C911997ED91FC9100A0F1A1E02D7B01B0
:100E000040E050E060E070E009951F910F91FF9085
:100E1000EF9008954F925F926F927F928F929F9280
:100E2000AF92BF92CF92DF92EF92FF920F931F93F8
:100E3000CF93DF936C012B015A0139014801DC018A
:100E4000ED91FC910284F385E02D0995E201640C9B
:100E5000751CD601ED91FC91C615D7055CF4008890
:100E6000F189E02D87019401A501BE01C601099514
:100E70002196EFCF0688F789E02DC601DF91CF914B
:100E80001F910F91FF90EF90DF90CF90BF90AF90A8
:100E90009F908F907F906F905F904F9009948F926A
:100EA0009F92AF92BF92CF92DF92EF92FF920F93F9
:100EB0001F93CF93DF93EC015B014A016901E88145
:100EC000F9810284F385E02D099595012C0D3D1DD6
:100ED00021503109E881F9810488F589E02D7801F4
:100EE0008401A401B501CE010995E881F981068844
:100EF000F789E02DCE01DF91CF911F910F91FF90E7
:100F0000EF90DF90CF90BF90AF909F908F9009941B
:100F10008F929F92AF92BF92CF92DF92EF92FF9209
:100F20000F931F93CF93DF93EC015B014A0169019B
:100F30007801E881F9810284F385E02D0995C80CD8
:100F4000D91C860101501109E881F9810488F589CD
:100F5000E02D9501A401B501CE010995E881F98143
:100F60000688F789E02DCE01DF91CF911F910F9177
:100F7000FF90EF90DF90CF90BF90AF909F908F90B9
:100F800009940895EF92FF920F931F93DC01ED9166
:100F9000FC9100A0F1A1E02D09951F910F91FF9008
:100FA000EF9008950F931F93DC01ED91FC91068C57
:100FB000F78DE02D09951F910F9108950F931F93C1
:100FC000DC01ED91FC91048CF58DE02D09951F91CC
:100FD0000F910895DC01ED91FC910084F185E02DE5
:100FE00009942F923F924F925F926F927F928F92CD
:100FF0009F92AF92BF92CF92DF92EF92FF920F93A8
:101000001F93CF93DF9300D000D000D0CDB7DEB7D1
:101010002C017E836D836A015901C801FC82EB8239
:101020004801841A950A97FE03C09194819491080F
:1010300035012D813E81621A730A77FE03C07194D7
:1010400061947108681479045CF43A2D2B2D5C01CD
:10105000832F922F3D812E81DE82CD82C32ED22E10
:10106000AD81BE81AA16BB065CF43C2D2D2D6C0112
:10107000832F922F3D812E81BE82AD82A32EB22E70
:1010800085012D813E81021B130B1C012C183D088C
:1010900037FE03C0319421943108780117FF03C053
:1010A0003FEFE31AF30AF594E794C816D9062CF03B
:1010B0008FEF9FEF9A83898304C0A1E0B0E0BA83E9
:1010C000A9832D813E81A216B30624F1D201ED91B0
:1010D000FC910484F585E02D2B813C816814790412
:1010E00024F44D815E81B60103C0A6016D817E812D
:1010F000C2010995E218F308F7FE06C029813A817A
:10110000C20ED31EE00EF11E8D819E8101969E833C
:101110008D83D7CF26960FB6F894DEBF0FBECDBF16
:10112000DF91CF911F910F91FF90EF90DF90CF90C3
:10113000BF90AF909F908F907F906F905F904F90F7
:101140003F902F90089585ED8093BC008091BC0066
:1011500084FDFCCF1092430208954091E401262FB4
:1011600030E0240F311D21323105DCF4209143029F
:101170002430C9F4FC0180E090E0861758F43091E7
:10118000E4012191DC01AC53BE4FA30FB11D2C93A0
:101190000196F3CF8091E401680F6093E40180E051
:1011A000089581E0089582E0089508950895E091FA
:1011B000150280911402E81730F4F0E0EC55FE4F70
:1011C000808190E008958FEF9FEF08959091150230
:1011D00080911402981750F4E92FF0E0EC55FE4F7F
:1011E000208130E09F5F9093150202C02FEF3FEF08
:1011F000C90108958091140290E020911502821B8C
:1012000091090895CF92DF92EF92FF920F931F936F
:10121000CF93DF937C01CB018A01209144022223EA
:1012200089F0EB016B01C40ED51ECC15DD0569F00C
:101230006991D701ED91FC910190F081E02DC701FA
:101240000995F3CF642F0E94AD08C801DF91CF91BB
:101250001F910F91FF90EF90DF90CF900895CF9363
:10126000DF931F92CDB7DEB769832091440222231A
:10127000D1F020916702203240F021E030E0FC0103
:101280003383228380E090E015C080914502E82FEF
:10129000F0E0EA5BFD4F998190838F5F8093450278
:1012A0008093670205C061E0CE0101960E94AD08FF
:1012B00081E090E00F90DF91CF910895FC0177FDE0
:1012C000B9C080859185681779070CF0B3C057FDC8
:1012D000B1C082859385481759070CF00895858918
:1012E000823079F484819581DC01A61BB70BBD01A6
:1012F0006150710986819781DC01A41BB50BAD019A
:101300000EC0833009F084C064277527CA01862780
:1013100097276827792746815781481B590B4150E9
:1013200051092130310531F048F12230310509F4FD
:101330004AC00895CA0157FD07969C01A3E0359560
:101340002795AA95E1F7A481B5812A9FC0012B9F1B
:10135000900D3A9F900D1124680F791F068CF78D20
:10136000E02DE60FF71F4770552781E090E001C0A0
:10137000880F4A95EAF79081892B48C0CA0157FD2A
:1013800007969C0193E0359527959A95E1F7A481FE
:10139000B5812A9FC0012B9F900D3A9F900D11247B
:1013A000680F791F068CF78DE02DE60FF71F477049
:1013B000552781E090E001C0880F4A95EAF78095B3
:1013C0009081892323C0CA0157FD07969C0183E0C1
:1013D000359527958A95E1F7A481B5812A9FC001AB
:1013E0002B9F900D3A9F900D1124680F791F068C4A
:1013F000F78DE02DE60FF71F4770552781E090E04D
:1014000001C0880F4A95EAF7908189278083089563
:10141000813009F086CF6427752746275727642730
:10142000752784819581DC01A61BB70BBD01615036
:10143000710977CF089580E090E008950E94852398
:10144000AF92BF92CF92EF92FF920F931F93CF93E1
:10145000DF93EC01262F888D998D009709F040C00D
:101460006A3059F41D861C862C898E859F8538E04C
:10147000239F800D911D112441C06D3009F4AAC035
:101480008E898823C1F03C898C859D8546E0349FF8
:10149000800D911D112448855985481759075CF422
:1014A0001D861C868E859F8548E0349F800D911D8A
:1014B00011249F878E87EA88FB88088919894E85C1
:1014C0005F856C857D85CC88CE010E9425142C8992
:1014D0008C859D8536E0239F800D911D112442C08F
:1014E0006A3079F41D861C862C89FC013696E491BD
:1014F0008E859F852E9F800D911D11249F878E873D
:1015000069C06D3009F466C0FC01349634916317EC
:1015100008F460C03196E491E61708F45BC0FC0162
:10152000329665917491422F50E0431B510937E088
:10153000349F5001359FB00C1124A60EB71EF50143
:10154000329634913196E491332311F0E1110DC0BC
:10155000F5013496E4912C898C859D85E29F800D60
:10156000911D11249D878C8735C0F50135964491D6
:101570005E89552311F16C89E32FF0E0E40FF11D32
:1015800047FDFA956E9FD0016F9FB00D11244C85D9
:101590005D854A0F5B1FE885F985E417F5076CF454
:1015A0001D861C86FC013696E4918E859F856E9F74
:1015B000800D911D11249F878E87EA88FB880889FA
:1015C00019894E855F856C857D85CC88CE010E940A
:1015D0002514BECF81E090E0DF91CF911F910F9154
:1015E000FF90EF90CF90BF90AF9008950F931F930F
:1015F000CF93DF93DC015596EC915597E23071F073
:10160000E330E9F0E13079F5FB0114960D90BC91DF
:10161000A02DA41BB50BA21BB30B18C0EC01EC81D1
:10162000FD81E61BF70BBF0161507109EE81FF815F
:10163000DF01A41BB50BAD01421B530B14C0DA0133
:10164000EC01EE81FF81E61BF70B3197F7FD0DC032
:10165000EC014E815F81E417F5073CF4AF01BD0159
:101660000E94091302C00E947013DF91CF911F9155
:101670000F9108950F931F93DC015596EC915597A8
:10168000E23061F0E33009F1E13081F51496ED913B
:10169000FC911597E41BF50B319723C0DC011496E0
:1016A000ED91FC911597DF01A61BB70BBD01DC0185
:1016B0001696ED91FC911797DF01A41BB50BAD01B8
:1016C00041505109621B730B11C0FA01DC011696DF
:1016D0004D915C911797DA01A61BB70BBD01621BF8
:1016E000730BAB01BF010E9470130CC057FD0AC001
:1016F000DC011696ED91FC9117974E175F0714F4D5
:101700000E9409131F910F910895FC01848DDF0140
:10171000A80FB11DA35ABF4F2C91848D90E0019664
:101720008F739927848FA689B7892C93A089B18953
:101730008C91837080648C93938D848D981306C0F4
:101740000288F389E02D80818F7D80830895EF9258
:10175000FF920F931F93CF93DF93EC0181E0888F6B
:101760009B8D8C8D981305C0E889F989808185FD52
:1017700026C0F62E0B8D10E00F5F1F4F0F73112741
:10178000E02E8C8DE8120CC00FB607FCFACFE8896A
:10179000F989808185FFF5CFCE010E94850BF1CFBD
:1017A0008B8DFE01E80FF11DE35AFF4FF0829FB7CA
:1017B000F8940B8FEA89FB89808180620AC09FB709
:1017C000F894EE89FF896083E889F98980818370C4
:1017D000806480839FBF81E090E0DF91CF911F9173
:1017E0000F91FF90EF900895CF93DF93EC01888DD8
:1017F0008823C9F0EA89FB89808185FD05C0A88915
:10180000B9898C9186FD0FC00FB607FCF5CF80819A
:1018100085FFF2CFA889B9898C9185FFEDCFCE01E4
:101820000E94850BE7CFDF91CF910895CF93DF938F
:10183000282F30E0F901EE58FF4F8491F901EF5362
:10184000FA4FD491F901E152FA4FC491CC2391F0AF
:1018500081110E94BD05EC2FF0E0EE0FFF1FE8594B
:10186000FF4FA591B491EC91ED2381E090E021F43C
:1018700080E002C080E090E0DF91CF910895862F54
:101880000C94160C1F93CF93DF93282F30E0F901AF
:10189000EE58FF4F8491F901EF53FA4FD491F901BB
:1018A000E152FA4FC491CC23C1F0162F81110E944E
:1018B000BD05EC2FF0E0EE0FFF1FEB52FA4FA591A4
:1018C000B4919FB7F894111104C08C91D095D8238E
:1018D00002C0EC91DE2BDC939FBFDF91CF911F9173
:1018E0000895862F642F0C94420CCF93DF9390E0E1
:1018F000FC01EF53FA4F2491FC01E152FA4F84911D
:10190000882361F190E0880F991FFC01E556FA4F9A
:10191000C591D491FC01EB52FA4FA591B49161119C
:1019200009C09FB7F8948881209582238883EC9121
:101930002E230BC0623061F49FB7F8948881322F58
:10194000309583238883EC912E2B2C939FBF06C068
:101950008FB7F894E8812E2B28838FBFDF91CF912A
:101960000895862F642F0C94750C8E3008F08E50DD
:101970008770806480937C0080917A00806480937B
:101980007A0080917A0086FDFCCF809178002091CA
:10199000790090E0922B08958F929F92AF92BF9220
:1019A000CF92DF92EF92FF926B017C010E94E605DD
:1019B0004B015C01C114D104E104F104F1F00E9477
:1019C000E605DC01CB0188199909AA09BB09883E03
:1019D0009340A105B10570F321E0C21AD108E108D6
:1019E000F10888EE880E83E0981EA11CB11CC1147A
:1019F000D104E104F10419F7DDCFFF90EF90DF90FF
:101A0000CF90BF90AF909F908F9008951F920F92AC
:101A10000FB60F9211242F933F938F939F93AF9301
:101A2000BF9380910C0290910D02A0910E02B09193
:101A30000F023091070223E0230F2D3720F4019687
:101A4000A11DB11D05C026E8230F0296A11DB11DE1
:101A50002093070280930C0290930D02A0930E0234
:101A6000B0930F028091080290910902A0910A029E
:101A7000B0910B020196A11DB11D809308029093B5
:101A80000902A0930A02B0930B02BF91AF919F91FC
:101A90008F913F912F910F900FBE0F901F9018952F
:101AA0001F920F920FB60F9211242F933F934F93D3
:101AB0005F936F937F938F939F93AF93BF93EF93B6
:101AC000FF938091B900887F803609F49CC068F547
:101AD000883209F45BC090F4803109F454C038F4C2
:101AE000882309F4F6C0883009F44DC0F6C0883167
:101AF00009F44CC0803209F45DC0EFC0803409F4B1
:101B000068C048F4803309F455C0883309F0E5C053
:101B100080934102D8C0803509F44FC0883509F45C
:101B20005DC0883409F0D9C0D6C0883909F4C7C06F
:101B3000A8F4883709F467C038F4883609F463C01C
:101B4000803709F460C0C9C0883809F4B8C080394A
:101B500009F45FC0803809F0C0C05BC0803B09F465
:101B600086C038F4803A09F466C0883A09F47FC028
:101B7000B4C0803C09F4A7C0883C09F4A4C0883BE9
:101B800009F48AC0AAC080911E0210C09091400240
:101B900080913F02981770F5E091400281E08E0F2E
:101BA00080934002F0E0E15EFD4F80818093BB00B6
:101BB00085EC86C0809341028EC0E091400281E0B6
:101BC0008E0F809340028091BB00F0E0E15EFD4FFC
:101BD00080839091400280913F026EC0E09140026C
:101BE00081E08E0F809340028091BB00F0E0E15EC7
:101BF000FD4F80838091420281116DC081E080930E
:101C00001D0284EA61C083E08093430210920602C1
:101C1000CFCF80910602803208F051C0E0910602D9
:101C200081E08E0F809306028091BB00F0E0EA51C4
:101C3000FE4F8083BDCF85EC8093BC0010924302A1
:101C400080910602803230F4E0910602F0E0EA5121
:101C5000FE4F10826091060270E0E0911002F09158
:101C6000110286EE91E009951092060236C084E0DA
:101C7000809343021092E5011092E401E091120278
:101C8000F091130209958091E401811105C081E072
:101C90008093E4011092C401E091E50181E08E0F90
:101CA0008093E501F0E0EC53FE4F80818093BB0010
:101CB0009091E5018091E401981708F479CF85E8C7
:101CC0008093BC000AC085EC8093BC001092430254
:101CD00004C0109241020E94A308FF91EF91BF91AE
:101CE000AF919F918F917F916F915F914F913F91B4
:101CF0002F910F900FBE0F901F90189508958EBDD5
:101D000000000DB407FEFDCF8EB508951F93CF934D
:101D1000DF93FC01848D958D009729F1162FEF013B
:101D200020A131E0309344022093660210924502D4
:101D300010926702DC01ED91FC910190F081E02DA1
:101D400060E009958C8D9D8DDC01ED91FC910190F9
:101D5000F081E02D612F09958C8D9D8DDF91CF91C4
:101D60001F910C946918A4A5B5A59C9182A9809592
:101D700089238C93828D938D892B31F0862FDF916F
:101D8000CF911F910C947F0E28E030E080E8A0A551
:101D9000B1A590A9462F482319F04C91942B03C06C
:101DA0004C91909594239C93A2A5B3A54C9191A995
:101DB000942B9C93A2A5B3A54C9191A990959423A3
:101DC0009C9386952150310911F7DF91CF911F9196
:101DD00008958CBD9DBD08951F93CF93DF93EC01B3
:101DE000162F8C8D9D8D892BB1F02EA93FA948AD62
:101DF00059AD60E074E284EF90E00E947621DA0150
:101E0000C9014097A109B109B695A79597958795FE
:101E10008093B8000FC08A8D9B8D892B21F08CA9EF
:101E20009DA90E94E90EEEA5FFA590818BA9809542
:101E300089238083111102C066EA01C067EACE01DE
:101E40000E94860E8C8D9D8D892BB1F02AAD3BAD05
:101E50004CAD5DAD60E074E284EF90E00E947621CD
:101E6000DA01C9014097A109B109B695A7959795DF
:101E700087958093B80006C0EEA5FFA590818BA939
:101E8000892B8083DF91CF911F91089596E0899FE0
:101E9000D0011124A15BBC4F90967C936E935F9709
:101EA00091E091969C9391979091BB03E091BC0334
:101EB000F091BD03992339F0309751F0811108C09A
:101EC00080916B0304C0309719F05C968C91099453
:101ED0000895CF92DF92EF92FF920F931F9396E0B7
:101EE000899FF0011124E15BFC4F11A2278D30A1E5
:101EF0002130310539F158F02230310509F447C05D
:101F00002330310509F04FC060E070E044C0662323
:101F100009F449C061E070E00E94460F2FB7F894C1
:101F200080910C0290910D02A0910E02B0910F02CF
:101F30002FBF8093A7039093A803A093A903B09306
:101F4000AA0331C09FB7F894C0900C02D0900D0244
:101F5000E0900E02F0900F029FBF0091A703109136
:101F6000A8032091A9033091AA03C01AD10AE20A5A
:101F7000F30A0091B9031091BA0320E030E00C1588
:101F80001D052E053F0518F462E070E004C06111E4
:101F90000AC063E070E01F910F91FF90EF90DF9017
:101FA000CF900C94460F1F910F91FF90EF90DF9010
:101FB000CF9008950F931F93CF93DF93EC01888107
:101FC0009981009729F02A813B812617370788F4E9
:101FD0008B016F5F7F4F0E94BF22009761F0998352
:101FE00088831B830A832C813D81232B11F4FC0100
:101FF000108281E001C080E0DF91CF911F910F91AD
:102000000895EF92FF920F931F93CF93DF938091E8
:10201000210390912203892BD1F020913B03309131
:102020003C0340913D0350913E0360E074E284EF35
:1020300090E00E947621DA01C9014097A109B10917
:10204000B695A795979587958093B80016C080910F
:102050001F0390912003892B31F0809139039091D7
:102060003A030E94E90EE0913303F091340390812A
:102070008091380380958923808365E086E995E027
:102080000E94C51860910903615085E093E00E94A9
:10209000860E20910B0330910C03C901079697FD22
:1020A000079633E0959587953A95E1F720910903D6
:1020B00030910A03829F8001839F100D929F100D23
:1020C0001124C0912303D091240380912103909186
:1020D00022030C0F1D1F009709F44CC0209125030B
:1020E00031E0309344022093660210924502109230
:1020F0006702DC01ED91FC910190F081E02D60E43C
:102100000995FF24F394EE24E394809121039091A8
:1021100022030C171D0759F1BFE1BF15D0F40E942F
:10212000691880912503E092440280936602109220
:102130004502109267028091210390912203DC01F5
:10214000ED91FC910190F081E02D60E40995FF2470
:10215000F39480912103909122036991DC01ED9128
:10216000FC910190F081E02D0995F394CECF0E946F
:10217000691841C0E0913103F09132039081809160
:102180003703892B80830C171D07A9F189912091B2
:102190001F0330912003232B19F00E947F0EF3CFF1
:1021A00028E030E040E8E0912D03F0912E0390917B
:1021B0003503582F542319F05081952B03C05081BB
:1021C000909595239083E0912F03F09130035081F7
:1021D00090913603952B9083E0912F03F09130037B
:1021E0005081909136039095952390834695215088
:1021F0003109C9F6C8CF8091210390912203892B20
:10220000D1F020913F033091400340914103509120
:10221000420360E074E284EF90E00E947621DA01EC
:10222000C9014097A109B109B695A79597958795DA
:102230008093B80017C0E0913303F091340390818C
:1022400080913803892B808380911F039091200314
:10225000892B41F0DF91CF911F910F91FF90EF906B
:102260000C947E0EDF91CF911F910F91FF90EF9014
:102270000895CF93DF93FC01448155816081718182
:1022800085E093E00E947B19EC0168E771E085E04E
:1022900093E00E94AA198C0F9D1FDF91CF910895A2
:1022A000CF93DF93EC0188819981009711F00E9410
:1022B0003622198218821D821C821B821A82DF91AB
:1022C000CF910895FC0124813581232B49F064E8E6
:1022D00071E0808191810E949A2321E0892B09F08D
:1022E00020E0822F08950F931F93CF93DF938C01EB
:1022F000EB01FC01808191810097B1F068817981C7
:102300006115710579F0428153812C813D8142171D
:10231000530740F00E94A3238C819D81F80195838F
:10232000848313C00E94362288819981F8019183A9
:1023300080838A819B81938382838C819D81958315
:102340008483198218821B821A821D821C82DF916B
:10235000CF911F910F9108956F927F928F929F92CC
:10236000AF92BF92CF92DF92EF92FF920F931F93A3
:10237000CF93DF9381E08093BB038FB7F8944091B4
:102380000C0250910D0260910E0270910F028FBFEE
:102390008091AB039091AC03A091AD03B091AE03DB
:1023A000481B590B6A0B7B0B8091B7039091B803C4
:1023B000A0E0B0E084179507A607B70708F0F0C0C3
:1023C000C0E08091B503C81730F0712C812C912C9E
:1023D0005401839440C0E091B103F091B203EC0F3B
:1023E000F11D62E080810E94750CCF5FEACFC62D9F
:1023F000D0E0E091B103F091B203EC0FFD1F8081BA
:102400000E94160C2496CC0FDD1FC15BDC4F892B7C
:1024100009F04BC0888199818C299D2999838883F3
:1024200063948091B503681610F3E091B303F091C3
:10243000B403E00FF11F61E080810E94420C8091A3
:10244000B3039091B403FC01E00FF11F60E08081C1
:102450000E94750C73948091B603781658F5072D79
:1024600010E0E091B303F091B403E00FF11F61E0DD
:1024700080810E94750CE091B303F091B403E00FEA
:10248000F11F60E080810E94420CD501C401072C3D
:1024900004C0880F991FAA1FBB1F0A94D2F76C01B2
:1024A0007C01E094F094612CBCCF888199818E21CD
:1024B0009F21B4CF2FE4E22E23E0F22E8BE893E0AD
:1024C000F7012FEF3FEF478D50A1452B21F4148EDC
:1024D000368F258F11A236968E179F07A1F7C0E081
:1024E00096E0D92E8091B503C81758F5D0E00C2F8F
:1024F00010E0000F111F095A1C4F2091B603D2178C
:10250000F0F4F801408151810D2E02C05695479597
:102510000A94E2F7642F6170C29F900111242D0F7D
:10252000311DEFE4F3E080E0A58DB68D2A173B075F
:1025300009F456C08F5F36968A30B1F735C0CF5F49
:10254000D1CF80E0F70191A1911181E0F6E0EF0E8B
:10255000F11C9BE8E91693E0F906A1F79FB7F89400
:1025600040910C0250910D0260910E0270910F0289
:102570009FBF4093AB035093AC036093AD03709344
:10258000AE03882369F080917003882349F080911D
:102590006E0390916F03019719F480916B032AC029
:1025A0001092BB0380E026C040FF1CC0EFE4F3E0C4
:1025B00080E090E0448D411117C0E091AF03F091AD
:1025C000B003E20FF31F4081D89EF001D99EF00DB9
:1025D0001124E15BFC4F448F368F258F10A2178E9C
:1025E0000E94690FDF5F89CF019636968A30910588
:1025F00009F7F8CFDF91CF911F910F91FF90EF90E6
:10260000DF90CF90BF90AF909F908F907F906F9012
:1026100008950F931F93CF93DF9377FF04C0260F86
:10262000371F60E070E0DC011496CD91DC911597C6
:10263000FB01E20FF31FCE17DF071CF49E01261BE0
:10264000370B121613060CF046C0FA0157FD3796E9
:10265000DF01E3E0B595A795EA95E1F7AC9FF001BE
:10266000AD9FF00DBC9FF00D11246E0F7F1FDC019C
:102670005E96ED91FC915F97E60FF71F4770552727
:1026800081E090E001C0880F4A95EAF7482F0130B9
:10269000110539F078F002301105E9F42E0F3F1FD3
:1026A00013C02E0F3F1FE217F307A9F08081842B80
:1026B0008193F9CF80952E0F3F1FE217F30759F052
:1026C000908198239193F9CFE217F30721F080814D
:1026D00084278193F9CFDF91CF911F910F910895B6
:1026E000EF92FF920F931F93CF93DF93EC0177FD4F
:1026F000A5C0EC80FD806E157F050CF09FC057FFD4
:1027000004C0240F351F40E050E08E819F81FA0104
:10271000E20FF31F8E179F071CF49C01241B350B3F
:10272000121613060CF08AC0922F842F8695869578
:1027300086958E9DD0018F9DB00D11246A0F7B1F51
:10274000AE8DBF8DA60FB71F4770B1F188E0841B17
:10275000482F682F70E0FB01E257FA4FE4912817E9
:1027600098F4621B71092FEF30E002C03595279570
:102770006A95E2F7E2230130110549F078F0023062
:10278000110509F05BC00EC00130110519F48C91E0
:10279000E82B0AC00130110508F049C0E0958C9182
:1027A000E82302C08C91E827EC93941708F446C004
:1027B0002C813D81A20FB31FE92FE41BE830F8F014
:1027C0000230110561F48E2F9C9190959C932C8181
:1027D0003D81A20FB31F88508830B0F70FC081E051
:1027E0000115110509F480E081959E2F8C932C81B1
:1027F0003D81A20FB31F98509830C0F7E770EE23C9
:10280000E9F0F0E0EA57FA4FE4910130110539F0B0
:1028100048F00230110591F48C91E82706C08C91A4
:10282000E82B03C0E0958C91E823EC9307C00230BD
:10283000110509F4B7CFAE0DBF1DBECFDF91CF910B
:102840001F910F91FF90EF9008952F923F924F921A
:102850005F926F927F928F929F92AF92BF92CF9230
:10286000DF92EF92FF920F931F93CF93DF93CDB739
:10287000DEB76B970FB6F894DEBF0FBECDBF9B8F50
:102880008A8F5B011A01D22E1F830E833701C98202
:10289000DC0158962D913C9159972115310509F08D
:1028A000E6C018968D919C911997681779070CF0DE
:1028B000CDC11A968D919C911B97481759070CF022
:1028C000C5C18C2C912CFB0126E0C29EE00DF11DB0
:1028D0001124FB87EA871E161F060CF0B7C1A4015E
:1028E00083E0440F551F8A95E1F75D874C87CA0145
:1028F000820D931D181619060CF0A8C157968C91DD
:10290000811104C05FEA5D1508F4D394AA8DBB8DD4
:10291000ED91FC9111970284F385E02DCD0109958D
:10292000B5E0DB9EC0011124F5013596FF87EE87E7
:10293000BB82AA8225019C012A193B09398B288B6D
:10294000A101485F5F4F5B8B4A8BE889F989E40DF1
:10295000F51DEA57FF4F5491588761013D822C8243
:10296000888580FF13C0AA8DBB8DED91FC91B98144
:10297000B13031F40484F585E02D2E813F8116C0FD
:102980000684F785E02DEE80FF801AC0EE81FF817E
:10299000E615F705F1F0AA8DBB8DED91FC91B9819B
:1029A000B13051F40484F585E02D9301A601B20104
:1029B0008A8D9B8D09950DC00684F785E02D7301E6
:1029C000840194014C815D816A817B818A8D9B8D1C
:1029D0000995E885E695E887FFEFCF1ADF0A2C8195
:1029E0003D81280D391D3D832C834A895B89C4169E
:1029F000D50609F0B5CF5FEF451A550A8A819B814C
:102A0000880D991D9B838A83AE85BF854A165B0618
:102A100009F09BCFEE81FF81E615F70509F4F4C0BC
:102A2000EA8DFB8DA081B181F981F13079F4B50196
:102A30006B5F7F4F5096ED91FC915197830128E099
:102A400030E0A1018A8D9B8D0995DEC06A857B856A
:102A5000681979091E96ED91FC911F9773010C85F9
:102A60001D859401A1018A8D9B8D0995CDC0F90129
:102A70003496E491DE1AF901329685919491B7E08B
:102A8000DB9E800D911D1124F901259134913B8B22
:102A90002A8BFC01259134912901FC013296C490C6
:102AA000319634913E87329614913196D490498173
:102AB000423058F0612E012E000C77088D2D0D2C20
:102AC000000C990B9987888704C019861886612C99
:102AD000712CAA8DBB8DED91FC9111970284F38529
:102AE000E02DCD010995B9818B2E912C689CC001F8
:102AF000699C900D789C900D1124FC01EA0DFB1D42
:102B0000FD87EC871A82712C612CE12F110FFF0BCE
:102B100095012E0F3F1F3B872A87AC0CB11CA501E6
:102B20004E0F5F1F5F8B4E8BC1018D0D911DD7FC2A
:102B30009A95998F888F9E85691608F065C0862DB5
:102B400090E048855985480F591F489D9001499D3F
:102B5000300D589D300D1124D101A20FB31FB98B38
:102B6000A88BEC85FD85FD83EC83AA84BB84DA8089
:102B7000FA85DF1A288D398D280F391F3D8B2C8B54
:102B80008D2D8A0D4E895F89A416B506C1F1877017
:102B900041F4C2010196EA89FB89E40DF51D7490A8
:102BA0002C0177FE21C0AA8DBB8DED91FC91B981DE
:102BB000B13061F40484F585E02D2E813F814C898C
:102BC0005D89B5018A8D9B8D09950EC00684F785B8
:102BD000E02DEE80FF8084019401488959896C8141
:102BE0007D818A8D9B8D0995770CEFEFAE1ABE0A19
:102BF0002C813D81280D391D3D832C83C1CF3A8125
:102C00003C0D3A83639497CFAA8DBB8DED91FC91D7
:102C100011970688F789E02DCD016B960FB6F894D1
:102C2000DEBF0FBECDBFDF91CF911F910F91FF90FF
:102C3000EF90DF90CF90BF90AF909F908F907F905C
:102C40006F905F904F903F902F9009946B960FB6C6
:102C5000F894DEBF0FBECDBFDF91CF911F910F91D2
:102C6000FF90EF90DF90CF90BF90AF909F908F90AC
:102C70007F906F905F904F903F902F900895EF92CC
:102C8000FF920F931F93CF93DF936115710511F49A
:102C900080E01CC041155105C1F07B01EC018C8125
:102CA0009D818A01080F191FB801CE010E94DA0F19
:102CB000882371F3288139818C819D81B701820F2E
:102CC000931F0E94A3231D830C8381E0DF91CF918A
:102CD0001F910F91FF90EF900895CF93DF93EC0138
:102CE000409147035091480360914303709144031E
:102CF0000E943F16811103C0CE010E945011CE01E7
:102D0000DF91CF910895CF93DF93EC0161157105A9
:102D100061F0FB0101900020E9F73197AF01461BFC
:102D2000570B0E943F16811103C0CE010E94501123
:102D3000CE01DF91CF910895EF92FF920F931F93F1
:102D4000CF93DF93EC017B018A01BA010E94DA0F75
:102D5000811104C0CE010E94501107C01D830C8355
:102D6000B701888199810E94A323CE01DF91CF9181
:102D70001F910F91FF90EF900895FC011182108236
:102D80001382128215821482F3E089349F0769F05E
:102D90006091490370914A036115710531F04091CA
:102DA0004D0350914E030C949C160895CF93DF93DE
:102DB000EC016115710559F0FB0101900020E9F764
:102DC0003197AF01461B570B0E949C1602C00E9410
:102DD0005011CE01DF91CF91089588E692E00E94D4
:102DE000A70521E0892B09F420E0822F08951F9286
:102DF0000F920FB60F9211242F933F934F935F932F
:102E00006F937F938F939F93AF93BF93EF93FF93B2
:102E100088E692E00E94850BFF91EF91BF91AF9100
:102E20009F918F917F916F915F914F913F912F91E2
:102E30000F900FBE0F901F9018951F920F920FB614
:102E40000F9211242F938F939F93EF93FF93E09111
:102E50007802F09179028081E0917E02F0917F0208
:102E600082FD12C09081809181028F5F8F732091CB
:102E70008202821751F0E0918102F0E0E859FD4FA3
:102E8000958F8093810201C08081FF91EF919F9186
:102E90008F912F910F900FBE0F901F9018958F92CA
:102EA0009F92AF92BF92CF92DF92EF92FF920F93D9
:102EB0001F93CF93DF93CDB7DEB7A1970FB6F894EA
:102EC000DEBF0FBECDBF6B017C0197FF2DC06DE251
:102ED00088E692E00E94A70B8C0122273327A901E4
:102EE0002C193D094E095F0919A2CE0181967C017A
:102EF0009AE0892E912CA12CB12CCA01B901A5010F
:102F000094010E947621605DF70162937F01211593
:102F100031054105510589F7BF0188E692E00E941D
:102F2000AA19800F911F1FC09B01AC0119A28E012D
:102F30000F5D1F4F8AE0C82ED12CE12CF12CCA0165
:102F4000B901A70196010E947621605DF8016293A4
:102F50008F01211531054105510589F7BF0188E62B
:102F600092E00E94AA19A1960FB6F894DEBF0FBE98
:102F7000CDBFDF91CF911F910F91FF90EF90DF9028
:102F8000CF90BF90AF909F908F90089520910B03AA
:102F900030910C03C901079697FD079623E095959C
:102FA00087952A95E1F72091090330910A03829FC2
:102FB000A001839F500D929F500D112460E070E09E
:102FC00080912303909124030C9493233F924F927A
:102FD0005F926F927F928F929F92AF92BF92CF92A9
:102FE000DF92EF92FF920F931F93CF93DF9300D066
:102FF00000D000D0CDB7DEB72C013B014A0159010A
:10300000C901079697FD07969C0193E03595279592
:103010009A95E1F73C832B83C12CD12CE12CF12C28
:10302000312CC3018E0D9F1D9A838983E016F10612
:10303000C4F51E821D822D813E812A153B054CF56B
:10304000C90187709927892B11F0330C0EC0ED81CF
:10305000FE81F7FD379683E0F595E7958A95E1F7D0
:10306000EC0DFD1DE80DF91D349037FE0CC021E07C
:1030700030E049815A816D817E81640D751D85E046
:1030800093E00E94EA078D819E8101969E838D8345
:10309000D2CF9FEFE91AF90A2B813C81C20ED31ED1
:1030A000C0CF26960FB6F894DEBF0FBECDBFDF911E
:1030B000CF911F910F91FF90EF90DF90CF90BF9035
:1030C000AF909F908F907F906F905F904F903F90C8
:1030D000089530916702313208F04BC0809143026D
:1030E0008111FCCF9091660222E02093430221E0FF
:1030F000209342022FEF209341021092400230931E
:103100003F02E6E4F2E0AFE1B2E020E0321721F066
:1031100041914D932F5FFACF10921E0220911E0213
:10312000990F922B90931E0290911D02913061F4A1
:1031300010921D0290911E029093BB009091BC00D2
:1031400093FDF8CF95EC01C095EE9093BC00909163
:1031500043029230E1F3909141029F3F79F08091D8
:103160004102803241F080914102803331F084E0AD
:1031700005C081E003C082E001C083E010924502F7
:1031800010926702109244020895DF92EF92FF922C
:103190000F931F93CF93DF93D82ED92FC62F8091F3
:1031A000210390912203009709F454C02091250334
:1031B00031E030934402209366021092450210924F
:1031C0006702DC01ED91FC910190F081E02D60E05F
:1031D0000995ED2CFD2E11E0D1E080912103909115
:1031E0002203CC2371F11032C8F00E94691880913B
:1031F0002503D093440280936602109245021092F8
:1032000067028091210390912203DC01ED91FC91F2
:103210000190F081E02D60E0099511E0809121039B
:1032200090912203F7016491DC01ED91FC910190F2
:10323000F081E02D09951F5FC150BFEFEB1AFB0A2B
:10324000CCCFDF91CF911F910F91FF90EF90DF9046
:103250000C946918E0913103F091320390818091D0
:1032600037038095892380830D2D1D2FCC2309F4EE
:1032700039C0F801849120911F0330912003232B42
:1032800031F00E947F0EC1500F5F1F4FEFCF28E03B
:1032900030E040E8E0912D03F0912E03909135034A
:1032A000582F542319F05081952B03C050819095CD
:1032B00095239083E0912F03F091300350819091FA
:1032C0003603952B9083E0912F03F09130035081CA
:1032D000909136039095952390834695215031091E
:1032E000C9F6D1CFDF91CF911F910F91FF90EF9051
:1032F000DF9008950895CF92DF92EF92FF920F939F
:103300001F93CF93DF936C017A018B01C0E0D0E073
:10331000CE15DF0581F0D8016D918D01D601ED91BB
:10332000FC910190F081E02DC6010995892B11F0E7
:103330002196EECF7E01C701DF91CF911F910F91B2
:10334000FF90EF90DF90CF900895FC0180819181F4
:103350000C9436226115710579F0FB010190002073
:10336000E9F73197AF01461B570BDC01ED91FC915A
:103370000280F381E02D099480E090E008950F939E
:103380001F93CF93DF93EC01E881F9810190F081E5
:10339000E02D09958C0168E771E0CE010E94AA1921
:1033A000800F911FDF91CF911F910F91089586E4B7
:1033B00091E09093060380930503809123039091FD
:1033C0002403009711F00E94362283E493E00E94C8
:1033D000A51989E493E00C94A519CF93DF93CDB799
:1033E000DEB7A5970FB6F894DEBF0FBECDBF7894B9
:1033F00084B5826084BD84B5816084BD85B58260FA
:1034000085BD85B5816085BD80916E0081608093AA
:103410006E00109281008091810082608093810013
:103420008091810081608093810080918000816023
:10343000809380008091B10084608093B10080917E
:10344000B00081608093B00080917A0084608093A6
:103450007A0080917A00826080937A0080917A006D
:10346000816080937A0080917A00806880937A00EE
:103470001092C100E0917802F091790282E080839D
:10348000E0917402F09175021082E0917602F09161
:1034900077028FEC808310928002E0917C02F091A1
:1034A0007D0286E08083E0917A02F0917B02808148
:1034B00080618083E0917A02F0917B028081886054
:1034C0008083E0917A02F0917B0280818068808322
:1034D000E0917A02F0917B0280818F7D808361E0B0
:1034E00082E00E94750C61E083E00E94750C61E04F
:1034F00084E00E94750C60E085E10E94750C60E03C
:1035000084E10E94750C8091230390912403892B00
:1035100011F520910B0330910C03C901079697FD1B
:10352000079623E0959587952A95E1F72091090361
:1035300030910A03AC01429FC001439F900D529FFE
:10354000900D11240E949E219093240380932303C5
:10355000892B09F410C10E94C61780910B0390912A
:103560000C03813291050CF4B8C3BC01605471099D
:1035700077FF02C06F5F7F4F759567958091090354
:1035800090910A038255910997FD019600E410E09D
:1035900022E530E043ED57E0959587950E94E617C8
:1035A00082E0809326038091210390912203892B4E
:1035B00009F4ABC38CE3809325031092150210929B
:1035C000140210924502109267021092430281E0A9
:1035D0008093420210921D0261E082E10E94420C3F
:1035E00061E083E10E94420C8091B9008E7F80935C
:1035F000B9008091B9008D7F8093B90088E48093F1
:10360000B80085E48093BC0085ED98E090931302A8
:103610008093120286ED98E090931102809310023D
:1036200080912C0387FD1EC061E00E94750C61E053
:1036300080912C030E94420C61E070E080E090E0F9
:103640000E94CC0C60E080912C030E94420C6AE046
:1036500070E080E090E00E94CC0C61E080912C034F
:103660000E94420C8091210390912203892B09F43E
:103670000BC420913B0330913C0340913D0350919A
:103680003E0360E074E284EF90E00E947621DA016C
:10369000C9014097A109B109B695A7959795879556
:1036A0008093B80064E08DEB95E00E94C5186091AE
:1036B0000B03615085E093E00E94860E64E089EB85
:1036C00095E00E94C51880912603813009F4F3C368
:1036D00064E185E093E00E94860E64E085EB95E06E
:1036E0000E94C5188091090390910A0380389105C2
:1036F00009F0F4C380910B0390910C038032910583
:1037000009F0DBC364E081EB95E00E94C51869ED28
:1037100085E093E00E94860E80912603813009F4B3
:10372000F9C361EF85E093E00E94860E66E085EACA
:1037300095E00E94C5188091210390912203892B66
:1037400009F4EAC320913F033091400340914103C3
:103750005091420360E074E284EF90E00E94762191
:10376000DA01C9014097A109B109B695A7959795C6
:1037700087958093B8008E010F5F1F4F84E1282E3C
:10378000312C0E94C61781E090E09093180380933B
:103790001703909316038093150380911B02909159
:1037A0001C028130910509F47CC01CF4892B49F07E
:1037B00091C28230910509F4E2C0039709F42BC24B
:1037C00089C21092120310921103109214031092E6
:1037D0001303C8010E94BD166BE771E0C8010E9487
:1037E00083160E946D160E943911C8010E94A51906
:1037F00010921203109211033092140320921303BB
:103800000E94AC11F82E682F85E093E00E94BF194A
:103810000E94011064E670E080E090E00E94CC0C11
:103820001F140CF057C280ED8F0D8A3000F589E42B
:1038300093E00E946211882391F01A8219821C82FF
:103840001B821E821D82FF86188ABE01615F7F4F28
:10385000C8010E94D616B80189E493E06FC0F982CE
:103860001A8241E050E0B80189E493E074C09BE221
:10387000F91230C280911B0290911C020196909324
:103880001C0280931B0289E493E00E94621188234A
:1038900009F420C26FE771E089E493E00E94D61634
:1038A00019C2109212031092110310921403109275
:1038B0001303C8010E94BD166BE771E0C8010E94A6
:1038C00083160E946D160E943911C8010E94A51925
:1038D00010921203109211033092140320921303DA
:1038E0000E94AC11F82E682F85E093E00E94BF196A
:1038F0000E94011064E670E080E090E00E94CC0C31
:103900001F140CF0E7C180ED8F0D8A3038F583E489
:1039100093E00E9462118823B9F01A8219821C82F6
:103920001B821E821D82FF86188ABE01615F7F4F47
:10393000C8010E94D616B80183E493E00E94731177
:10394000C8010E94A519C6C1F9821A8241E050E05F
:10395000B80183E493E00E943F16BCC12DE3F2124C
:10396000B9C183E493E00E946211882309F449C13C
:103970006FE771E083E493E00E94D61642C1109293
:103980001203109211031092140310921303C80132
:103990000E94BD166BE771E0C8010E9483160E9469
:1039A0006D1661E871E00E9483160E943911C8010A
:1039B0000E94A51910921203109211033092140361
:1039C0002092130366E871E085E093E00E94AA1953
:1039D00068E771E085E093E00E94AA190E94011057
:1039E0008091430390914403009739F00E94C220D4
:1039F0006E8F7F8F88A399A304C01E8E1F8E18A27E
:103A000019A28091490390914A03009739F00E94CE
:103A1000C2206A8F7B8F8C8F9D8F04C01A8E1B8E65
:103A20001C8E1D8E412C512C3201812C912C540165
:103A30001D8A4DA2CE8CDF8CE8A0F9A0042C04C016
:103A4000F594E794D794C7940A94D2F731E0C3224F
:103A5000DD24EE24FF248A8D9B8DAC8DBD8D042C3E
:103A600004C0B595A795979587950A94D2F79C01C0
:103A7000AD0121703327442755272E8B3F8B488F6C
:103A8000598F6E8982E00E94420C6C2D83E00E9467
:103A9000420C6D8984E00E94420C64EF71E080E08A
:103AA00090E00E94CC0C84E10E94B50C31E03D8B8B
:103AB000893C91050CF41D8A85E10E94B50C9BA3FD
:103AC0008AA341E04CA3893C91050CF41CA26AEF47
:103AD00070E080E090E00E94CC0C60E082E00E9408
:103AE000420C60E083E00E94420C60E084E00E94AF
:103AF000420C8AA19BA1893C910584F081E090E071
:103B0000A0E0B0E00DA004C0880F991FAA1FBB1F42
:103B10000A94D2F7882A992AAA2ABB2AC301B20199
:103B20000E944F1760E971E088E692E00E94AA19AE
:103B30006E897F89888D998D0E944F1764E971E0A5
:103B400088E692E00E94AA19C701B6010E944F17A9
:103B500064E971E088E692E00E94AA199D89C92E65
:103B6000D12CE12CF12CC701B6010E944F1760E95E
:103B700071E088E692E00E94AA192CA1622F70E001
:103B800080E090E00E944F1764E971E088E692E0DF
:103B90000E94AA19C701B6010E944F1760E971E09F
:103BA00088E692E00E94AA19C501B4010E944F174D
:103BB00060E288E692E00E94BF193FEF431A530A81
:103BC000630A730A40E2441651046104710409F067
:103BD00030CF67E971E088E692E00E94AA19C5013A
:103BE000B4010E944F1768E771E088E692E00E94F6
:103BF000AA198092170290921802A0921902B0920C
:103C00001A0280911B0290911C02019690931C0253
:103C100080931B025FC01092120310921103109246
:103C20001403109213038090170290901802A09032
:103C30001902B0901A02CE010F960E94BD166BE7D2
:103C400071E0CE010F960E9483160E946D166FE9F7
:103C500071E00E9483167C012AE0A801C501B4012D
:103C60000E94E920F80101900020E9F73197AF01A7
:103C7000401B510BB801C7010E943F16811103C0C0
:103C8000C7010E945011C7010E943911CE010F9641
:103C90000E94A5190E94011060ED77E080E090E09D
:103CA0000E94CC0C10921C0210921B0264E871E07E
:103CB00089E493E00E94D61664E871E083E493E01F
:103CC0000E94D61610921702109218021092190232
:103CD00010921A020E94B30554CDBC0160527109C2
:103CE00077FF02C06F5F7F4F7595679580910903DD
:103CF00090910A038357910997FD019600E210E025
:103D000023E730E043EF55E047CC61E080912A03A0
:103D10000E94750C61E080912B030E94750C8091CC
:103D20002A03082E000C990BFC01E152FA4FE49192
:103D3000F0E0EE0FFF1FEB52FA4F259134913093D4
:103D4000320320933103FC01EF53FA4FE491E093E7
:103D5000370380912B03082E000C990BFC01E152D4
:103D6000FA4FE491F0E0EE0FFF1FEB52FA4FA591EE
:103D7000B491B0933403A0933303FC01EF53FA4F93
:103D8000E491E09338038C91E82BEC9380911F032E
:103D900090912003892B09F434C01FB7F8948091C7
:103DA0001602811127C0E9EEF5E08491EBECF5E015
:103DB0009491E82FF0E0EE0FFF1FE556FA4FA59122
:103DC000B491EC91E92321F461E08AE00E94420C75
:103DD00061E08AE00E94750C8CB580618CBD8CB569
:103DE00080648CBD61E08DE00E94750C61E08BE029
:103DF0000E94750C809116028F5F809316021FBF80
:103E00000FCC61E0809128030E94750C61E08091E5
:103E100029030E94750C80912803082E000C990B31
:103E2000FC01E152FA4FE491F0E0EE0FFF1FEB527C
:103E3000FA4F2591349130932E0320932D03FC01EA
:103E4000EF53FA4FE491E093350380912903082E54
:103E5000000C990BFC01E152FA4FE491F0E0EE0FF7
:103E6000FF1FEB52FA4FA591B491B0933003A0938A
:103E70002F03FC01EF53FA4FE491E09336038C914A
:103E8000E095E823EC93CCCB80911F039091200325
:103E9000892B31F08091390390913A030E94E90E09
:103EA000E0913303F0913403908180913803809541
:103EB00089238083F7CB60E10CCC8034910509F035
:103EC00026CC63E08EEA95E00E94C5188091260317
:103ED000813011F06FEC19C06FE917C08036910581
:103EE00009F015CC80910B0390910C03409709F0D9
:103EF0000ECC63E08BEA95E00E94C5188091260302
:103F0000813011F06FEA01C060E185E093E00E942A
:103F1000860EFDCB62E206CCE0913303F0913403D0
:103F2000908180913803892B808380911F03909129
:103F30002003892B09F41FCC0E947E0E1CCC10920A
:103F40006B0210926A0288EE93E0A0E0B0E08093EA
:103F50006C0290936D02A0936E02B0936F0222E206
:103F600031E0309369022093680225EC30E0309311
:103F700075022093740224EC30E030937702209392
:103F8000760220EC30E0309379022093780221EC25
:103F900030E030937B0220937A0222EC30E03093C1
:103FA0007D0220937C0226EC30E030937F02209348
:103FB0007E0210928102109282021092830210926D
:103FC00084021092C1031092C0038093C2039093A5
:103FD000C303A093C403B093C50384E391E090931B
:103FE000BF038093BE0310925103109255031092A9
:103FF00054031092560382E791E09093500380930C
:104000004F03EFE4F3E08BE893E0148E10A2178ED9
:1040100011A236968E179F07C1F784E091E0909326
:10402000B2038093B10380E091E09093B403809356
:10403000B30384E08093B5038093B60388E091E0F6
:104040009093B0038093AF038AE090E09093B8031D
:104050008093B70384EF91E09093BA038093B90300
:104060001092BD031092BC031092AB031092AC03EC
:104070001092AD031092AE031092BB0310924A034C
:104080001092490310924C0310924B0310924E036E
:1040900010924D0341E050E064E871E089E493E060
:1040A0000E949C1610924403109243031092460300
:1040B00010924503109248031092470341E050E0EC
:1040C00064E871E083E493E00E949C161092080378
:1040D0001092070320E830E030930A03209309038D
:1040E00080E290E090930C0380930B0330930E03D7
:1040F00020930D039093100380930F0310921A03E3
:1041000010921203109211031092140310921303D1
:1041100091E0909319032FEF3FEF30931803209312
:104120001703309316032093150390931B031092EB
:104130001C0310921E0310921D0326E431E03093FD
:104140000603209305031092200310921F032EEB09
:1041500033E0309322032093210310922403109222
:1041600023038FEF809328038093290380932A03EE
:1041700080932B0390932C0380E580933903109256
:104180003A0308951F93FC0199278827BC01E894FE
:1041900011911032E9F3193010F01E30C8F31B32C0
:1041A00051F01D3249F4689406C00E94F820610F56
:1041B000711D811D911D119110531A30B0F33EF401
:1041C00090958095709561957F4F8F4F9F4F1F9170
:1041D0000895BB272A3051F4992342F4BDE290950B
:1041E0008095709561957F4F8F4F9F4F0C940E2156
:1041F000592F482F372F262F660F771F881F991F9B
:10420000660F771F881F991F620F731F841F951FEA
:10421000660F771F881F991F0895BB27FA01A62FE5
:104220006217710581059105330B30FB66F0AA27F3
:10423000660F771F881F991FAA1FA21710F0A21BD5
:1042400063953850A9F7A05DAA3308F0A95DA19342
:1042500036F7B111B1931082CA010C942F21DC0101
:10426000FC01672F71917723E1F7329704C07C91AD
:104270006D9370836291AE17BF07C8F308952F92B4
:104280003F924F925F926F927F928F929F92AF92E6
:10429000BF92CF92DF92EF92FF920F931F93CF9333
:1042A000DF93CDB7DEB7CA1BDB0B0FB6F894DEBFCA
:1042B0000FBECDBF09942A88398848885F846E84F0
:1042C0007D848C849B84AA84B984C884DF80EE803A
:1042D000FD800C811B81AA81B981CE0FD11D0FB643
:1042E000F894DEBF0FBECDBFED010895A1E21A2EF6
:1042F000AA1BBB1BFD010DC0AA1FBB1FEE1FFF1F8A
:10430000A217B307E407F50720F0A21BB30BE40BD9
:10431000F50B661F771F881F991F1A9469F7609520
:104320007095809590959B01AC01BD01CF010895DA
:10433000EE0FFF1F0590F491E02D09940F931F934A
:10434000CF93DF938230910510F482E090E0E0910A
:10435000CC03F091CD0320E030E0A0E0B0E0309756
:1043600019F1408151810281138148175907C8F022
:104370008417950769F4109731F012960C931297F1
:1043800013961C9327C00093CC031093CD0322C037
:104390002115310519F04217530718F49A01BD0190
:1043A000EF01DF01F801DBCF21153105F9F0281B02
:1043B000390B2430310580F48A819B8161157105A8
:1043C00021F0FB019383828304C09093CD038093FB
:1043D000CC03FE01329644C0FE01E20FF31F81932D
:1043E000919322503109398328833AC02091CA031E
:1043F0003091CB03232B41F420911A0130911B0102
:104400003093CB032093CA032091180130911901F6
:104410002115310541F42DB73EB740911C01509153
:104420001D01241B350BE091CA03F091CB03E21769
:10443000F307A0F42E1B3F0B2817390778F0AC01C7
:104440004E5F5F4F2417350748F04E0F5F1F5093A4
:10445000CB034093CA038193919302C0E0E0F0E064
:10446000CF01DF91CF911F910F910895CF93DF93EB
:10447000009709F481C0FC01329713821282A09147
:10448000CC03B091CD03109781F420813181820F4C
:10449000931F2091CA033091CB032817390751F598
:1044A000F093CB03E093CA0367C0ED0120E030E056
:1044B000CE17DF0740F44A815B819E01411551050B
:1044C000F1F0EA01F5CFD383C28340815181840F9B
:1044D000951FC817D90759F488819981840F951FB2
:1044E0000296918380838A819B81938382832115A5
:1044F000310529F4F093CD03E093CC033DC0E901ED
:10450000FB83EA8349915991C40FD51FEC17FD072E
:1045100061F480819181840F951F0296E90199834E
:104520008883828193819B838A83E0E0F0E0129606
:104530008D919C911397009719F0FD01DC01F7CF45
:104540008D919C9111979D012E5F3F4F820F931F7C
:104550002091CA033091CB032817390769F43097AB
:1045600029F41092CD031092CC0302C01382128260
:10457000B093CB03A093CA03DF91CF910895A0E03D
:10458000B0E0E5ECF2E20C944321EC01009721F459
:10459000CB010E949E21B4C0FC01E60FF71F9C01D5
:1045A00022503109E217F30708F4A8C0D9010D9190
:1045B0001C91119706171707B0F00530110508F484
:1045C0009BC0C80104978617970708F495C002504E
:1045D0001109061B170B019311936D937C93CF0167
:1045E0000E94362289C05B01A01AB10A4C01800EDC
:1045F000911EA091CC03B091CD03612C712CE12CC4
:10460000F12C109709F446C08D919C911197A81533
:10461000B905B1F56C0142E0C40ED11CCA14DB042B
:1046200078F14C018A189B08640142E0C40ED11C49
:104630001296BC9012971396AC91B5E0CB16D104AC
:1046400040F0B282A38391828082D9016D937C93E2
:1046500009C00E5F1F4F800F911FF9019183808366
:10466000EB2DFA2FE114F10431F0D7011396FC93EE
:10467000EE93129741C0F093CD03E093CC033CC07E
:104680006816790608F43C017D0112960D90BC91E4
:10469000A02DB7CF8091CA039091CB0388169906BD
:1046A000E1F466167706C8F480911801909119011B
:1046B000009741F48DB79EB740911C0150911D01A8
:1046C000841B950BE817F907C8F4F093CB03E0932C
:1046D000CA03F901718360830FC0CB010E949E2140
:1046E0007C01009759F0A801BE010E948A23CE01E7
:1046F0000E943622C70104C0CE0102C080E090E0D3
:10470000CDB7DEB7EEE00C945F2181E090E0F89445
:104710000C94AA23FB01DC0102C001900D924150D0
:104720005040D8F70895DC0101C06D9341505040CE
:10473000E0F70895FB01DC018D91019080190110D3
:10474000D9F3990B0895FB01DC0101900D92002033
:10475000E1F7089515E0CBE4D5E004C0FE010E9426
:0E47600098212196CC34D107C9F7F894FFCFE9
:10476E00080706050C0B0A0931323341343536423F
:10477E00373839432B303D440000CE038000000013
:10478E000000A70B7B197605F40BA7058505990587
:10479E00000000002F0902091B0AC107FA08E608EB
:1047AE00D70800000000200A7B191B0A7A195E093F
:1047BE00C107EA07C207DE07D207F107C1070C06D9
:1047CE00EC0EF60A3A0B0A07ED06800621060000EB
:1047DE000000B10C710C3F0C0D0A00202B20003094
:1047EE0000203D203F00416464696E672E2E2E002E
:1047FE00202F20002C2000544F54414C3A200020F2
:04480E003D20000049
:00000001FF
