:100000000C944C050C9474050C9474050C947405B4
:100010000C9474050C9474050C9474050C9474057C
:100020000C9474050C9474050C9474050C9474056C
:100030000C9474050C9474050C9474050C9474055C
:100040000C94E20B0C9474050C9474050C947405D8
:100050000C9474050C9474050C9474050C9474053C
:100060000C942C0C0C947405000000002400270054
:100070002A00DB40A4A62EAFDA0281DA1281DA026E
:10008000818F2000A1C8D300408DAED580A800008C
:100090000000250028002B00000060000000000088
:1000A000000000000000000000E000000000000070
:1000B0000000000000000001E0000000000000005F
:1000C00000000000000001F000000000000000003F
:1000D000000000000003F00000000000000000002D
:1000E0000000000007F00000000000000000000019
:1000F00000000007F8000000000000000000000001
:1001000000000FF800000003C0007E000001E000C6
:100110007F0FF800000003C000FE000001E000FFB8
:10012000EFF800000003C000FE000001E000FFFF48
:10013000F800000003C000F00000000F007FFE7F09
:10014000C0000003C000F00000000F003FFE7FF879
:100150003FF1FBCFFCFEF3BC3DEFE01FFE7FFF7FD6
:10016000FBFFDFFEFEFFBC3DEFE01FC6FFFF7FFB96
:10017000FFDFFEFEFFBC3DEFE00FE3C7FE787BC371
:10018000DE1EF0FFBC3DEF0007FF87FC787BC3DE7F
:100190001EF0F83C3DEF0001FFFFF0007BC3C01EE6
:1001A000F0F03C3DEF0001F37FE03FFBC3CFFEF0FA
:1001B000F03C3DEF0003E33F807FFBC3DFFEF0F048
:1001C0003C3DEF0007E73C00787BC3DE1EF0F03CCF
:1001D0003DEF0007FFBE00787BC3DE1EF0F03C3D24
:1001E000EF0007FFFE00787BC3DE1EF0F03C3DEF22
:1001F000000FFFFE007FFBFFDFFEF0F03FFDEFE0B2
:100200000FFFFF007FFBFFDFFEF0F03FFDEFE00F91
:10021000F9FF003E79F9CF9EF0F01F3DE7E01FF1B6
:10022000FF0000000000000000000000001F80FF31
:10023000007FFFFFFFFFFFFFFFFFFFE01C007F00CD
:100240007FFFFFFFFEB46D888D18E000001F007F68
:10025000FFFFFFFE95AD7DB577E000000F007FFF4B
:10026000FFFFFEA5AD9D8D19E0000006007FFFFF9A
:10027000FFFEB5ADEDB57EE000000000000180009E
:1002800000000000000000000380000000000000EB
:1002900000000007C000000000000000000007C0D0
:1002A0000000000000000000000FC000000000007F
:1002B000000000001FE00000000000000000001F20
:1002C000E00000000000000000003FE0000000002F
:1002D00000000000003FF0000000000000000000EF
:1002E0007FF0000000000000001FF87FF000000019
:1002F000000000003FFE7FF0000000000000003F13
:10030000FF7FF0000000000000001FFFFBE0000086
:1003100000000000000FFFF9FFC000000000000017
:100320000FFFF9FFF800000000000007FFF1FFFFDA
:1003300000000000000003FC73FFFF8000000000CD
:100340000001FE3FFFFF80000000000000FF1E0FC5
:10035000FF000000000000007FFE1FFC0000000006
:100360000000003FFFFFF8000000000000000FDF6A
:10037000FFE0000000000000001F19FFC0000000A7
:10038000000000003F3CFF00000000000000007E75
:100390007CF800000000000000007FFE7C000000F0
:1003A0000000000000FFFFFC000000000000000053
:1003B000FFFFFE0000000000000000FFFFFE000045
:1003C000000000000001FFEFFE0000000000000040
:1003D00001FFCFFE0000000000000003FF07FE0049
:1003E00000000000000003FC07FE00000000000009
:1003F0000003F003FE00000000000000018000FE8A
:10040000000000000000000000007E00000000006E
:1004100000000000003E000000000000000000009E
:100420000C000000000000078000FC000003C0007A
:100430000000078001FC000003C0000000078001ED
:10044000FC000003C0000000078001E00000001E67
:10045000000000078001E00000001E007FE3F79F1E
:10046000F9FDE7787BDFC0FFF7FFBFFDFDFF787B7D
:10047000DFC0FFF7FFBFFDFDFF787BDFC0F0F78730
:10048000BC3DE1FF787BDE00F0F787BC3DE1F07812
:100490007BDE0000F787803DE1E0787BDE007FF7C0
:1004A000879FFDE1E0787BDE00FFF787BFFDE1E09D
:1004B000787BDE00F0F787BC3DE1E0787BDE00F082
:1004C000F787BC3DE1E0787BDE00F0F787BC3DE1DB
:1004D000E0787BDE00FFF7FFBFFDE1E07FFBDFC0E0
:1004E000FFF7FFBFFDE1E07FFBDFC07CF3F39F3D43
:1004F000E1E03E7BCFC000000000000000000000F3
:1005000000FFFFFFFFFFFFFFFFFFFFC0FFFFFFFF39
:10051000FD68DB111A31C0FFFFFFFFFD2B5AFB6A9C
:10052000EFC0FFFFFFFFFD4B5B3B1A33C0FFFFFF38
:10053000FFFD6B5BDB6AFDC02200FF2100000000B5
:100540000023002600290004040404040404040217
:100550000202020202030303030303010204081060
:10056000204080010204081020010204081020002D
:100570000000080002010000030407000000000062
:1005800000000000000000003E5B4F5B3E3E6B4FF2
:100590006B3E1C3E7C3E1C183C7E3C181C577D5715
:1005A0001C1C5E7F5E1C00183C1800FFE7C3E7FFC1
:1005B0000018241800FFE7DBE7FF30483A060E2654
:1005C00029792926407F050507407F05253F5A3CAC
:1005D000E73C5A7F3E1C1C08081C1C3E7F14227FEF
:1005E00022145F5F005F5F06097F017F00668995C7
:1005F0006A606060606094A2FFA29408047E0408B0
:1006000010207E201008082A1C08081C2A08081E32
:10061000101010100C1E0C1E0C30383E3830060E18
:100620003E0E06000000000000005F000000070012
:100630000700147F147F14242A7F2A1223130864CE
:100640006236495620500008070300001C22410072
:100650000041221C002A1C7F1C2A08083E080800B2
:100660008070300008080808080000606000201052
:100670000804023E5149453E00427F40007249490C
:1006800049462141494D331814127F1027454545ED
:10069000393C4A494931412111090736494949360E
:1006A000464949291E0000140000004034000000A3
:1006B00008142241141414141400412214080201D5
:1006C0005909063E415D594E7C1211127C7F494901
:1006D00049363E414141227F4141413E7F4949499E
:1006E000417F090909013E414151737F0808087F94
:1006F00000417F41002040413F017F081422417F9B
:10070000404040407F021C027F7F0408107F3E4132
:1007100041413E7F090909063E4151215E7F091989
:100720002946264949493203017F01033F404040A1
:100730003F1F2040201F3F4038403F631408146390
:1007400003047804036159494D43007F414141024C
:1007500004081020004141417F040201020440408E
:10076000404040000307080020545478407F28444C
:1007700044383844444428384444287F3854545436
:100780001800087E090218A4A49C787F0804047845
:1007900000447D40002040403D007F102844000080
:1007A000417F40007C047804787C08040478384455
:1007B000444438FC1824241818242418FC7C080409
:1007C0000408485454542404043F44243C4040202A
:1007D0007C1C2040201C3C4030403C4428102844D5
:1007E0004C9090907C4464544C4400083641000086
:1007F00000770000004136080002010204023C2696
:1008000023263C1EA1A161123A4040207A3854545C
:1008100055592155557941225454784221555478DF
:100820004020545579400C1E527212395555555975
:10083000395454545939555454580000457C41009A
:1008400002457D420001457C407D1211127DF02859
:100850002528F07C545545002054547C547C0A09CA
:100860007F4932494949323A4444443A324A484835
:10087000303A4141217A3A42402078009DA0A07D43
:100880003D4242423D3D4040403D3C24FF242448FF
:100890007E4943662B2FFC2F2BFF0929F620C088A9
:1008A0007E090320545479410000447D413048487A
:1008B0004A32384040227A007A0A0A727D0D193194
:1008C0007D2629292F28262929292630484D4020F0
:1008D000380808080808080808382F10C8ACBA2FCC
:1008E000102834FA00007B000008142A1422221475
:1008F0002A14085500550055AA55AA55AAFF55FFB8
:1009000055FF000000FF00101010FF00141414FF2A
:10091000001010FF00FF1010F010F0141414FC0071
:100920001414F700FF0000FF00FF1414F404FC147B
:100930001417101F10101F101F1414141F00101074
:1009400010F0000000001F101010101F10101010E9
:10095000F010000000FF101010101010101010FF09
:1009600010000000FF140000FF00FF00001F101720
:100970000000FC04F414141710171414F404F40009
:1009800000FF00F714141414141414F700F71414CF
:1009900014171410101F101F141414F4141010F056
:1009A00010F000001F101F0000001F14000000FCCA
:1009B000140000F010F01010FF10FF141414FF14B6
:1009C0001010101F00000000F010FFFFFFFFFFF0ED
:1009D000F0F0F0F0FFFFFF0000000000FFFF0F0F3E
:1009E0000F0F0F3844443844FC4A4A4A347E02020E
:1009F0000606027E027E0263554941633844443C48
:100A000004407E201E2006027E020299A5E7A599D9
:100A10001C2A492A1C4C7201724C304A4D4D303010
:100A200048784830BC625A463D3E494949007E01FB
:100A300001017E2A2A2A2A2A44445F444440514A1A
:100A4000444040444A51400000FF0103E080FF0061
:100A50000008086B6B083612362436060F090F069D
:100A6000000018180000001010003040FF010100C5
:100A70001F01011E00191D1712003C3C3C3C0000E8
:100A8000000000000103070F1F3F7F0080C0E0F05F
:100A9000F8FCFE00CF17481311241FBECFEFD8E09B
:100AA000DEBFCDBF11E0A0E0B1E0ECEEF2E302C0AA
:100AB00005900D92A834B107D9F722E0A8E4B1E07F
:100AC00001C01D92A635B207E1F715E0CBE4D5E0F1
:100AD00004C02197FE010E943B18CA34D107C9F710
:100AE0000E9457130C9469190C9400003FB7F894B6
:100AF0008091B0019091B101A091B201B091B30188
:100B000026B5A89B05C02F3F19F00196A11DB11D68
:100B10003FBFBA2FA92F982F8827820F911DA11DA3
:100B2000B11DBC01CD0142E0660F771F881F991FE0
:100B30004A95D1F708950895FC016370658B84810F
:100B4000958126813781613039F0633029F09187B2
:100B5000808733872287089531872087938782870C
:100B600008956F927F928F929F92AF92BF92CF9291
:100B7000DF92EF92FF920F931F93CF93DF93EC01DD
:100B80004B015A0169013801E881F9810284F3853A
:100B9000E02D0995E881F9810288F389E02D87012C
:100BA0009601A501B401CE010995A501460D571D79
:100BB00041505109E881F9810288F389E02D9601BD
:100BC000B401CE010995E881F9810088F189E02D11
:100BD0009301A501B401CE010995C80CD91CB60139
:100BE00061507109E881F9810088F189E02D930154
:100BF000A501CE010995E881F9810688F789E02DE4
:100C0000CE01DF91CF911F910F91FF90EF90DF9078
:100C1000CF90BF90AF909F908F907F906F900994EE
:100C20008F929F92AF92BF92CF92DF92EF92FF92FC
:100C30000F931F93CF93DF934C016B015A01E9018E
:100C4000DC01ED91FC916217730781F4041715071D
:100C500024F48B2D5801042F182F0A191B09980111
:100C60002F5F3F4F048CF58DE02D12C040175107C8
:100C700009F52617370724F48D2D6901C62FD82FC3
:100C80009E012C193D092F5F3F4F068CF78DE02DFB
:100C90008701A501B601C4010995DF91CF911F918C
:100CA0000F91FF90EF90DF90CF90BF90AF909F900B
:100CB0008F9008950284F385E02D0995D401ED917C
:100CC000FC910488F589E02D9E01A501B601C401BF
:100CD0000995D401ED91FC910688F789E02DC401B6
:100CE000DF91CF911F910F91FF90EF90DF90CF9008
:100CF000BF90AF909F908F900994EF92FF920F93C7
:100D00001F93DC011A960D911C911B9718962D913B
:100D10003C911997ED91FC9100A0F1A1E02D7B0190
:100D200040E050E060E070E009951F910F91FF9066
:100D3000EF9008954F925F926F927F928F929F9261
:100D4000AF92BF92CF92DF92EF92FF920F931F93D9
:100D5000CF93DF936C012B015A0139014801DC016B
:100D6000ED91FC910284F385E02D0995E201640C7C
:100D7000751CD601ED91FC91C615D7055CF4008871
:100D8000F189E02D87019401A501BE01C6010995F5
:100D90002196EFCF0688F789E02DC601DF91CF912C
:100DA0001F910F91FF90EF90DF90CF90BF90AF9089
:100DB0009F908F907F906F905F904F9009948F924B
:100DC0009F92AF92BF92CF92DF92EF92FF920F93DA
:100DD0001F93CF93DF93EC015B014A016901E88126
:100DE000F9810284F385E02D099595012C0D3D1DB7
:100DF00021503109E881F9810488F589E02D7801D5
:100E00008401A401B501CE010995E881F981068824
:100E1000F789E02DCE01DF91CF911F910F91FF90C7
:100E2000EF90DF90CF90BF90AF909F908F900994FC
:100E30008F929F92AF92BF92CF92DF92EF92FF92EA
:100E40000F931F93CF93DF93EC015B014A0169017C
:100E50007801E881F9810284F385E02D0995C80CB9
:100E6000D91C860101501109E881F9810488F589AE
:100E7000E02D9501A401B501CE010995E881F98124
:100E80000688F789E02DCE01DF91CF911F910F9158
:100E9000FF90EF90DF90CF90BF90AF909F908F909A
:100EA00009940895EF92FF920F931F93DC01ED9147
:100EB000FC9100A0F1A1E02D09951F910F91FF90E9
:100EC000EF9008950F931F93DC01ED91FC91068C38
:100ED000F78DE02D09951F910F9108950F931F93A2
:100EE000DC01ED91FC91048CF58DE02D09951F91AD
:100EF0000F910895DC01ED91FC910084F185E02DC6
:100F000009942F923F924F925F926F927F928F92AD
:100F10009F92AF92BF92CF92DF92EF92FF920F9388
:100F20001F93CF93DF9300D000D000D0CDB7DEB7B2
:100F30002C017E836D836A015901C801FC82EB821A
:100F40004801841A950A97FE03C0919481949108F0
:100F500035012D813E81621A730A77FE03C07194B8
:100F600061947108681479045CF43A2D2B2D5C01AE
:100F7000832F922F3D812E81DE82CD82C32ED22EF1
:100F8000AD81BE81AA16BB065CF43C2D2D2D6C01F3
:100F9000832F922F3D812E81BE82AD82A32EB22E51
:100FA00085012D813E81021B130B1C012C183D086D
:100FB00037FE03C0319421943108780117FF03C034
:100FC0003FEFE31AF30AF594E794C816D9062CF01C
:100FD0008FEF9FEF9A83898304C0A1E0B0E0BA83CA
:100FE000A9832D813E81A216B30624F1D201ED9191
:100FF000FC910484F585E02D2B813C8168147904F3
:1010000024F44D815E81B60103C0A6016D817E810D
:10101000C2010995E218F308F7FE06C029813A815A
:10102000C20ED31EE00EF11E8D819E8101969E831D
:101030008D83D7CF26960FB6F894DEBF0FBECDBFF7
:10104000DF91CF911F910F91FF90EF90DF90CF90A4
:10105000BF90AF909F908F907F906F905F904F90D8
:101060003F902F90089585ED8093BC008091BC0047
:1010700084FDFCCF1092E301089540918801262F52
:1010800030E0240F311D21323105DCF42091E301E1
:101090002430C9F4FC0180E090E0861758F43091C8
:1010A00088012191DC01A859BE4FA30FB11D2C93DB
:1010B0000196F3CF80918801680F6093880180E0EA
:1010C000089581E0089582E0089508950895E091DB
:1010D000B9018091B801E81730F4F0E0E85BFE4F09
:1010E000808190E008958FEF9FEF08959091B9016E
:1010F0008091B801981750F4E92FF0E0E85BFE4FBB
:10110000208130E09F5F9093B90102C02FEF3FEF45
:10111000C90108958091B80190E02091B901821B26
:1011200091090895CF92DF92EF92FF920F931F9350
:10113000CF93DF937C01CB018A012091E40122232C
:1011400089F0EB016B01C40ED51ECC15DD0569F0ED
:101150006991D701ED91FC910190F081E02DC701DB
:101160000995F3CF642F0E943D08C801DF91CF910C
:101170001F910F91FF90EF90DF90CF900895CF9344
:10118000DF931F92CDB7DEB769832091E40122235C
:10119000D1F020910702203240F021E030E0FC0144
:1011A0003383228380E090E015C08091E501E82F31
:1011B000F0E0EA51FE4F998190838F5F8093E501C3
:1011C0008093070205C061E0CE0101960E943D08B0
:1011D00081E090E00F90DF91CF910895FC0177FDC1
:1011E000B9C080859185681779070CF0B3C057FDA9
:1011F000B1C082859385481759070CF008958589F9
:10120000823079F484819581DC01A61BB70BBD0186
:101210006150710986819781DC01A41BB50BAD017A
:101220000EC0833009F084C064277527CA01862761
:1012300097276827792746815781481B590B4150CA
:1012400051092130310531F048F12230310509F4DE
:101250004AC00895CA0157FD07969C01A3E0359541
:101260002795AA95E1F7A481B5812A9FC0012B9FFC
:10127000900D3A9F900D1124680F791F068CF78D01
:10128000E02DE60FF71F4770552781E090E001C081
:10129000880F4A95EAF79081892B48C0CA0157FD0B
:1012A00007969C0193E0359527959A95E1F7A481DF
:1012B000B5812A9FC0012B9F900D3A9F900D11245C
:1012C000680F791F068CF78DE02DE60FF71F47702A
:1012D000552781E090E001C0880F4A95EAF7809594
:1012E0009081892323C0CA0157FD07969C0183E0A2
:1012F000359527958A95E1F7A481B5812A9FC0018C
:101300002B9F900D3A9F900D1124680F791F068C2A
:10131000F78DE02DE60FF71F4770552781E090E02D
:1013200001C0880F4A95EAF7908189278083089544
:10133000813009F086CF6427752746275727642711
:10134000752784819581DC01A61BB70BBD01615017
:10135000710977CF0895089580E090E00895AF92E5
:10136000BF92CF92EF92FF920F931F93CF93DF9391
:10137000EC01262F888D998D009709F040C06A30C6
:1013800059F41D861C862C898E859F8538E0239F05
:10139000800D911D112441C06D3009F4AAC08E89C1
:1013A0008823C1F03C898C859D8546E0349F800D63
:1013B000911D112448855985481759075CF41D86ED
:1013C0001C868E859F8548E0349F800D911D1124D9
:1013D0009F878E87EA88FB88088919894E855F85F3
:1013E0006C857D85CC88CE010E942E112C898C8540
:1013F0009D8536E0239F800D911D112442C06A30E7
:1014000079F41D861C862C89FC013696E4918E8524
:101410009F852E9F800D911D11249F878E8769C007
:101420006D3009F466C0FC0134963491631708F4FA
:1014300060C03196E491E61708F45BC0FC01329677
:1014400065917491422F50E0431B510937E0349F5E
:101450005001359FB00C1124A60EB71EF50132962F
:1014600034913196E491332311F0E1110DC0F5016F
:101470003496E4912C898C859D85E29F800D911D89
:1014800011249D878C8735C0F501359644915E897E
:10149000552311F16C89E32FF0E0E40FF11D47FDB6
:1014A000FA956E9FD0016F9FB00D11244C855D851C
:1014B0004A0F5B1FE885F985E417F5076CF41D8674
:1014C0001C86FC013696E4918E859F856E9F800D6B
:1014D000911D11249F878E87EA88FB8808891989C6
:1014E0004E855F856C857D85CC88CE010E942E114E
:1014F000BECF81E090E0DF91CF911F910F91FF90DF
:10150000EF90CF90BF90AF9008950F931F93CF931C
:10151000DF93DC015596EC915597E23071F0E330A2
:10152000E9F0E13079F5FB0114960D90BC91A02D06
:10153000A41BB50BA21BB30B18C0EC01EC81FD8101
:10154000E61BF70BBF0161507109EE81FF81DF01DE
:10155000A41BB50BAD01421B530B14C0DA01EC0107
:10156000EE81FF81E61BF70B3197F7FD0DC0EC0113
:101570004E815F81E417F5073CF4AF01BD010E9485
:10158000121002C00E947910DF91CF911F910F912C
:1015900008950F931F93DC015596EC915597E23017
:1015A00061F0E33009F1E13081F51496ED91FC91A1
:1015B0001597E41BF50B319723C0DC011496ED91D0
:1015C000FC911597DF01A61BB70BBD01DC01169638
:1015D000ED91FC911797DF01A41BB50BAD014150B4
:1015E0005109621B730B11C0FA01DC0116964D9173
:1015F0005C911797DA01A61BB70BBD01621B730B39
:10160000AB01BF010E9479100CC057FD0AC0DC017C
:101610001696ED91FC9117974E175F0714F40E94F0
:1016200012101F910F910895833081F028F48130BA
:1016300099F08230A1F008958730A9F08830B9F090
:101640008430D1F4809180008F7D03C08091800030
:101650008F7780938000089584B58F7702C084B51A
:101660008F7D84BD08958091B0008F7703C08091F5
:10167000B0008F7D8093B00008951F93CF93DF93C8
:10168000282F30E0F901E159FA4F8491F901E55A28
:10169000FA4FD491F901E95BFA4FC491CC23C1F020
:1016A000162F81110E94140BEC2FF0E0EE0FFF1F9C
:1016B000E257FF4FA591B4919FB7F894111104C060
:1016C0008C91D095D82302C0EC91DE2BDC939FBF88
:1016D000DF91CF911F910895CF93DF9390E0FC01AC
:1016E000E55AFA4F2491FC01E95BFA4F8491882373
:1016F00061F190E0880F991FFC01E859FF4FC591F7
:10170000D491FC01E257FF4FA591B491611109C03A
:101710009FB7F8948881209582238883EC912E23AB
:101720000BC0623061F49FB7F8948881322F3095F6
:1017300083238883EC912E2B2C939FBF06C08FB7F9
:10174000F894E8812E2B28838FBFDF91CF910895E5
:101750008F929F92AF92BF92CF92DF92EF92FF92C1
:101760006B017C010E9476054B015C01C114D10420
:10177000E104F104F1F00E947605DC01CB01881947
:101780009909AA09BB09883E9340A105B10570F3E8
:1017900021E0C21AD108E108F10888EE880E83E042
:1017A000981EA11CB11CC114D104E104F10419F765
:1017B000DDCFFF90EF90DF90CF90BF90AF909F90E4
:1017C0008F9008951F920F920FB60F9211242F93AE
:1017D0003F938F939F93AF93BF938091AC01909170
:1017E000AD01A091AE01B091AF013091AB0123E00A
:1017F000230F2D3720F40196A11DB11D05C026E849
:10180000230F0296A11DB11D2093AB018093AC0163
:101810009093AD01A093AE01B093AF018091B00160
:101820009091B101A091B201B091B3010196A11DB7
:10183000B11D8093B0019093B101A093B201B09318
:10184000B301BF91AF919F918F913F912F910F90D5
:101850000FBE0F901F9018951F920F920FB60F9208
:1018600011242F933F934F935F936F937F938F93A5
:101870009F93AF93BF93EF93FF938091B900887FBD
:10188000803609F49CC068F5883209F45BC090F496
:10189000803109F454C038F4882309F4F6C0883044
:1018A00009F44DC0F6C0883109F44CC0803209F407
:1018B0005DC0EFC0803409F468C048F4803309F497
:1018C00055C0883309F0E5C08093E101D8C0803568
:1018D00009F44FC0883509F45DC0883409F0D9C0D7
:1018E000D6C0883909F4C7C0A8F4883709F467C09E
:1018F00038F4883609F463C0803709F460C0C9C081
:10190000883809F4B8C0803909F45FC0803809F01C
:10191000C0C05BC0803B09F486C038F4803A09F44B
:1019200066C0883A09F47FC0B4C0803C09F4A7C0FF
:10193000883C09F4A4C0883B09F48AC0AAC08091FD
:10194000BE0110C09091E0018091DF01981770F501
:10195000E091E00181E08E0F8093E001F0E0E1543E
:10196000FE4F80818093BB0085EC86C08093E101AF
:101970008EC0E091E00181E08E0F8093E0018091C4
:10198000BB00F0E0E154FE4F80839091E001809134
:10199000DF016EC0E091E00181E08E0F8093E001F5
:1019A0008091BB00F0E0E154FE4F80838091E20122
:1019B00081116DC081E08093BD0184EA61C083E044
:1019C0008093E3011092AA01CFCF8091AA018032C7
:1019D00008F051C0E091AA0181E08E0F8093AA0126
:1019E0008091BB00F0E0E657FE4F8083BDCF85ECD1
:1019F0008093BC001092E3018091AA01803230F400
:101A0000E091AA01F0E0E657FE4F10826091AA0132
:101A100070E0E091B401F091B5018AE891E0099598
:101A20001092AA0136C084E08093E30110928901EC
:101A300010928801E091B601F091B701099580916B
:101A40008801811105C081E08093880110926801AE
:101A5000E091890181E08E0F80938901F0E0E859DF
:101A6000FE4F80818093BB00909189018091880115
:101A7000981708F479CF85E88093BC000AC085ECFC
:101A80008093BC001092E30104C01092E1010E9417
:101A90003308FF91EF91BF91AF919F918F917F910B
:101AA0006F915F914F913F912F910F900FBE0F90CB
:101AB0001F90189508958EBD00000DB407FEFDCF50
:101AC0008EB508951F93CF93DF93FC01848D958D80
:101AD000009729F1162FEF0120A131E03093E401A6
:101AE000209306021092E50110920702DC01ED91AD
:101AF000FC910190F081E02D60E009958C8D9D8D29
:101B0000DC01ED91FC910190F081E02D612F0995B0
:101B10008C8D9D8DDF91CF911F910C94EF0EA4A51C
:101B2000B5A59C9182A9809589238C93828D938DF4
:101B3000892B31F0862FDF91CF911F910C945B0D93
:101B400028E030E080E8A0A5B1A590A9462F482361
:101B500019F04C91942B03C04C91909594239C9335
:101B6000A2A5B3A54C9191A9942B9C93A2A5B3A532
:101B70004C9191A9909594239C938695215031097D
:101B800011F7DF91CF911F9108958CBD9DBD0895F0
:101B90001F93CF93DF93EC01162F8C8D9D8D892B96
:101BA000B1F02EA93FA948AD59AD60E074E284EFD1
:101BB00090E00E941918DA01C9014097A109B10902
:101BC000B695A795979587958093B8000FC08A8D95
:101BD0009B8D892B21F08CA99DA90E94C50DEEA596
:101BE000FFA590818BA9809589238083111102C064
:101BF00066EA01C067EACE010E94620D8C8D9D8D60
:101C0000892BB1F02AAD3BAD4CAD5DAD60E074E227
:101C100084EF90E00E941918DA01C9014097A109E8
:101C2000B109B695A795979587958093B80006C09A
:101C3000EEA5FFA590818BA9892B8083DF91CF91A1
:101C40001F910895CF92DF92EF92FF920F931F930F
:101C5000CF93DF936C017A018B01C0E0D0E0CE1509
:101C6000DF0581F0D8016D918D01D601ED91FC91D8
:101C70000190F081E02DC6010995892B11F0219684
:101C8000EECF7E01C701DF91CF911F910F91FF90A1
:101C9000EF90DF90CF90089520910E0230910F02C7
:101CA000C901079697FD079623E0959587952A9594
:101CB000E1F720910C0230910D02829FA001839FD9
:101CC000500D929F500D112460E070E0809126022B
:101CD000909127020C9462193F924F925F926F92FB
:101CE0007F928F929F92AF92BF92CF92DF92EF92AC
:101CF000FF920F931F93CF93DF9300D000D000D0BB
:101D0000CDB7DEB72C013B014A015901C901079645
:101D100097FD07969C0193E0359527959A95E1F7F5
:101D20003C832B83C12CD12CE12CF12C312CC30111
:101D30008E0D9F1D9A838983E016F106C4F51E82DD
:101D40001D822D813E812A153B054CF5C901877006
:101D50009927892B11F0330C0EC0ED81FE81F7FD20
:101D6000379683E0F595E7958A95E1F7EC0DFD1D33
:101D7000E80DF91D349037FE0CC021E030E04981B8
:101D80005A816D817E81640D751D88E092E00E940C
:101D90007A078D819E8101969E838D83D2CF9FEF9E
:101DA000E91AF90A2B813C81C20ED31EC0CF2696B8
:101DB0000FB6F894DEBF0FBECDBFDF91CF911F915C
:101DC0000F91FF90EF90DF90CF90BF90AF909F90DA
:101DD0008F907F906F905F904F903F9008953091DB
:101DE0000702313208F04BC08091E3018111FCCF32
:101DF0009091060222E02093E30121E02093E2018A
:101E00002FEF2093E1011092E0013093DF01E6EE25
:101E1000F1E0AFEBB1E020E0321721F041914D93BA
:101E20002F5FFACF1092BE012091BE01990F922B25
:101E30009093BE019091BD01913061F41092BD016B
:101E40009091BE019093BB009091BC0093FDF8CFA0
:101E500095EC01C095EE9093BC009091E301923017
:101E6000E1F39091E1019F3F79F08091E1018032AF
:101E700041F08091E101803331F084E005C081E0E0
:101E800003C082E001C083E01092E50110920702D6
:101E90001092E4010895DF92EF92FF920F931F9347
:101EA000CF93DF93D82ED92FC62F80912402909103
:101EB0002502009709F454C02091280231E03093A4
:101EC000E401209306021092E50110920702DC0162
:101ED000ED91FC910190F081E02D60E00995ED2CF1
:101EE000FD2E11E0D1E08091240290912502CC23B7
:101EF00071F11032C8F00E94EF0E80912802D09349
:101F0000E401809306021092E5011092070280918D
:101F1000240290912502DC01ED91FC910190F08169
:101F2000E02D60E0099511E0809124029091250256
:101F3000F7016491DC01ED91FC910190F081E02DBD
:101F400009951F5FC150BFEFEB1AFB0ACCCFDF91A1
:101F5000CF911F910F91FF90EF90DF900C94EF0EB7
:101F6000E0913402F0913502908180913A0280959F
:101F7000892380830D2D1D2FCC2309F439C0F8014E
:101F800084912091220230912302232B31F00E9470
:101F90005B0DC1500F5F1F4FEFCF28E030E040E8EE
:101FA000E0913002F091310290913802582F542381
:101FB00019F05081952B03C0508190959523908303
:101FC000E0913202F0913302508190913902952BC9
:101FD0009083E0913202F091330250819091390266
:101FE000909595239083469521503109C9F6D1CF1C
:101FF000DF91CF911F910F91FF90EF90DF900895A7
:10200000009769F0FC0101900020E9F73197AF01DA
:10201000481B590BBC0188E092E00C94220E80E032
:1020200090E008950F931F93CF93DF9377FF04C041
:10203000260F371F60E070E0DC011496CD91DC9133
:102040001597FB01E20FF31FCE17DF071CF49E016B
:10205000261B370B121613060CF046C0FA0157FD6B
:102060003796DF01E3E0B595A795EA95E1F7AC9FD8
:10207000F001AD9FF00DBC9FF00D11246E0F7F1F7E
:10208000DC015E96ED91FC915F97E60FF71F4770BC
:10209000552781E090E001C0880F4A95EAF7482F64
:1020A0000130110539F078F002301105E9F42E0FF6
:1020B0003F1F13C02E0F3F1FE217F307A9F08081C7
:1020C000842B8193F9CF80952E0F3F1FE217F307E2
:1020D00059F0908198239193F9CFE217F30721F0FB
:1020E000808184278193F9CFDF91CF911F910F9148
:1020F0000895EF92FF920F931F93CF93DF93EC011C
:1021000077FDA5C0EC80FD806E157F050CF09FC0AB
:1021100057FF04C0240F351F40E050E08E819F819F
:10212000FA01E20FF31F8E179F071CF49C01241B7A
:10213000350B121613060CF08AC0922F842F869549
:10214000869586958E9DD0018F9DB00D11246A0FC6
:102150007B1FAE8DBF8DA60FB71F4770B1F188E012
:10216000841B482F682F70E0FB01E557F54FE49181
:10217000281798F4621B71092FEF30E002C03595E3
:1021800027956A95E2F7E2230130110549F078F0CE
:102190000230110509F05BC00EC00130110519F4C1
:1021A0008C91E82B0AC00130110508F049C0E09578
:1021B0008C91E82302C08C91E827EC93941708F4E3
:1021C00046C02C813D81A20FB31FE92FE41BE830EC
:1021D000F8F00230110561F48E2F9C9190959C933C
:1021E0002C813D81A20FB31F88508830B0F70FC0FB
:1021F00081E00115110509F480E081959E2F8C93F3
:102200002C813D81A20FB31F98509830C0F7E77022
:10221000EE23E9F0F0E0ED57F54FE49101301105C0
:1022200039F048F00230110591F48C91E82706C08E
:102230008C91E82B03C0E0958C91E823EC9307C0C8
:102240000230110509F4B7CFAE0DBF1DBECFDF912F
:10225000CF911F910F91FF90EF9008952F923F9291
:102260004F925F926F927F928F929F92AF92BF92A6
:10227000CF92DF92EF92FF920F931F93CF93DF9352
:10228000CDB7DEB76B970FB6F894DEBF0FBECDBFEC
:102290009B8F8A8F5B011A01D22E1F830E83370119
:1022A000C982DC0158962D913C9159972115310531
:1022B00009F0E6C018968D919C91199768177907D7
:1022C0000CF0CDC11A968D919C911B974817590718
:1022D0000CF0C5C18C2C912CFB0126E0C29EE00DB8
:1022E000F11D1124FB87EA871E161F060CF0B7C1EB
:1022F000A40183E0440F551F8A95E1F75D874C8761
:10230000CA01820D931D181619060CF0A8C1579624
:102310008C91811104C05FEA5D1508F4D394AA8DF5
:10232000BB8DED91FC9111970284F385E02DCD01D9
:102330000995B5E0DB9EC0011124F5013596FF87B4
:10234000EE87BB82AA8225019C012A193B09398BA1
:10235000288BA101485F5F4F5B8B4A8BE889F98925
:10236000E40DF51DED57FA4F5491588761013D82F8
:102370002C82888580FF13C0AA8DBB8DED91FC91C6
:10238000B981B13031F40484F585E02D2E813F818F
:1023900016C00684F785E02DEE80FF801AC0EE811E
:1023A000FF81E615F705F1F0AA8DBB8DED91FC914B
:1023B000B981B13051F40484F585E02D9301A60173
:1023C000B2018A8D9B8D09950DC00684F785E02D9D
:1023D0007301840194014C815D816A817B818A8DC6
:1023E0009B8D0995E885E695E887FFEFCF1ADF0A10
:1023F0002C813D81280D391D3D832C834A895B89C1
:10240000C416D50609F0B5CF5FEF451A550A8A8183
:102410009B81880D991D9B838A83AE85BF854A1653
:102420005B0609F09BCFEE81FF81E615F70509F405
:10243000F4C0EA8DFB8DA081B181F981F13079F48E
:10244000B5016B5F7F4F5096ED91FC9151978301E1
:1024500028E030E0A1018A8D9B8D0995DEC06A8558
:102460007B85681979091E96ED91FC911F97730180
:102470000C851D859401A1018A8D9B8D0995CDC088
:10248000F9013496E491DE1AF9013296859194911E
:10249000B7E0DB9E800D911D1124F9012591349147
:1024A0003B8B2A8BFC01259134912901FC0132964A
:1024B000C490319634913E87329614913196D490DF
:1024C0004981423058F0612E012E000C77088D2D85
:1024D0000D2C000C990B9987888704C019861886E3
:1024E000612C712CAA8DBB8DED91FC91119702840A
:1024F000F385E02DCD010995B9818B2E912C689C37
:10250000C001699C900D789C900D1124FC01EA0D8E
:10251000FB1DFD87EC871A82712C612CE12F110FB6
:10252000FF0B95012E0F3F1F3B872A87AC0CB11C78
:10253000A5014E0F5F1F5F8B4E8BC1018D0D911D4D
:10254000D7FC9A95998F888F9E85691608F065C08B
:10255000862D90E048855985480F591F489D900168
:10256000499D300D589D300D1124D101A20FB31F8C
:10257000B98BA88BEC85FD85FD83EC83AA84BB8495
:10258000DA80FA85DF1A288D398D280F391F3D8BA7
:102590002C8B8D2D8A0D4E895F89A416B506C1F14D
:1025A000877041F4C2010196EA89FB89E40DF51DAB
:1025B00074902C0177FE21C0AA8DBB8DED91FC910A
:1025C000B981B13061F40484F585E02D2E813F811D
:1025D0004C895D89B5018A8D9B8D09950EC0068455
:1025E000F785E02DEE80FF808401940148895989A8
:1025F0006C817D818A8D9B8D0995770CEFEFAE1AEA
:10260000BE0A2C813D81280D391D3D832C83C1CF0D
:102610003A813C0D3A83639497CFAA8DBB8DED919F
:10262000FC9111970688F789E02DCD016B960FB6C6
:10263000F894DEBF0FBECDBFDF91CF911F910F91F8
:10264000FF90EF90DF90CF90BF90AF909F908F90D2
:102650007F906F905F904F903F902F9009946B9672
:102660000FB6F894DEBF0FBECDBFDF91CF911F91A3
:102670000F91FF90EF90DF90CF90BF90AF909F9021
:102680008F907F906F905F904F903F902F90089524
:102690008CE191E0909309028093080280912602D8
:1026A00090912702009711F00C94D9180895CF93B8
:1026B000DF93CDB7DEB7A1970FB6F894DEBF0FBE9C
:1026C000CDBF789484B5826084BD84B5816084BDBB
:1026D00085B5826085BD85B5816085BD80916E00C0
:1026E000816080936E0010928100809181008260F1
:1026F000809381008091810081608093810080912E
:1027000080008160809380008091B100846080931C
:10271000B1008091B00081608093B00080917A0018
:10272000846080937A0080917A00826080937A003E
:1027300080917A00816080937A0080917A0080682D
:1027400080937A001092C10062E082E00E946C0BDC
:102750008091260290912702892B11F520910E027B
:1027600030910F02C901079697FD0796B3E0959542
:102770008795BA95E1F720910C0230910D02AC01DA
:10278000429FC001439F900D529F900D11240E94C3
:1027900041189093270280932602892B09F410C1D7
:1027A0000E944C0E20910E0230910F0280910C027B
:1027B00090910D02213231050CF4B9C2B901605477
:1027C000710977FF02C06F5F7F4F759567958255DE
:1027D000910997FD019600E410E022E530E048E71A
:1027E00052E0959587950E946C0E82E080932902B5
:1027F0008091240290912502892B09F4ACC28CE3CC
:10280000809328021092B9011092B8011092E5014C
:10281000109207021092E30181E08093E20110928E
:10282000BD0161E082E10E943D0B61E083E10E9415
:102830003D0B8091B9008E7F8093B9008091B900E3
:102840008D7F8093B90088E48093B80085E48093FD
:10285000BC0085E698E09093B7018093B60186E6C8
:1028600098E09093B5018093B40180912F0287FD89
:102870001EC061E00E946C0B61E080912F020E94FB
:102880003D0B61E070E080E090E00E94A80B60E00A
:1028900080912F020E943D0B6AE070E080E090E0A2
:1028A0000E94A80B61E080912F020E943D0B809155
:1028B000240290912502892B09F40CC320913E0239
:1028C00030913F02409140025091410260E074E239
:1028D00084EF90E00E941918DA01C9014097A1091C
:1028E000B109B695A795979587958093B80064E050
:1028F0008AE890E00E944B0F60910E02615088E0E0
:1029000092E00E94620D64E086E890E00E944B0F26
:1029100080912902813009F4F4C264E188E092E0F8
:102920000E94620D64E082E890E00E944B0F80916B
:102930000C0290910D028038910509F0F5C280914A
:102940000E0290910F028032910509F0DCC264E022
:102950008EE790E00E944B0F69ED88E092E00E94C4
:10296000620D80912902813009F4FAC261EF88E09A
:1029700092E00E94620D66E082E790E00E944B0FB9
:102980008091240290912502892B09F4EBC22091B9
:10299000420230914302409144025091450260E06E
:1029A00074E284EF90E00E941918DA01C90140979F
:1029B000A109B109B695A795979587958093B80019
:1029C0005AE0852E912CA12CB12CC12C64E2D62E7C
:1029D00064EFE62EF12C22242394312C0E944C0E1D
:1029E00030921B0220921A02309219022092180291
:1029F00010921502109214021092170210921602F1
:102A00002091BB013091BC012901330F6608770882
:102A100077FE20C06DE288E092E00E94AF09222795
:102A20003327A901241935094609570919A28E012E
:102A30000F5D1F4FCA01B901A50194010E94191829
:102A4000605DD8016E938D01211531054105510559
:102A500089F715C0A301920119A28E010F5D1F4FC6
:102A6000CA01B901A50194010E941918605DF8011D
:102A700062938F01211531054105510589F7C80180
:102A80000E94001042E050E064E471E088E092E0CF
:102A90000E94220E8091240290912502892BC1F080
:102AA00020913E0230913F024091400250914102FC
:102AB000C701B6010E941918DA01C9014097A1099E
:102AC000B109B695A795979587958093B80016C0DC
:102AD0008091220290912302892B31F080913C0257
:102AE00090913D020E94C50DE0913602F0913702AF
:102AF000908180913B0280958923808365E088E303
:102B000095E00E944B0F60910C02615088E092E0CA
:102B10000E94620D20910E0230910F02C9010796AA
:102B200097FD079633E0959587953A95E1F72091C3
:102B30000C0230910D02829F2001839F500C929FC6
:102B4000500C11240091260210912702809124023A
:102B500090912502400E511E009709F44DC020911E
:102B60002802F1E0F093E401209306021092E501BF
:102B700010920702DC01ED91FC910190F081E02DB3
:102B800060E4099566246394809124029091250263
:102B90004016510671F1BFE1B615D8F40E94EF0E50
:102BA00080912802E1E0E093E40180930602109214
:102BB000E501109207028091240290912502DC0128
:102BC000ED91FC910190F081E02D60E4099566247F
:102BD00063948091240290912502F80161918F0104
:102BE000DC01ED91FC910190F081E02D0995639459
:102BF000CBCF0E94EF0E43C0E0913402F09135023A
:102C0000908180913A02892B808304151505B9F1D2
:102C1000F80181918F012091220230912302232B10
:102C200019F00E945B0DF1CF28E030E040E8E09120
:102C30003002F091310290913802582F542319F04C
:102C40005081952B03C05081909595239083E091FE
:102C50003202F0913302508190913902952B90838A
:102C6000E0913202F09133025081909139029095B7
:102C700095239083469521503109C9F6C6CF80919E
:102C8000240290912502892BC1F0209142023091BB
:102C900043024091440250914502C701B6010E948F
:102CA0001918DA01C9014097A109B109B695A7958C
:102CB000979587958093B80011C0E0913602F09106
:102CC0003702908180913B02892B80838091220280
:102CD00090912302892B11F00E945A0DE1E7F5E053
:102CE0008491EDE5F5E00491E9E4F5E01491112318
:102CF00009F44BC181110E94140BE12FF0E0EE0F9B
:102D0000FF1FE35CFA4FA591B4918C91082309F45D
:102D10003CC161E070E080E090E00E94A80B20E000
:102D200030E0232B09F45ACE0E94000057CEB9019F
:102D30006052710977FF02C06F5F7F4F759567958D
:102D40008357910997FD019600E210E023E730E0F8
:102D500048E950E046CD61E080912D020E946C0B65
:102D600061E080912E020E946C0B80912D02082E52
:102D7000000C990BFC01E95BFA4FE491F0E0EE0FD7
:102D8000FF1FE257FF4F2591349130933502209376
:102D90003402FC01E55AFA4FE491E0933A02809143
:102DA0002E02082E000C990BFC01E95BFA4FE4910E
:102DB000F0E0EE0FFF1FE257FF4FA591B491B093E3
:102DC0003702A0933602FC01E55AFA4FE491E093F2
:102DD0003B028C91E82BEC9380912202909123028C
:102DE000892B09F434C01FB7F8948091BA0181117E
:102DF00027C0E1E5F5E08491E5E6F5E09491E82F60
:102E0000F0E0EE0FFF1FE859FF4FA591B491EC9150
:102E1000E92321F461E08AE00E943D0B61E08AE051
:102E20000E946C0B8CB580618CBD8CB580648CBDB0
:102E300061E08DE00E946C0B61E08BE00E946C0B06
:102E40008091BA018F5F8093BA011FBF0ECD61E000
:102E500080912B020E946C0B61E080912C020E94F9
:102E60006C0B80912B02082E000C990BFC01E95B86
:102E7000FA4FE491F0E0EE0FFF1FE257FF4F25916C
:102E800034913093310220933002FC01E55AFA4F1D
:102E9000E491E093380280912C02082E000C990BEB
:102EA000FC01E95BFA4FE491F0E0EE0FFF1FE257FF
:102EB000FF4FA591B491B0933302A0933202FC016D
:102EC000E55AFA4FE491E09339028C91E095E823BA
:102ED000EC93CBCC8091220290912302892B31F08C
:102EE00080913C0290913D020E94C50DE091360216
:102EF000F0913702908180913B02809589238083F5
:102F0000F6CC60E10BCD8034910509F025CD63E06E
:102F10008BE790E00E944B0F80912902813011F0E5
:102F20006FEC19C06FE917C08036910509F014CD18
:102F300080910E0290910F02409709F00DCD63E051
:102F400088E790E00E944B0F80912902813011F0B8
:102F50006FEA01C060E188E092E00E94620DFCCC63
:102F600062E205CDE0913602F091370290818091C6
:102F70003B02892B80838091220290912302892B2E
:102F800009F41ECD0E945A0D1BCD8091BB0190917A
:102F9000BC0101969093BC018093BB01BACEA6E41C
:102FA000B2E013961C921E92129748EE53E060E036
:102FB00070E014964D935D936D937C9317978AE020
:102FC00091E011969C938E93E8E0F2E013821282D6
:102FD00020E830E03583248380E290E09783868385
:102FE0003187208793878287158A158614861786EE
:102FF000168691E0948B2FEF3FEF338B228B318B32
:10300000208B968B178A118E108E2CE131E0318344
:103010002083138E128EB58FA48F178E168E8FEF8E
:1030200083A384A385A386A397A380E584AB15AA75
:103030000895A1E21A2EAA1BBB1BFD010DC0AA1FF9
:10304000BB1FEE1FFF1FA217B307E407F50720F011
:10305000A21BB30BE40BF50B661F771F881F991F8C
:103060001A9469F760957095809590959B01AC01D5
:10307000BD01CF010895EE0FFF1F0590F491E02DE3
:1030800009940F931F93CF93DF938230910510F42F
:1030900082E090E0E0915402F091550220E030E0AF
:1030A000A0E0B0E0309719F1408151810281138195
:1030B00048175907C8F08417950769F4109731F03D
:1030C00012960C93129713961C9327C000935402E8
:1030D0001093550222C02115310519F042175307EC
:1030E00018F49A01BD01EF01DF01F801DBCF2115D2
:1030F0003105F9F0281B390B2430310580F48A8121
:103100009B816115710521F0FB019383828304C0CB
:103110009093550280935402FE01329644C0FE0102
:10312000E20FF31F81939193225031093983288351
:103130003AC02091520230915302232B41F4209146
:1031400002013091030130935302209352022091E7
:103150000001309101012115310541F42DB73EB731
:103160004091040150910501241B350BE09152025E
:10317000F0915302E217F307A0F42E1B3F0B281720
:10318000390778F0AC014E5F5F4F2417350748F0E0
:103190004E0F5F1F509353024093520281939193BD
:1031A00002C0E0E0F0E0CF01DF91CF911F910F91DD
:1031B0000895CF93DF93009709F481C0FC01329703
:1031C00013821282A0915402B0915502109781F49B
:1031D00020813181820F931F20915202309153023E
:1031E0002817390751F5F0935302E093520267C054
:1031F000ED0120E030E0CE17DF0740F44A815B812B
:103200009E0141155105F1F0EA01F5CFD383C28348
:1032100040815181840F951FC817D90759F48881BF
:103220009981840F951F0296918380838A819B8167
:10323000938382832115310529F4F0935502E0939D
:1032400054023DC0E901FB83EA8349915991C40FBF
:10325000D51FEC17FD0761F480819181840F951FC4
:103260000296E90199838883828193819B838A8373
:10327000E0E0F0E012968D919C911397009719F081
:10328000FD01DC01F7CF8D919C9111979D012E5F7F
:103290003F4F820F931F2091520230915302281703
:1032A000390769F4309729F41092550210925402AC
:1032B00002C013821282B0935302A0935202DF9194
:1032C000CF910895DC0101C06D9341505040E0F76B
:1032D000089515E0CBE4D5E004C0FE010E943B1840
:0C32E0002196CC34D107C9F7F894FFCF39
:1032EC0000005602800000000000BF089208AC09E4
:1032FC0051078A087608670800000000AF09220E03
:10330C00AC09AB09EE0851077A0752076E07620742
:10331C00810751079C05C80D850AC90A9A067D06C6
:08332C001006B1050D0A0000B6
:00000001FF
